:100000000C94DE010C94FB010C9416020C94FB0181
:100010000C94FB010C94FB010C94FB010C94FB0170
:100020000C94FB010C94FB010C944A1B0C94FB01F7
:100030000C94FB010C94FB010C94FB010C94FB0150
:100040000C94FB010C94FB010C94FB010C94FB0140
:100050000C94FB01AA00A900010001002900000086
:100060003A003B003C003D003E003F0040004100A4
:100070004200430044004500460047004800A800F5
:100080005600000035001E001F0020002100220045
:10009000230024002500260027002D002E002A0022
:1000A00049004A004B005300540055002B00140037
:1000B0001A000800150017001C0018000C001200A0
:1000C00013002F00300000004C004D004E005F0078
:1000D00060006100390004001600070009000A00F2
:1000E0000B000D000E000F0033003400320028001A
:1000F0000000000057005C005D005E00E10064004D
:100100001D001B000600190005001100100036003C
:1001100037003800E5000000000052005800590088
:100120005A005B00E000E300E20000000000000075
:100130002C00000000000000E60021526500E400F1
:10014000500051004F0062000000630001000000F9
:100150000100010001000100010001000100010097
:100160000100010001000100010001000100010087
:100170000100000001000100010001000100010078
:100180000100010001000100010001000100010067
:100190000100010001000100010001000100010057
:1001A0000100010001000100010001000100010047
:1001B0000100010001000000010001000100010038
:1001C0000100010001000100010001000100010027
:1001D0000100010001000100010001000100010017
:1001E0000000000001000100010001000100010009
:1001F00001000100010001000100010001000100F7
:1002000001000100010000000000010001000100E8
:1002100001000100010001000100000000000000D9
:1002200001000000000000000100010001000100C9
:1002300001000100010001000000010009023B0073
:10024000020100A0FA0904000001030101000921D4
:10025000010100012244000705810308000109048F
:100260000100010300000009210101000122B60084
:100270000705830308000112011001000000084275
:1002800043010000010102000114036D00610073CD
:1002900000740065007200690075006D0000001CAC
:1002A000034A00690062004A0075006200200042B3
:1002B000006F006100720064007300000004030915
:1002C0000405010906A1018506050719E029E715BE
:1002D0000025019508750181020507190029EF1510
:1002E00000250195F0750181020508190129059580
:1002F0000575019102950175039103C0050109027D
:10030000A10185020901A1000509190129081500AB
:100310002501950875018102050109300931158112
:10032000257F95027508810609381581257F95017D
:1003300075088106050C0A38021581257F9501751F
:10034000088106C0C005010980A101850319012AA1
:10035000B700150126B700950175108100C0050C86
:100360000901A101850419012AA002150126A00294
:10037000950175108100C005010906A10105071945
:10038000E029E715002501950875018102950175A1
:100390000881030507190029FF150026FF009506AF
:1003A0007508810005081901290515002501950525
:1003B00075019102950175039103C00011241FBEC0
:1003C000CFE5D8E0DEBFCDBF11E0A0E6B0E0E4E9C4
:1003D000FFE302C005900D92A031B107D9F722E0EA
:1003E000A0E1B1E001C01D92AD3CB207E1F70E946F
:1003F00034130C94811F0C940000A82FB92F80E0B7
:1004000090E041E050EA609530E009C02D918227EC
:100410009795879510F084279527305EC8F36F5F16
:10042000A8F30895EADF8D939D930895CF93CFB7F6
:10043000CF93C395839BE9F7839B0EC0839B0CC02E
:10044000839B0AC0839B08C0839B06C0C091A40203
:10045000C395C093A402A6C0DF93C091A302DD2779
:10046000C555DD4F839B02C0DF91E6CF2F930F93DD
:100470001F9300B32FEF03FB20F94F933F9310B36B
:100480004FEF012703FB21F93BE031C04E7F012FE5
:1004900010B3216028C0102F4D7F2260000000B3F0
:1004A00029C04B7F2460012F000010B32BC010B374
:1004B000477F28602AC04F7E00B320612CC04F7D4B
:1004C00010B320622FC04F7B00B3206432C042279C
:1004D00000B349934FEF0000102713FB20F910B32E
:1004E0001C70C9F1297F91F2012703FB21F900B3A8
:1004F000237F89F2315058F1102713FB22F910B3F2
:10050000277E79F2012703FB23F92F7C81F200B3C8
:10051000102713FB24F92F7971F200C010B30127C3
:1005200003FB25F92F7359F200C000B3102713FB0A
:1005300026F9223040F200C010B3012703FB27F94F
:10054000243028F64F77206810B30000F9CF10E868
:100550001ABF00271CC03B503195C31BD04010E888
:100560001ABF0881033C11F10B3401F12091A00264
:100570001981110F1213EDCF4A81441F093669F119
:100580000D3211F0013E29F74F7009F0042F00934E
:10059000A9023F914F911F910F912F91DF91CAB7FF
:1005A000C7FD47CFCF91CFBFCF9118952091A9021A
:1005B000222379F31091A702112309F044C03430AB
:1005C0000AF443C03093A7022093A2021091A30221
:1005D0003BE0311B3093A30238C00091A7020130E9
:1005E00094F50AE54F7049F43091780034FD2FC03E
:1005F00000937800CDE7D2E02EC0433059F044306C
:1006000091F03091880234FD22C000938802C9E83D
:10061000D2E021C03091C10234FD19C00093C10263
:10062000C2ECD2E018C03091940234FD10C00093A7
:100630009402C5E9D2E00FC02795A8F45150A9F45F
:10064000220F0000F9CF4AE503C042ED01C0432F5D
:10065000C4E1D0E032E011B31C60939A11BB02B345
:1006600020E41CE05F93012756E002BB279520F4AD
:10067000515021F4220FF9CF012756E000003B5AD8
:1006800002BBD0F2279528F4515029F4220F000024
:10069000F9CF012756E0279502BB20F4515021F4F1
:1006A000220FF9CF012756E02991332302BB21F60F
:1006B000037F1091A802110FC651D04002BB11F068
:1006C0001093A00210E81ABF086011B3137F402FE7
:1006D000437F5F9100C000C002BB11BB42BB59CF3A
:1006E0008230B8F46630A8F4443198F4E42FF0E096
:1006F00094E1699FE00DF11D112498E7899FE00DB9
:10070000F11D1124EE0FFF1FE45AFF4F85919491C4
:10071000089581E090E008950E947003089582306A
:1007200088F461110FC0E82FF0E0EE0FFF1F81E0A9
:100730004827E40FF11DEE0FFF1FEC5AFF4F859184
:100740009491089581E090E008950E948F030895A8
:1007500081E008950E94A803089581E008950E9411
:10076000A80308950E94AF03089508950E94B50359
:100770000895A6E0B0E0EFEBF3E00C94DE1E4983B1
:100780005A839E833091170189819A8131111AC051
:100790003E81332399F0222389F00E946F09182F9C
:1007A000682F89819A810E943C0969817A81812F11
:1007B0000E94A0102696E3E00C94FA1E0E945609AF
:1007C000182FF3CF0E946F0969817A81F1CFFC0164
:1007D000262F4081518162817381848195810E949D
:1007E000B9030895CF93DF93D82FC92F61E00E94FA
:1007F000E7036D2F7C2F0E94AA03DF91CF9108950C
:10080000CF93DF93D82FC92F60E00E94E7036D2FAD
:100810007C2F0E94B603DF91CF91089581E0089567
:100820000E940E040895CF93C82F0E940E088C2FAB
:100830000E9410042FEB87E299E021508040904005
:10084000E1F700C00000CF91089581E00E941304F9
:100850000E946E1B089580E00E9413040E94811B79
:1008600008950F931F93CF93DF938C0161E00E9453
:10087000E703EC01B8010E94B2038823B1F1B8018B
:10088000CE010E94E318882381F1B801CE010E94B5
:100890000215882351F1B801CE010E94D714882394
:1008A00021F1F8018581882381F0CA35FCE7DF0753
:1008B00039F178F4C130ECE7DE07F9F0C330FCE73A
:1008C000DF07C9F0C115DC4771F0C8010E94AD0314
:1008D0000DC0CB35ECE7DE07B1F0CC35DC47A9F72E
:1008E0000E94910DF2CF0E94250480E0DF91CF910C
:1008F0001F910F9108950E94A30D0E942B04F5CF24
:100900000E949B0DE2CF0E949F0DDFCF0E94D11A63
:100910000E94AD0408950E94B1040E94D61A089561
:10092000089581E008950895CF93DF93D82F0E9412
:100930009104C82F882319F08D2F0E9493048C2FC7
:10094000DF91CF9108950895CF93C82F0E9490040E
:100950008C2F0E949404CF91089580E00E94A404FB
:1009600008950E9429190E94A4040895CF930E941B
:100970002919C82F809112018C1779F0C0931201A8
:100980000E941E1B60931301709314018093150144
:10099000909316018C2F0E94A404CF910895ADE08E
:1009A000B0E0E5EDF4E00C94DF1E488759876A87D4
:1009B0007B878C879D8791110E94AE0C1F8286E0F9
:1009C000FE013896DE01119601900D928A95E1F7AD
:1009D0008D8181110DC029813A814B815C816D81AE
:1009E0007E818F810E94F40B2D96E2E00C94FB1E19
:1009F000CE0101960E94F2038111EDCFF5CFFC01EB
:100A00008481813021F4808191810E94A10908951F
:100A1000662329F00E9470160E94461708950E94CE
:100A2000CE16FACFCF93C82F882399F08CEF8C0F76
:100A3000813A88F48C2F0E94CC19882329F08C2FBE
:100A40000E94711A0E94340D8C2F0E945A1A0E9423
:100A5000340DCF91089580E28C0F883048F4C77030
:100A600081E001C0880FCA95EAF70E948F0CEFCF92
:100A70008BE58C0F833038F42C2F2452330BC901B3
:100A80000E945F19E6CFE8E5EC0FEB3150F4F0E09F
:100A9000EE0FFF1FE758FF4F808191810E9485195B
:100AA000D8CF83E38C0F8331A0F661E08C2F0E94B6
:100AB0000805CFCF882381F19CEF980F913A28F455
:100AC0000E94711A0E94340D089590E2980F983098
:100AD00050F4877091E001C0990F8A95EAF7892F49
:100AE0000E94950CEFCF9BE5980F933028F480E09F
:100AF00090E00E945F19089598E5980F9B3128F4C3
:100B000080E090E00E948519089593E3980F933157
:100B100018F460E00E94080508951F93CF93DF93B7
:100B2000182FEB010E941205209739F4812F0E94A3
:100B30005A05DF91CF911F91089587EB9BE00197B4
:100B4000F1F700C000002197EFCF60E070E089333B
:100B500011F460E570E00E948D050895882321F06E
:100B60000E948F0C0E94340D0895882321F00E946A
:100B7000950C0E94340D0895A0E0B0E0E2ECF5E0A1
:100B80000C94D91E6C01D62FC72FFC01158106814C
:100B900002950F700E94840CE82E8823F9F0E12E54
:100BA0001123E1F08C2F807F803461F080E28D0F83
:100BB0008830F0F08C2F807E803221F4D230C0F06B
:100BC0000023B1F08091480282FF12C082E00E94AF
:100BD000640D0E94840C91E0E82EE926EC2FE2954A
:100BE000EF70C03CB0F5F0E0ED57F04E0C94C91E2C
:100BF000E12CF4CF0C2F0F70C03110F00295007F64
:100C0000112399F0002359F080E28D0F883010F005
:100C1000D11107C0802F0E948F0C0E94340D8D2FA0
:100C200051C0802F0E94A00CF8CF8D2F0E945A0532
:100C3000002379F080E28D0F883010F0D11104C0CC
:100C4000802F0E94950C03C0802F0E94A60C0E944A
:100C5000340DEE2089F00E94800C80FD0DC0F6015D
:100C600015820E947A0C0E949908C6010E94D5073D
:100C70000E947A0C0E94A908CDB7DEB7E8E00C9478
:100C8000F51EFC2FFF70FF2EC07FC03219F0F294CA
:100C900080EFF822DD2341F0D130D1F1112309F4A6
:100CA00044C00023F1F0BBCF8091480282FD15C003
:100CB000112359F0FF2029F08F2D0E948F0C0E94E4
:100CC000340D80E00E941205C4CF80E00E945A05D6
:100CD000FF2009F4BECF8F2DB4CF112369F001118D
:100CE00004C08F2D0E94AE05B4CF013009F0B1CF02
:100CF0008F2D0E94C60CADCF0111ABCF8F2D0E945E
:100D0000B5058F2D0E94D20C8F2D0E94B50CA1CF5E
:100D1000112321F0063008F09CCFE3CF053008F016
:100D200098CF8F2D0E94B50594CF0023D1F3D933EE
:100D300049F42FEF8DEE92E0215080409040E1F792
:100D400000C000008D2F0E945A0583CF8C2F8695FE
:100D500086958370882369F0813009F07ACF8D2FD2
:100D60009C2F9370111102C080E090E00E948519C1
:100D700070CF8D2F9C2F9370111102C080E090E0F6
:100D80000E945F1966CF612F8D2F0E94080561CFE9
:100D90008C2F8370811139C0111129C04D2F4295BC
:100DA00046954770440F440F2D2F2F7030E0042ECE
:100DB00002C0220F331F0A94E2F780E090E0D4FFD4
:100DC00009C08FE090E002C0880F991F4A95E2F7B2
:100DD00080959095C695C695C370822B932BC23093
:100DE00071F0C33079F0C13039F00E9469080E9477
:100DF00029190E94A4042DCF0E946008F8CF0E94F8
:100E00007208F5CF0E945D08F2CF112361F1C0FF97
:100E1000EECF4D2F429546954770440F440F2D2F2E
:100E20002F7030E0042E02C0220F331F0A94E2F725
:100E300080E090E0D4FF09C08FE090E002C0880F0E
:100E4000991F4A95E2F780959095C695C695C3700F
:100E5000822B932BC23069F0C33071F0C13031F076
:100E60000E94D408C4CF823010F2D3CF0E94CB08A6
:100E7000BECF0E94DD08BBCF0E948108B8CFCF70E3
:100E8000112339F08C2F0E9499088D2F0E94AE05F6
:100E9000AECF8D2F0E94B5058C2F0E94A908A7CF39
:100EA000D23F31F170F4D03FB9F0D13FB1F111230D
:100EB00009F451C0002309F44BC08D2F0E94120584
:100EC00096CFD33FE1F0D43F21F11111F3CF0111BF
:100ED00050C08C2F8F71E1CF112341F0053008F005
:100EE00086CF8C2F8F710E94BB0881CF0530F7CF42
:100EF0008C2F8F711111D1CF0E94990878CF1123B7
:100F000029F08C2F8F710E948D0871CF0E94880864
:100F10006ECF8091480282FD06C08C2F8F71112305
:100F200009F4BBCFE9CF112349F0CF718C2F0E9478
:100F3000990863E08C2F0E94460D59CF81E00E94F2
:100F4000640D023008F453CF82E00E94640D4FCF4D
:100F50008C2F8F71D1CF002309F4BBCFD93349F443
:100F6000EFEFFDEE22E0E150F0402040E1F700C05D
:100F700000008D2F0E945A053ACF0F931F93CF93F5
:100F8000DF93EC01688179818D810E94AE098C012B
:100F90000E94E6080E945C08B801CE010E94BC05D0
:100FA000DF91CF911F910F910895CF93DF93EC01C3
:100FB0008C81882399F0CE010E943104811111C0E7
:100FC0000E94840C882351F08D81882339F0809110
:100FD000480282FF03C082E00E94640DDF91CF913E
:100FE0000895CE010E94BD07CE010E940004F6CFF5
:100FF00080E090E00E945F1980E090E00E948519F7
:101000000E94AE0C0E94340D0E9463170E94461786
:1010100008950E94881A0E94F80708950E949D0C66
:101020000E9409080895282F92959F70963091F09C
:1010300060F4925F9F70923030F481E0203F79F04D
:1010400030F4283E30F080E008959A5FF3CF243FDB
:10105000D1F7089581E0283EE0F3213FF9CF0895CC
:10106000FC018481882339F0808191810E94A1094B
:101070000E941308089580E00895A6E0B0E0E3E43C
:10108000F8E00C94DF1E2696E2E00C94FB1EA7E02D
:10109000B0E0EDE4F8E00C94DF1E2796E2E00C945B
:1010A000FB1E08950E94510808950E9452089093D3
:1010B0005B0180935A01089508950E945508089590
:1010C00020915A0130915B01822B932B0E9455088D
:1010D000089520915A0130915B01822393230E944D
:1010E0005508089520915A0130915B01822793277A
:1010F0000E94550808950E94510808950E947B0897
:1011000008950E947E089093590180935801089594
:1011100080E090E00E948108089521E030E0A9017C
:1011200002C0440F551F8A95E2F7CA010E94810848
:10113000089521E030E002C0220F331F8A95E2F7C4
:101140008091580190915901822B932B0E94810824
:10115000089521E030E002C0220F331F8A95E2F7A4
:1011600020953095809158019091590182239323C5
:101170000E948108089521E030E002C0220F331F51
:101180008A95E2F78091580190915901822793271F
:101190000E94810808952091580130915901822BB5
:1011A000932B0E9481080895209158013091590194
:1011B000822393230E948108089520915801309141
:1011C0005901822793270E948108089508959B0161
:1011D000677091E001C0990F6A95EAF763E0369570
:1011E00027956A95E1F7220F331F220F331FFA016B
:1011F000E20FF31F40E050E0682F70E08191DF01C3
:1012000011979B01042E02C0369527950A94E2F7A8
:10121000217021952827292328272C934F5F5F4F82
:101220004430510559F708959C01982F977083E039
:10123000369527958A95E1F7220F331F220F331F2A
:10124000FB01E20FF31F40E050E080E0219130E02D
:10125000092E02C0369527950A94E2F721703327AC
:10126000042E01C0220F0A94EAF7822B4F5F5F4FD2
:101270004430510559F70895282F862F963070F481
:10128000243158F4622F70E024E1929F600D711DAB
:1012900011244CE151E00E94E70808959C5F9230D0
:1012A000E0F7622F70E048E151E0F5CF292F96304A
:1012B00068F4843190F490E06CE171E034E1239FB4
:1012C000800D911D11240E94140908952C5F223075
:1012D00020F468E171E090E0F6CF80E00895A0E0AE
:1012E000B0E0E5E7F9E00C94D81E8C01E0905801DD
:1012F000F090590180915A0190915B01E82AF92AF6
:10130000CFE0D0E0CC24C394D12CC6010C2E02C077
:10131000880F991F0A94E2F78E219F21892B49F4A7
:10132000219798F7B12C8B2DCDB7DEB7E9E00C945F
:10133000F41EBC2EB8018C2F0E94B910019781F3C6
:10134000F2CFCF93DF93D82FC92F0E946F096D2F53
:101350007C2F0E94B910DF91CF9108951F93CF93F6
:10136000DF93162FD72F90911701992341F0862FE5
:10137000972F0E94A109DF91CF911F910895882393
:1013800081F0862F972F0E946F09C82F682F812F19
:101390009D2F0E943C09612F7D2F8C2F0E94B91038
:1013A000EACF862F972F0E945609C82FF4CF0F93AC
:1013B0001F93CF93E0915C01C7E080915D018E1394
:1013C00004C0CF911F910F9108950E2F10E0CE9F72
:1013D000F0011124E25AFE4F208131814281538174
:1013E0006481758186810E944708F8013196E77013
:1013F000E4CF20919601309197014091980150914E
:10140000990160919A0170919B0180919C010E94C9
:101410004708089580919C01803178F480919B0168
:10142000882359F0E0915C0120915D013091970192
:101430004091960157E02E1301C008956E2F70E081
:101440005E9FF0011124DF01A25ABE4F14968C91C9
:101450001497882361F111968C911197831327C0FB
:101460008C91841324C015968C91159781111FC0FF
:1014700012968D919C91A0919801B09199018A1B2F
:101480009B0B883C910598F480919C018F70806142
:1014900080939C01EC59FE4F80818F708061808326
:1014A00086E991E00E94D5070E94D7090895FB01C3
:1014B0003196E770C0CFE0915C0190915D0127E02B
:1014C000E91302C080E00895AE2FB0E02E9FF00136
:1014D0001124E25AFE4F3181361306C03081381391
:1014E00003C03581341304C0FD013196E770E8CFA5
:1014F00081E008958F929F92AF92BF92DF92EF9218
:10150000FF920F931F93CF93DF93CDB7DEB72D9745
:101510000FB6F894DEBF0FBECDBF8C0186E0F80198
:10152000DE01189601900D928A95E1F7F801E080AE
:10153000F580A280B380848196E9892E91E0992E6E
:1015400090919A0191111BC0882309F4FCC0FF20DF
:1015500009F43DC1C8010E943008882309F437C14D
:1015600087E0F801D40101900D928A95E1F7C4015A
:101570000E94FF040E940A0A0E94F909E4C0D09068
:101580009B012091980130919901A501421B530BB9
:10159000DD2009F4DBC0483C510508F0A6C08823D3
:1015A00009F4D1C090919701918080919C01803184
:1015B00008F06BC0991228C0909196019E1124C02A
:1015C000F1105DC08F70806180939C010E94F909C9
:1015D00086E991E00E94D50780919C01F8018683FD
:1015E000F12C8F2D2D960FB6F894DEBF0FBECDBF18
:1015F000DF91CF911F910F91FF90EF90DF90BF90FF
:10160000AF909F908F900895F11039C040E0692D00
:101610008E2D0E945B0A40E0692D8E2D0E945B0A90
:10162000F82E8111DDCF888599850E94A109292F87
:1016300022952F70903450F49F70223080F09923BF
:1016400099F0F8019681903178F4CBCF2A5F2F7012
:10165000223078F0C8010E94D507FD2CC2CF992313
:1016600019F0882309F4BDCF805E883008F4B9CF23
:10167000F1CF803F08F4B5CF815F8230F7CF809102
:101680009C01816080939C01ABCF991207C090911F
:1016900096019E1103C0FF2009F479C0C8010E9481
:1016A0003008882309F493C0FF2009F490C080918A
:1016B0009C01803288F020919601309197013A8305
:1016C0002983BC82AB8290919A019D831E828F8375
:1016D000CE0101960E94D50787E0F801A6E9B1E0A6
:1016E00001900D928A95E1F745CF90919C01903140
:1016F000A0F4488559856A857B858C859D850E94E7
:101700003D0886E991E00E94D50787E0F401119237
:101710008A95E9F70E94F90963CF8823A1F0209107
:10172000970181812813BACF809196018E11B6CF8F
:10173000F110B4CF9683C8010E94D50787E0F40169
:1017400011928A95E9F7FF24F3944BCF483C510559
:1017500008F041C08823B9F3FF20C9F190919701A7
:10176000818198132AC0809196018E1126C08091A4
:101770009C0180FD19C08031B8F08683807F803F56
:1017800039F08681982F907F905F8F70892B8683A8
:10179000C8010E94D50787E0F801A6E9B1E00190F1
:1017A0000D928A95E1F7E8CE87E0F801A6E9B1E06D
:1017B00001900D928A95E1F7C6CFC8010E943008CA
:1017C00081118ACF80919C01816080939C01C80126
:1017D0000E94D507B8CF488559856A857B858C8559
:1017E0009D850E943D0891CFAEE0B0E0EAEFFBE0BE
:1017F0000C94DE1E288739874A875B876C877D8734
:101800008E87CE0108960E947A0A8823B1F06C85F3
:10181000662341F0288539854A855B857D858E85DF
:101820000E94470817E080915C0190915D01891347
:101830003EC02E96E3E00C94FA1E87E0FE01389637
:10184000DE01119601900D928A95E1F720915D01DC
:1018500040915C018C85882329F330E0C901019611
:101860008770992750E08417950799F097E0929F29
:10187000D001939FB00D1124A25ABE4FFE013196A4
:1018800001900D929A95E1F780935D010E94D7092E
:10189000C9CF0E940E0810925D0110925C0187E092
:1018A000E6E9F1E0DF011D928A95E9F7BBCF189FC9
:1018B000C0011124825A9E4F0E947A0A882309F49B
:1018C000B8CFE0915C011E9FF0011124E25AFE4F57
:1018D00020813181428153816481758186810E949A
:1018E000470880915C0190E001968770992780936A
:1018F0005C0199CF8091BD01869586958695089566
:101900008091BD01877008959091BD01977081E02D
:10191000911101C080E008958091E90108959091AE
:10192000E901982B9093E9010895982F9095809163
:10193000E90189238093E90108951092E90108954E
:101940009091E801982B9093E8010895982F909535
:101950008091E80189238093E80108951092E801BD
:10196000089508950E94B10C08959091BE01292F09
:101970002823222331F0809589238093BE010E9481
:10198000B20C089508950E94C20C08959091BF0171
:10199000292F2823281729F0982B9093BF010E9404
:1019A000C30C08959091BF01292F2823222331F0E1
:1019B000809589238093BF010E94C30C0895809174
:1019C000BF01882329F01092BF0180E00E94C30C60
:1019D0000895CF93DF93C091E9018091E801C82B6E
:1019E000D091BF01DD2331F00E94AB1981110E941B
:1019F000DF0CCD2B8C2FDF91CF910895CF93DF9308
:101A0000C0916200D09163000E94E90C88838091AC
:101A10006200909163000E943619DF91CF91089582
:101A2000CF93DF93C0916000D09161000E94E90CD8
:101A30008983C0916000D091610040E250E06DE97F
:101A400071E0CE010E941A1F892B59F080E2FE013D
:101A5000ADE9B1E001900D928A95E1F7CE010E94C7
:101A60004119DF91CF91089580917600882339F054
:101A70008091470287FF03C00E94100D08950E94C5
:101A8000FE0C089508950E94420D08959091480219
:101A900092FF11C098E0899F90011124622B6093FE
:101AA000BD010E9499088091BD0186958695869515
:101AB0000E94430D08950E94990808951092BD0157
:101AC00080E00E94430D08959091BD018095892387
:101AD0008093BD01282F277021110DC0891759F05F
:101AE0009091480292FF07C08695869586950E9440
:101AF000A9080E945E0D08959091480292FB22274A
:101B000020F9281769F080FB92F9909348028091A0
:101B10004702909148020E94C40D82E00E94640D29
:101B200008958091480282FB882780F991E08927F7
:101B30000E947C0D089581E00E947C0D089580E054
:101B40000E947C0D08956FEF7FEF80E090E00E948F
:101B50006B1F089580E090E00E94381F9C0181E097
:101B6000263E3E4F09F080E0089582E090E00E941A
:101B7000301F089583E090E00E94301F089584E0B4
:101B800090E00E94381F0895BC0184E090E00E941C
:101B90006B1F0895AB01BC018FE090E00E945F1FB6
:101BA0000895AB01BC0183E190E00E945F1F08959E
:101BB00060E070E0CB010E94D10D089560E070E01C
:101BC000CB010E94CA0D0E94D80D0895A8E0B0E094
:101BD000ECEEFDE00C94DF1E66EE7EEF80E090E020
:101BE0000E946B1F60E082E090E00E944E1F81E047
:101BF00090E090935B0180935A0161E083E090E074
:101C00000E944E1F60E074E184E090E00E946B1F30
:101C100060E086E090E00E944E1F60E087E090E088
:101C20000E944E1F40E050E0BA0188E090E00E9420
:101C30005F1F60E084E290E00E944E1F60E087E159
:101C400090E00E944E1F60E08CE090E00E944E1FEA
:101C500060E08DE090E00E944E1F19821A821B8284
:101C60001C821D821E821F82188648E050E068E1B7
:101C700070E0CE0101960E943E1F40E050E0BA01A4
:101C800080E290E00E945F1F0E94DE0D2896E2E055
:101C90000C94FB1E0E94E60D0895682F8EE090E0E4
:101CA0000E944E1F0895A6E0B0E0E9E5FEE00C9426
:101CB000DD1E0E94121B8C018091EA019091EB01C4
:101CC0008017910779F019821A820E94121BBC01B9
:101CD00049815A8180E090E00E94CF041093EB018B
:101CE0000093EA012696E4E00C94F91E0E941E1B64
:101CF00060930C0270930D0280930E0290930F027A
:101D0000609308027093090280930A0290930B0279
:101D100008950E941E1B60930C0270930D02809325
:101D20000E0290930F026093040270930502809359
:101D30000602909307020895089508950E949C0E4C
:101D4000089508950E94A10E089581EB91E10E94EB
:101D500041130E949D0E0E949E0E089581E00895F9
:101D60000E94AE0E08950E94AE0E08950895089543
:101D70000E94B60E0E94B70E08950E94AA0D81110E
:101D800002C00E944A0E0E94B50D809310020E946C
:101D9000BF0D90934802809347020E94D4140E9482
:101DA000BA0D90E00E945D08809158019091590110
:101DB0000E947E0808950E940B1B0E9449130E94F6
:101DC00097120E94BD0E0E94A3040E94A20E0895C5
:101DD000A8E0B0E0EEEEFEE00C94CF1E0E94B00E44
:101DE00081110FC00E94530E0E94B01381110E94F6
:101DF000890E0E9484170E94B6042896E2E10C9492
:101E0000EB1E0E94AD128CEE91E098878F837C01CF
:101E100010E0F70141905190619071907F01812F06
:101E20000E94BB11462F572FBC011F5F163009F4CB
:101E300067C0441655066606770659F3809110026E
:101E400081FD0E94D1110E94B30E382E10E0222491
:101E50002394812F0E94BB116B017C01EF81F885D7
:101E60004190519061907190F887EF83C414D5042C
:101E7000E604F704F1F14C245D246E247F2400E095
:101E8000812C912C54018394D301C2018821992182
:101E9000AA21BB21892B8A2B8B2BE9F03320D9F087
:101EA00009831A830E94121B9C838B832D8221E05D
:101EB000D701C60188219921AA21BB21892B8A2B10
:101EC0008B2B09F420E049815A816B817C818D81C3
:101ED000922F0E94CF040F5F880C991CAA1CBB1C78
:101EE000043191F6EF81F8853497C082D182E28285
:101EF000F3821F5F163009F0ACCF0E94760E74CFCC
:101F0000441655066606770609F098CF6BCF1F93E7
:101F1000CF93DF930E94BE10EC01811522E592075A
:101F200008F053C0811540E5940708F0DDC0803EFD
:101F30009105F8F48D3C910508F0AEC0883A910502
:101F400080F4853A910508F099C08130910521F01F
:101F50000497813A910550F4CE01DF91CF911F9102
:101F60000895885A91094B9708F48BC0C0E0D0E0DF
:101F7000F3CF811550E49507F8F4C11580E2D80736
:101F800008F0CBC0C83ED10538F3CE019A95811533
:101F90009F4160F78D2F0E946211182FCE01992763
:101FA0000E94BE10212F30E0322F2227E901CC27DA
:101FB000DF71C82BD92BD0CF99270E94BE10CC2718
:101FC000DF70C82BD92BD06AC7CF803842E5940781
:101FD000C8F5803652E5950708F067C0C03482E541
:101FE000D807B0F08C2F86958695877020E2829F67
:101FF000C0011124C37021E030E0A90102C0440FE8
:10200000551FCA95E2F7EA01C82BD92BDC68A4CF8B
:10201000C03252E5D50708F041C08C2F86958695D1
:1020200020E2829FC0011124C37021E030E0A901A9
:1020300002C0440F551FCA95E2F7EA01C82BD92BFD
:10204000DD688ACF803C52E5950760F48F71C03A15
:10205000D24508F03FC090E0982F8827EC01C46F6C
:10206000D06A7ACF805C9245809708F07FCFDC2FD2
:10207000CC27CC27DF71C06FD06A6ECFA497D06415
:102080006BCFC85AD0E0CC0FDD1FC155DF4F099090
:10209000D881C02DD46460CFD0655ECFCF71D0E041
:1020A000DC2FCC27C16FD06A57CF86958695877075
:1020B00020E2829FC0011124C37021E030E0A90119
:1020C00002C0440F551FCA95E2F7EA01C82BD92B6D
:1020D000DA6842CF0E946211C82FD0E0DC2FCC27F3
:1020E000CC27DF71D06238CF8F710E94621165E01A
:1020F000D695C7956A95E1F7CF70D0E0DC2FCC2755
:10210000282F30E084FF05C054E0220F331F5A957A
:10211000E1F7C22BD32BD0691FCF8D2F8F710E9477
:102120006211182FCE0199270E94BE10212F30E096
:10213000322F222722273F71282B392BE901D2CFBA
:10214000462F672F763028F4443180F40E948C03A8
:1021500008957D3F39F4411109C041E060E00E94DB
:10216000A50308957C3F11F44423C1F380E090E07F
:1021700008950E94A0100E94870F0895803E910547
:10218000D1F1C8F48133910509F47FC048F4893254
:10219000910509F46FC08A32910509F47DC0089554
:1021A00089339105E1F082389105C9F085339105B5
:1021B00009F45BC00895843E9105D1F148F4823E54
:1021C000910531F1833E910541F181EE90E0089552
:1021D000863E9105C1F1873E9105E1F10895209178
:1021E00047022370211165C02091480223FF14C0CB
:1021F00089E290E008952091470220FD43C030918C
:10220000480230FF09C024FF4EC080E090E00895EE
:102210002091470222FDF7CF08952091470222FD29
:1022200045C03091480230FD44C024FFF5CFEDCFCA
:102230002091480221FFF0CF8091470284FDE5CF35
:1022400087EE90E008952091470223FFE5CF24FD1B
:10225000DCCFF6CF2091470223FD2EC030914802FB
:1022600031FFE3CF84EE90E008952091470225FFEF
:10227000D3CFBECF2091470225FD21C02091480237
:1022800023FFCACF89E390E008952091470226FFFB
:10229000C3CF8AE290E008952091470226FFBCCF89
:1022A00081E390E0089583EE90E0089582EE90E05F
:1022B000089580EE90E0089586EE90E0089585E31D
:1022C00090E0AACF9091470292FF10C041E0282FE2
:1022D0002471243009F040E031E0282F28712830A3
:1022E00009F030E0431711F02CE0822793FF10C073
:1022F00041E0282F2471243109F040E031E0282FFB
:102300002871283109F030E0431711F02CE08227C2
:102310003091480230FF10C051E0282F2171213048
:1023200009F050E041E0282F2871283009F040E002
:10233000541711F029E0822731FF10C041E0282F07
:102340002171213109F040E031E0282F2871283136
:1023500009F030E0431711F029E0822794FD877ED1
:10236000089580E0089508950E94B3110895089596
:102370000E94B7110895A4E0B0E0E1ECF1E10C9403
:10238000DF1E94E0899FF0011124EF59FD4F8081F9
:102390009181A281B381BC01CD012496E2E00C942D
:1023A000FB1E089588E78A95F1F7089500C0089507
:1023B0000E94D2110895F894E82FE295EF70F0E0B2
:1023C00041A98F7021E030E0B90102C0660F771F8C
:1023D0008A95E2F7CB01962F9095942391AB92A921
:1023E000892B82AB789408950F931F93CF93DF933B
:1023F000C9EFD0E089918F3F11F00E94DB1180E09E
:10240000CF3FD807B9F7C5EED0E009EF10E08991CA
:102410008F3F11F00E94DB110C171D07C1F7DF91F0
:10242000CF911F910F9108958F929F92AF92BF927B
:10243000DF92EF92FF920F931F93CF93DF93EC0104
:10244000D62E062F10E0C80187509F4F7C01FC015B
:1024500020812F3F09F45FC0F894E22FE295EF70DE
:10246000F0E031A92F7081E090E001C0880F2A953B
:10247000EAF7932F982B91AB92A98095892382AB91
:1024800078940E94D611E5EEF0E041E050E060E083
:1024900070E0812C912C540181918F3F91F0A82FF5
:1024A000A295AF70A05DB0E02C9130E08F7002C0BB
:1024B000359527958A95E2F72170DB01CA01222321
:1024C00021F080E090E0A0E0B0E0882A992AAA2AD2
:1024D000BB2A440F551F661F771F80E0E93FF807AE
:1024E000D9F6F70180818F3F11F00E94DB1161E086
:1024F00081149104A104B10409F460E08D2D0E94BF
:10250000D811000F111F000F111FC00FD11F88829B
:102510009982AA82BB82DF91CF911F910F91FF9088
:10252000EF90DF90BF90AF909F908F9008950E94A2
:10253000F41188E1E1E6F2E0DF01982F1D929A950F
:10254000E9F7E9E4F2E0DF011D928A95E9F786E018
:102550000E94EA120E94B4110895A8E1B0E0E3EBF2
:10256000F2E10C94DC1EFE01319688E1DF011D9240
:102570008A95E9F710E0FE2E0F2F612F8F2D902FF7
:102580000E9414121F5F1630C1F748E150E06F2D12
:10259000702F89E492E00E941A1F21E0892B81F4B8
:1025A00020E046E061E672E089E492E00E94EB12EE
:1025B000182F0E94B811812F6896E5E00C94F81E40
:1025C00088E1EF2DF02FA9E4B2E001900D928A95F9
:1025D000E1F7E7CF0895A0E0B0E0E1EFF2E10C947D
:1025E000D91ED82EE92EF62ED72F042FC22F222344
:1025F00079F081E0809313020E94121B90931202E3
:102600008093110280E0CDB7DEB7E8E00C94F51EB0
:10261000C0901302CC20B1F380911102909112026C
:102620000E943B1B0A9770F384E0089F80011124ED
:10263000A8016D2D7E2D8F2D9D2F0E941A1F892B95
:1026400041F0A8016D2D7E2D8F2D9D2F0E94271FFB
:10265000CC2D109213028C2FD6CF0E94B21B0E9459
:10266000DB0E0E94C31B08950E94F91A0E94AB1B47
:102670000E94A50E0E942D130E94D11B0E94B80E2D
:10268000FBCF909311018093100108950E94AE0E2C
:102690000895E5E1F2E088E0DF011D928A95E9F70F
:1026A0000E9460140895FC0123812150330B237094
:1026B0003327428150E081E02417350709F080E09C
:1026C00008950F931F93CF93DF93EC01162F042FE0
:1026D0000E945313811113C08A81FE01E80FF11D7E
:1026E00000FB17F914838F5F83708A8388818F5F63
:1026F000888381E0DF91CF911F910F91089580E051
:10270000F9CFCF93DF93FC01EA01A38182818A177D
:10271000B9F0AE0FBF2FB11D14968C9187FB99278E
:1027200090F98F77DB018C93988383818F5F83701F
:10273000838381818F5F818381E0DF91CF910895D1
:1027400080E0FBCF462F682F85E192E00E94611365
:102750000895AB01BC0185E192E00E9481130895C8
:10276000AEE0B0E0E6EBF3E10C94DB1E80911402E6
:10277000882351F01092140280911702809318025E
:1027800080911502809316020E949E140E944613A7
:10279000182F882361F110E08CEFF82E9DEFE92EC1
:1027A0001CC01E858D851983882331F1EA820E9421
:1027B000121BBC0149815A8182E091E00E94CF0442
:1027C0001F83E8860E94121B682F82E0792F4F81B9
:1027D000588590E00E94CF04102FBE01635F7F4FA9
:1027E000CE010E960E94A913082F8111DACF812FF6
:1027F0002E96E6E00C94F71EFA820E94121BBC0192
:1028000049815A8183E091E00E94CF041F83F886BA
:102810000E94121B682F83E0D9CF8BE291E00197D1
:10282000F1F700C00000089527B36B596F7081E085
:1028300090E001C0880F6A95EAF7982F909592234F
:1028400097BB98B3892B88BB089586B390E06B59EA
:102850006F7002C0959587956A95E2F7817008952B
:102860000895CF93DF93C0E080911D02C81760F0F8
:102870000E940D14C0E080911D02C81778F00E94DC
:102880003014DF91CF91089560E08C2F0E941414D2
:1028900061E08C2F0E941414CF5FE6CF60E08C2F94
:1028A0000E942514D82F61E08C2F0E942514EC2F54
:1028B000F0E0E15EFD4F880F8D2B8083CF5FDBCF93
:1028C00081E080931D020E94311408951F93CF93DD
:1028D000DF93182F440F642BC82FD0E0DE01A15ED8
:1028E000BD4FEC918E2F8370681721F1EE0FEE0F24
:1028F000E62BEC93EF70F0E0E150FF4FC25EDD4F4E
:1029000090818881980F9883943024F060E0812F23
:102910000E94A21388818D3F24F461E0812F0E94E0
:10292000A2138881082E000C990B64E070E00E94CD
:10293000B51E8883DF91CF911F910895CF93DF93C8
:10294000C0E080911D02C81718F0DF91CF91089563
:1029500061E08C2F0E942514D82F60E08C2F0E94FC
:102960002514682F4D2F8C2F0E946614CF5FE9CF5E
:102970000E94A30D089580E00E94BB11862F8170F4
:1029800008950E94AD128FE59AEE0197F1F700C00D
:1029900000000E94AD120E94BB14882321F00E9407
:1029A000B8140E946E1B08950E94C1140895CF931D
:1029B000DF93EB0186319C4719F50E948C0C9D81B9
:1029C0009923A1F08A7A91E0811101C090E090935F
:1029D0002002882349F085E30E945A1A0E94340D90
:1029E00080E0DF91CF91089589E2F6CF80912002B7
:1029F000882321F085E30E94711AF0CF89E2FBCF92
:102A000081E0EFCFCF93DF93EC01FB018581882339
:102A100009F4D2C09E0130572332310508F0B2C00C
:102A20000E94BF0D9093480280934702FE01E1503F
:102A3000F047E232F10520F4E157F04E0C94C91E44
:102A40008091470281608093470293C08091480241
:102A50008860809348028DC0809147028260F3CFE6
:102A6000809147028460EFCF809147028860EBCF6E
:102A7000809148028160EDCF809148028260E9CF69
:102A8000809147028061DFCF809147028062DBCF77
:102A9000809147028064D7CF0E940E088091470240
:102AA0008068D1CF809147028C60CDCF8091480261
:102AB0008360CFCF809147028E7FC5CF809148023F
:102AC000877FC7CF809147028D7FBDCF809147021E
:102AD0008B7FB9CF80914702877FB5CF8091480225
:102AE0008E7FB7CF809148028D7FB3CF8091470210
:102AF0008F7EA9CF809147028F7DA5CF809147021D
:102B00008F7BA1CF0E940E08809147028F779BCFC9
:102B100080914702837F97CF809148028C7F99CF25
:102B20008091470282FB992790F921E0922790FB40
:102B300082F990FB83F987CF80914802982F909576
:102B400091708E7F892B90FB81F983CF9091470202
:102B5000892F8F7B96FF806476CF0E940E0890911C
:102B60004702892F97FB87F980586DCF81E00E943B
:102B70004D0E80914702909148020E94C40D0E9420
:102B80000E0880E0DF91CF91089580E0F0CF909122
:102B90004702892F8F7E94FF806155CF9091470225
:102BA000892F8E7F90FF81604ECF90914802892FB0
:102BB000877F93FF88604DCF81E0E4CF282F35EBEE
:102BC0002303C001112497FF04C080589109892F65
:102BD000089580589F4FFBCF8091270280FF0DC042
:102BE0006091690070E0660F771F60387105C0F56D
:102BF00061157105B9F1862F089581FF07C06091B5
:102C0000690084E0689FB0011124EFCF82FF04C007
:102C10006091690088E0F6CF809126028823E9F070
:102C2000909168006091690070E0891730F093E03E
:102C3000660F771F9A95E1F7D8CF869F9001879FFF
:102C4000300D112483E0220F331F8A95E1F7692F9D
:102C500070E0C9010E94B51EC8CF68E070E0CBCF1C
:102C60008FE7089581E008958091270280FF0CC0CE
:102C70006091650070E0759567957595679561152C
:102C8000710561F1862F089581FF06C0609165008E
:102C900070E075956795F3CF6091650070E082FDF7
:102CA00015C0209125022223B1F09091640060911B
:102CB000650070E0291750F4269FA001279F500D52
:102CC0001124692F70E0CA010E94B51E6038710599
:102CD000B0F28FE7089561E070E0D4CF81E008950D
:102CE00090912A0220912B02922B20912D02922B5F
:102CF00020912C02922B992331F098E09093260298
:102D000091E0909325028D3C31F40E94EC15819561
:102D100080932B020895E2E3E80FE231B0F5F0E092
:102D2000EF54F04E0C94C91E0E94EC15F1CF0E9496
:102D3000EC15819580932A0208950E94EC15FACF34
:102D40000E94341680932C0208950E9434168195B7
:102D5000F9CF0E943416819580932D0208950E9428
:102D60003416FACF815D990B21E030E001C0220FCB
:102D70008A95EAF780912902822B8093290208958F
:102D80008091270281608093270208958091270215
:102D90008260F9CF809127028460F5CF40912A02AA
:102DA0008D3C59F480912B0287FF0DC010922B02AD
:102DB000442359F41092260208C08E3C81F480917D
:102DC0002B0218169CF3442381F080912C029091E1
:102DD0002D02892B811159C01092250208958F3C34
:102DE00041F447FFF0CF10922A0280912B028823F2
:102DF000E0CF803D19F41416B4F3E5CF90912C0286
:102E0000893D29F41916FCF610922C02DCCF8A3D7C
:102E100019F497FFD8CFF8CF90912D028B3D29F46C
:102E200097FFD1CF10922D02CECF8C3D19F41916F9
:102E3000CCF3C9CF9FE2980F983090F4815D990B45
:102E400021E030E0B90102C0660F771F8A95E2F7F2
:102E5000CB01809590912902892380932902B3CFD9
:102E60008D3D31F4809127028E7F80932702ABCF76
:102E70008E3D21F4809127028D7FF7CF8F3D09F0A1
:102E8000A2CF809127028B7FF0CF08950E94121B62
:102E900020912A0230912B02232B222321F08093B0
:102EA00023029093240220912C0230912D02232B97
:102EB000222321F0809321029093220288E292E063
:102EC0000E945019089586E0E8E2F2E0DF011D92C9
:102ED0008A95E9F710922602109225021092270295
:102EE0000895FC01828181110DC0838181110AC086
:102EF0008481811107C081E09581911101C080E03A
:102F00008170089581E0FCCFA6E0B0E0EAE8F7E147
:102F10000C94DC1E86E0E8E2F2E09E012F5F3F4F5A
:102F2000D90101900D928A95E1F710922A02109230
:102F30002B0210922C0210922D028B819C81892BE6
:102F40008901882391F080912302909124020E94AC
:102F50003B1B9C01809126028823C9F140916A00A5
:102F600050E04217530708F43FC08D819E81892BA2
:102F7000882399F080912102909122020E943B1BAC
:102F80009C0180912502882309F467C04091660066
:102F900050E04217530708F46EC0B80188E292E08F
:102FA0000E94A21A811105C088E292E00E94711766
:102FB00081110E94461786E0F801A8E2B2E0019074
:102FC0000D928A95E1F72696E5E00C94F81E409163
:102FD0006B009AE0499FA00111244217530728F67D
:102FE0008F5F8093260202C08F3FD1F7FB80FF20C6
:102FF00059F00E94EC1591E01F140CF09FEF899F8F
:10300000802D112480932A02FC80FF2059F00E9419
:10301000EC1591E01F140CF09FEF899F802D112477
:1030200080932B0280912A02882309F49ECFF0908E
:103030002B02FF2009F499CF0E94DE15811101C0F7
:1030400081E080932A028F2D0E94DE15882319F0DB
:1030500080932B028ACF81E0FBCF409167009AE0FA
:10306000499FA00111244217530708F096CF8F5FA4
:103070008093250202C08F3FD1F7FD80FF2059F0D9
:103080000E94341691E01F140CF09FEF899F802D51
:10309000112480932C02FE80FF2059F00E943416E8
:1030A00091E01F140CF09FEF899F802D11248093D5
:1030B0002D0280912C02882309F46FCFF0902D020D
:1030C000FF2009F46ACF0E94DE15811101C081E062
:1030D00080932C028F2D0E94DE15882319F0809397
:1030E0002D025BCF81E0FBCF0F931F93CF93DF9334
:1030F000C42FD22FFC0185818823C9F04093300270
:103100000E94121B90932F0280932E0280E28C0F5C
:10311000883040F4C77081E001C0880FCA95EAF793
:103120000E94AE05DF91CF911F910F9108951091EC
:10313000300214133CC080912E0290912F020E9405
:103140003B1B883C910598F5C0E2CD0F1D1741F15E
:1031500080E2810F883040F4177081E001C0880F51
:103160001A95EAF70E94B505C83020F0802F0E941A
:10317000A505D8CF91E08D2F877001C0990F8A9552
:10318000EAF7892F0E94AE05802F0E94A505D7700F
:1031900081E001C0880FDA95EAF70E94B505C2CF39
:1031A000802F0E94A505C83008F0BCCFF0CF80E288
:1031B0008C0F883008F0B6CFC77081E001C0880F4F
:1031C000CA95EAF7EACF0F93FC01CB01E851FC471F
:1031D000E730F10590F5ED53F04E0C94C91E06E270
:1031E00021EE41EE6AE17CE70E94741880E00F91C5
:1031F000089507E225EE45EE6BE17CE7F5CF06E2A8
:1032000021EE40EE68E17CE7EFCF07E225EE44EEE9
:1032100069E17CE7E9CF06E221EE42EE6CE17CE772
:10322000E3CF07E225EE46EE6DE17CE7DDCF08E275
:1032300021E045EE6EE17CE7D7CFFB01858181116E
:103240001092300281E0D3CF909336028093350202
:103250000895E0913502F0913602309729F00190FF
:10326000F081E02D0995089580E00895E091350200
:10327000F0913602309721F00280F381E02D09951C
:103280000895DC01E0913502F0913602309739F073
:1032900086E08C930480F581E02DCD010995089599
:1032A000DC01E0913502F0913602309739F082E08E
:1032B0008C930680F781E02DCD0109950895A3E058
:1032C000B0E0E5E6F9E10C94DF1E9C018091330249
:1032D0009091340282179307A1F030933402209327
:1032E0003302E0913502F0913602309751F083E0DD
:1032F00089833B832A830084F185E02DCE010196EA
:1033000009952396E2E00C94FB1EA3E0B0E0EBE805
:10331000F9E10C94DF1E9C01809131029091320200
:1033200082179307A1F03093320220933102E0918B
:103330003502F0913602309751F084E089833B8367
:103340002A830084F185E02DCE010196099523960C
:10335000E2E00C94FB1E20916200309163002E5F2E
:103360003F4F809176008823A9F08091470287FF24
:1033700011C020916000309161002E5F3F4F9DE1B0
:1033800080E0F90140812F5F3F4F41118F5F9150E5
:10339000C0F7089595E0F4CF882321F1909176004D
:1033A000992311F19091470297FF1EC0982F96958F
:1033B00096959695803FB0F4E0916000F0916100A1
:1033C000E90FF11D228130E0877041E050E0BA0141
:1033D00002C0660F771F8A95E2F72623372381E024
:1033E000232B91F480E008952091620030916300D6
:1033F000F9013296285F3F4F9191981721F0E2171B
:10340000F307D1F7EFCF81E008959C01FC013296DC
:103410008FEF90E04191461751F08F3F19F4411121
:1034200001C0892F9F5F9630A9F78F3F09F4089557
:10343000280F311D87FD3A95F901628308959C019B
:10344000FC013296285F3F4F8191861303C0DF0154
:1034500011971C92E217F307B9F70895FC01862F24
:10346000869586958695603F60F4E80FF11D67703C
:1034700021E030E001C0220F6A95EAF78281822BB9
:1034800082830895FC01862F869586958695603FF8
:1034900080F4E80FF11D677081E090E09C0102C0AC
:1034A000220F331F6A95E2F7B90160958281682384
:1034B00062830895682F80917600882359F0809167
:1034C000470287FF07C080916000909161000E94D1
:1034D0002E1A089580916200909163000E94051A4F
:1034E0000895682F80917600882359F080914702D3
:1034F00087FF07C080916000909161000E94421A8E
:10350000089580916200909163000E941F1A0895AF
:1035100080917600882379F08091470287FF0BC065
:10352000E0916000F091610032968EE1DF011D9222
:103530008A95E9F70895E0916200F0916300329670
:1035400086E0F4CFDC01FB0111969C9111978181FB
:10355000981322C012968C911297882319F09281A9
:1035600089131AC013968C911397882319F09381AD
:10357000891312C015968C911597882319F095819F
:1035800089130AC014969C91992321F081E024812B
:10359000291303C080E001C081E08170089508957F
:1035A00008950E94D01A0895089508950E94CF1A90
:1035B0000895A5E0B0E0EFEDFAE10C94DF1E0E9463
:1035C000D41A0E94AD120E94D51A1D828D810E94CC
:1035D000BB11672B682B692B51F48D818F5F8D8315
:1035E0008630A1F780E02596E2E00C94FB1E81E096
:1035F000FACF84B7806884BF84B7806884BF089599
:103600008091390281110E94860408950E940E085B
:103610000E948B0408958BE083BF8BEB8CBF82E00C
:1036200089BF08952FB7F8948091790290917A021A
:10363000A0917B02B0917C022FBF0895A4E0B0E07E
:10364000E4E2FBE10C94DF1E8FB7F894209179023D
:1036500030917A0240917B0250917C0229833A8317
:103660004B835C838FBF69817A818B819C81249697
:10367000E2E00C94FB1E9C014FB7F8948091790214
:1036800090917A02A0917B02B0917C024FBF821B85
:10369000930B089578941F921FB61F9211248F9355
:1036A0009F93AF93BF938091790290917A02A091FA
:1036B0007B02B0917C020196A11DB11D809379021D
:1036C00090937A02A0937B02B0937C02BF91AF915A
:1036D0009F918F911F901FBE1F90189588E198E0D1
:1036E0000FB6F894A89581BD0FBE91BDA895F8942A
:1036F000D8E0CEE528E3299320E0299314BEFFCF3C
:10370000089588E198E00FB6F894A89581BD0FBEA2
:1037100091BDFFCF8091A402882369F01092A4028A
:103720000E94121B90933802809337021092390244
:10373000809139020895809139028111F9CF8091E9
:103740003702909138020E943B1B069788F381E074
:1037500080933902EDCF0E94121B90933802809320
:10376000370208950E949A1E8B9A8FEFA895E7EB77
:10377000FBE03197F1F700C0000081508111F6CFD6
:103780008B98789408950E949E1C0E9424192FEB18
:1037900084ED91E0215080409040E1F700C00000AE
:1037A00008950E948A1B81112BC00E949D1D80914B
:1037B000AA02882329F08091880284FD0E94E80EE5
:1037C00008950E94001B0E94D91A8823C9F0F8941A
:1037D00091B3939A892F8C6081BB82B32CE08227AE
:1037E00082BB3FE54AEE80E0315040408040E1F747
:1037F00000C0000082B3822782BB91BB939878946B
:103800000E948A1B8111DDCF0E94061BCECF8091C2
:10381000460208950F931F93CF93DF93162F072F20
:10382000D42FC5E0813039F1833081F0DF91CF9121
:103830001F910F9108950E949D1D87E99AE30197BA
:10384000F1F700C00000C150CC2381F38091C10288
:1038500084FFF1CF6D2F812F902F0E94981DE6CF0E
:103860000E949D1D87E99AE30197F1F700C00000CF
:10387000C150CC23D9F28091880284FFF1CF6D2F03
:10388000812F902F0E94931DD1CFA0E0B0E0EBE4F8
:10389000FCE10C94D91EF82E8B01EA016A0183E049
:1038A000D694C7948A95E1F7E12C8E2D90E08C1583
:1038B0009D0570F0C770CC2331F04C2F50E0B8015B
:1038C0008F2D0E940A1CCDB7DEB7E8E00C94F51EE0
:1038D00048E050E0B8018F2D0E940A1C085F1F4F7E
:1038E000E394E3CFBC0143E050E083E00E94451C39
:1038F0000895BC0146E050E083E00E94451C089515
:10390000BC0140E250E083E00E94451C0895CF9343
:10391000DF93D82FC92F48E050E0682F792F81E03E
:103920000E94451C88E0ED2FFC2FADE3B2E0019032
:103930000D928A95E1F7DF91CF9108958CE690E0A2
:103940000895FC0180818076803251F48181893034
:1039500061F140F48230F1F0833021F1813071F077
:1039600080E008958A30A9F18B30D1F78481958168
:10397000892BB1F7828180937600F2CF8481958183
:10398000892B71F78DE392E09093A6028093A502B4
:1039900088E0089585E492E09093A6028093A502C2
:1039A00081E0089586E790E0F7CF828193818115C9
:1039B000924069F484819581892B49F481E0809358
:1039C0003C028681978190933B0280933A028FEF6D
:1039D0000895838180934502C3CFFC0180913A0210
:1039E00090913B02892B61F080913C02813041F43F
:1039F00090819093460210923B0210923A020895F1
:103A00008FEF08950895FC018381833059F130F4DC
:103A10008130C1F08230F1F080E00895813209F404
:103A200040C08232C9F784819581009709F44BC068
:103A3000019791F781EC92E09093A6028093A50202
:103A400086EB089587E792E09093A6028093A50203
:103A500082E108958CE392E09093A6028093A50200
:103A60008BE308958281813061F0823091F0811181
:103A7000D3CF8DEB92E09093A6028093A50284E0D1
:103A800008958FE992E09093A6028093A5028CE1BD
:103A9000089589E892E09093A6028093A50284E1BC
:103AA000089584819581009731F0019709F0B4CF92
:103AB00087E692E002C08EE492E09093A6028093A3
:103AC000A50289E0089587E793E09093A60280938A
:103AD000A50284E408951F93CF93DF93782F162FC8
:103AE000EA01888184FF1CC0898128E882278983B4
:103AF000FE013296272F392FCF01710FD9012F5F89
:103B00003F4F4C914193472F421B1416BCF3612F3A
:103B10000E9412021C5F1883DF91CF911F910895BC
:103B20008AE58883E5CF48E852E00E946B1D08953E
:103B300041EC52E00E946B1D0895CF93DF9360919A
:103B4000A702635067FD12C08091A302CCE0D0E0D1
:103B5000C81BD109C555DD4F8091A202803108F004
:103B600059C0CE010E94021D1092A70280917800D8
:103B700084FF41C0809177008F3F09F43CC0C82F7B
:103B8000893008F0C8E0982F9C1B909377009091A3
:103B90007D0228E8922790937D028823F1F080919E
:103BA000A5029091A6022091A10226FFB6C0FC01B9
:103BB0002C2F4EE752E03491DA013C934F5F5F4F78
:103BC000319621502111F7CF01962FEF2C0F820F44
:103BD000911D9093A6028093A5026C2F8EE792E030
:103BE0000E94120284E08C0FC83019F09FEF90936E
:103BF00077008093780084E190B39C70911107C0A6
:103C000081508111F9CF1092A8021092A002DF9189
:103C1000CF9108958D3209F06DC0683009F0A4CFBE
:103C200083EC80937D028AE5809378001092A10254
:103C300088818076882371F0CE010E94A11C8F3F7D
:103C4000B9F5988197FD8E8190E89093A1028093B9
:103C500077008ACF2A8110928602998191110AC039
:103C60001092870226E832E082E03093A602209389
:103C7000A5021EC0953029F42093A80226E832E060
:103C8000F4CF9630E9F49B81913039F4CE010E9453
:103C9000031D90E49093A102D2CF9230B9F39330F8
:103CA000A9F3913299F3923289F390E49093A102AF
:103CB0009F819111CCCF9E81981748F6892FC7CF4D
:103CC000983089F0993019F42093AA02D7CF9A300E
:103CD00071F09B3099F69BE4909389029093C20215
:103CE00090939502CBCF2AEA32E081E0BECF26E85E
:103CF00032E0FBCF8091A10287FF36CFCE010E9438
:103D0000ED1C8F3F21F48EE1809378002DCF882326
:103D100009F42ACF1092770027CFDC012C2F4EE731
:103D200052E0FA013D9130834F5F5F4F21502111E6
:103D3000F8CF4ACFCF93DF9385B7886085BF8BB725
:103D400080688BBFC8E8D2E08BE48983A1ECB2E045
:103D500011968C931197E4E9F2E081838AE58883D8
:103D60008C938083DF91CF91089597FB072E16F4F3
:103D7000009407D077FD09D00E94061F07FC05D0EC
:103D80003EF4909581959F4F0895709561957F4F72
:103D90000895EE0FFF1F0590F491E02D09942F92E6
:103DA0003F924F925F926F927F928F929F92AF92CB
:103DB000BF92CF92DF92EF92FF920F931F93CF9318
:103DC000DF93CDB7DEB7CA1BDB0B0FB6F894DEBFAF
:103DD0000FBECDBF09942A88398848885F846E84D5
:103DE0007D848C849B84AA84B984C884DF80EE801F
:103DF000FD800C811B81AA81B981CE0FD11D0FB628
:103E0000F894DEBF0FBECDBFED010895AA1BBB1B0A
:103E100051E107C0AA1FBB1FA617B70710F0A61BCA
:103E2000B70B881F991F5A95A9F780959095BC01EB
:103E3000CD010895FB01DC0104C08D910190801932
:103E400021F441505040C8F7881B990B0895FB019D
:103E5000DC0102C001900D9241505040D8F7089506
:103E6000E199FECF9FBB8EBBE09A99278DB3089551
:103E7000A8E1B0E042E050E00C94731FDC01A40F15
:103E8000B51F4150504048F0CB01840F951F2E9133
:103E90000E944F1F41505040D0F70895262FE199BE
:103EA000FECF9FBB8EBBE09A01970DB2021631F098
:103EB0002DBB0FB6F894E29AE19A0FBE08950396CF
:103EC000272F0E944F1F0E944E1F252F0E944F1F19
:103ED000242F0C944F1F0196272F0E944F1F0C94E4
:103EE0004E1FDC01CB01FC01E199FECF06C0FFBBF8
:103EF000EEBBE09A31960DB20D9241505040B8F7AA
:103F00000895F894FFCFFA05FA0541064106A60682
:103F1000C30629062906C8063F07500750075A1549
:103F2000CE1562152C153015661534156A157615E3
:103F30004015C71544157A1548157E15A6154C155C
:103F40008215AD1552158815901538156E153C154E
:103F5000721556158C159C15B615C51526155E15CA
:103F6000D515941697169D16B216B216B216B2163D
:103F7000B216B216B216B216A016A516A916AF162C
:103F8000C016C616CA16FF180519EF18F9180B192E
:043F900011191719D3
:103F9400C001E001280850011E0A1401071C871CF7
:103FA400801C791C721C01FF5AE200E900EA00B58A
:103FB40000B600B700CD008301CC008A01920194C1
:103FC400012102230224022502260227022A02B327
:103FD40000B4006F0070009F01CB019F02A002E2B9
:103FE40000E900EA00B500B600B700CD008301CCBB
:103FF400008A01920194012102230224022502264F
:104004000227022A02B300B4006F0070009F01CBA4
:10401400019F02A002909192939495969760616299
:104024006364000105063130073234363335370016
:10403400FF0100010000FFFF0000010001FF00007C
:00000001FF
