:100000000C94D1020C94EE020C9409030C94EE02B1
:100010000C94EE020C94EE020C94EE020C94EE02A0
:100020000C94EE020C94EE020C94B6210C94EE02A9
:100030000C94EE020C94EE020C94EE020C94EE0280
:100040000C94EE020C94EE020C94EE020C94EE0270
:100050000C94EE02AA00A9000100010001000100B9
:10006000290000003A003B003C003D003E003F00FC
:100070004000410042004300440045004600470064
:100080004800A8005600560035001E001F00200042
:1000900021002200230024002500260027002D0037
:1000A0002E002A0049004A004B005300540055001E
:1000B0002B0014001A000800150017001C0018007F
:1000C0000C00120013002F00300031004C004D00D6
:1000D0004E005F0060006100390004001600070058
:1000E00009000A000B000D000E000F003300340061
:1000F000640028006400000057005C005D005E00A2
:10010000E10064001D001B0006001900050011003D
:100110001000360037003800E50021520000520080
:10012000580059005A005B00E000E300E2000000C4
:100130002C0000002C0000002C000000E6002152E2
:100140006500E400500051004F00620000006300B1
:100150000100000001000100010001000100010098
:100160000100010001000100010001000100010087
:100170000100010001000100010001000100010077
:100180000100010001000100010001000100010067
:100190000100010001000100010001000100010057
:1001A0000100010001000100010001000100010047
:1001B0000100010001000100010001000100010037
:1001C0000100010001000100010001000100010027
:1001D0000100010001000100010001000100010017
:1001E0000100010001000000010001000100010008
:1001F00001000100010001000100010001000100F7
:1002000001000100010001000100010000000100E7
:1002100001000100010001000100010001000000D7
:1002200001000000010000000100000001000100C9
:1002300001000100010001000100010001000100B6
:1002400001000000010001000100010001000100A7
:100250000100010001000100010001000100010096
:100260000100010001000100010001000100010086
:100270000100010001000100010001000100010076
:100280000100010001000100010001000100010066
:100290000100010001000100010001000100010056
:1002A0000100010001000100010001000100010046
:1002B0000100010001000100010001000100010036
:1002C0000100010001000100010001000100010026
:1002D0000100010001000000010001000100010017
:1002E0000100010001000100010001000100010006
:1002F00001000100010001000100010000000100F7
:1003000001000100010001000100010001000000E6
:1003100001000000010000000100000001000100D8
:1003200001000100010001000100010001000100C5
:1003300000000000000000002A2B28000000000040
:100340000000000000000000000000290000000084
:100350002C1E3420212224342627252E362D3738F2
:10036000271E1F202122232425263333362E3738FB
:100370001F0405060708090A0B0C0D0E0F101112B9
:10038000131415161718191A1B1C1D2F3130232D85
:10039000350405060708090A0B0C0D0E0F10111283
:1003A000131415161718191A1B1C1D2F3130354C34
:1003B000000000000000000000000000000000003D
:1003C000000000000000000000000000000000002D
:1003D000000000007E0F00D4FFFFFFC70000007880
:1003E00009025B00030100A0FA09040000010301F7
:1003F00001000921010100012244000705810308D1
:1004000000010904010002030000000921010100AC
:1004100001222200070584030800010705040308E0
:10042000000109040200010300000009210101008C
:100430000122B60007058303080001120110010024
:100440000000084243010000010102000114036D95
:100450000061007300740065007200690075006D32
:100460000000001C034A00690062004A0075006237
:1004700000200042006F0061007200640073000001
:1004800000040309040660FF0961A1010962150067
:1004900026FF009520750881020963150026FF00DC
:1004A000952075089102C005010906A10185060580
:1004B0000719E029E7150025019508750181020556
:1004C00007190029EF1500250195F0750181020536
:1004D000081901290595057501910295017503918A
:1004E00003C005010902A10185020901A100050956
:1004F00019012908150025019508750181020501DA
:10050000093009311581257F950275088106093862
:100510001581257F950175088106050C0A3802159D
:1005200081257F950175088106C0C005010980A15C
:1005300001850319012AB700150126B70095017539
:10054000108100C0050C0901A101850419012AA030
:1005500002150126A002950175108100C005010950
:1005600006A101050719E029E71500250195087581
:100570000181029501750881030507190029FF15FE
:100580000026FF0095067508810005081901290558
:1005900015002501950575019102950175039103DB
:1005A000C00011241FBECFE5D8E0DEBFCDBF11E0F3
:1005B000A0E6B0E0E8E7FDE402C005900D92A231AC
:1005C000B107D9F722E0A2E1B1E001C01D92AE3D32
:1005D000B207E1F70E9422140C945E260C940000EE
:1005E000A82FB92F80E090E041E050EA609530E01C
:1005F00009C02D9182279795879510F0842795271C
:10060000305EC8F36F5FA8F30895EADF8D939D9382
:100610000895CF93CFB7CF93C395839BE9F7839B7F
:100620000EC0839B0CC0839B0AC0839B08C0839B26
:1006300006C0C091B502C395C093B502A6C0DF93B2
:10064000C091B402DD27C454DD4F839B02C0DF910B
:10065000E6CF2F930F931F9300B32FEF03FB20F9E7
:100660004F933F9310B34FEF012703FB21F93BE07A
:1006700031C04E7F012F10B3216028C0102F4D7F55
:100680002260000000B329C04B7F2460012F0000CE
:1006900010B32BC010B3477F28602AC04F7E00B331
:1006A00020612CC04F7D10B320622FC04F7B00B360
:1006B000206432C0422700B349934FEF0000102757
:1006C00013FB20F910B31C70C9F1297F91F20127A7
:1006D00003FB21F900B3237F89F2315058F1102731
:1006E00013FB22F910B3277E79F2012703FB23F9CC
:1006F0002F7C81F200B3102713FB24F92F7971F2BC
:1007000000C010B3012703FB25F92F7359F200C075
:1007100000B3102713FB26F9223040F200C010B3BB
:10072000012703FB27F9243028F64F77206810B300
:100730000000F9CF10E81ABF00271CC03B503195CC
:10074000C31BD04010E81ABF0881033C11F10B34E1
:1007500001F12091B1021981110F1213EDCF4A81DD
:10076000441F093669F10D3211F0013E29F74F702F
:1007700009F0042F0093BA023F914F911F910F91FE
:100780002F91DF91CAB7C7FD47CFCF91CFBFCF9190
:1007900018952091BA02222379F31091B8021123FF
:1007A00009F044C034300AF443C03093B8022093B7
:1007B000B3021091B4023BE0311B3093B40238C055
:1007C0000091B802013094F50AE54F7049F4309178
:1007D0007B0034FD2FC000937B00CEE8D2E02EC01A
:1007E000433059F0443091F03091990234FD22C0E9
:1007F00000939902CAE9D2E021C03091D20234FDBF
:1008000019C00093D202C3EDD2E018C03091A50206
:1008100034FD10C00093A502C6EAD2E00FC02795B0
:10082000A8F45150A9F4220F0000F9CF4AE503C003
:1008300042ED01C0432FC4E1D0E032E011B31C60AF
:10084000939A11BB02B320E41CE05F93012756E0AA
:1008500002BB279520F4515021F4220FF9CF012734
:1008600056E000003B5A02BBD0F2279528F45150C5
:1008700029F4220F0000F9CF012756E0279502BB8B
:1008800020F4515021F4220FF9CF012756E029918D
:10089000332302BB21F6037F1091B902110FC65119
:1008A000D04002BB11F01093B10210E81ABF0860EB
:1008B00011B3137F402F437F5F9100C000C002BB84
:1008C00011BB42BB59CF8330B8F46630A8F4443131
:1008D00098F4E42FF0E094E1699FE00DF11D1124FC
:1008E00098E7899FE00DF11D1124EE0FFF1FE05ADC
:1008F000FF4F85919491089581E090E008958330B1
:1009000088F461110FC0E82FF0E0EE0FFF1F81E0C7
:100910004827E40FF11DEE0FFF1FEC5AFF4F8591A2
:100920009491089581E090E0089581E008950E94F7
:100930009504089581E008950E94950408950E9409
:100940009C04089508950E94A2040895A6E0B0E0D2
:10095000ECEAF4E00C94BB2549835A839E833091E2
:10096000190189819A8131111AC03E81332399F08E
:10097000222389F00E943D0A182F682F89819A81CD
:100980000E940A0A69817A81812F0E948E1126961F
:10099000E3E00C94D7250E94240A182FF3CF0E947D
:1009A0003D0A69817A81F1CFFC01262F4081518176
:1009B00062817381848195810E94A6040895CF93FA
:1009C000DF93D82FC92F61E00E94D4046D2F7C2FB4
:1009D0000E949704DF91CF910895CF93DF93D82F92
:1009E000C92F60E00E94D4046D2F7C2F0E94A304C5
:1009F000DF91CF91089581E008950E94FB0408954E
:100A0000CF93C82F0E94FE088C2F0E94FD042FEB6D
:100A100087E299E0215080409040E1F700C000005B
:100A2000CF91089581E00E9400050E94DA21089587
:100A300080E00E9400050E94ED2108950F931F930E
:100A4000CF93DF938C0161E00E94D404EC01B801E4
:100A50000E940D1E882309F442C0B801CE010E94F5
:100A60009F048823E1F1B801CE010E94E81C88238D
:100A7000B1F1B801CE010E94F817882381F1B801C5
:100A8000CE010E94CD17882351F1B801CE010E94FA
:100A9000291D882321F1F8018581882381F0CA3539
:100AA000FCE7DF0739F178F4C130ECE7DE07F9F055
:100AB000C330FCE7DF07C9F0C115DC4771F0C8019E
:100AC0000E949A040DC0CB35ECE7DE07B1F0CC35BF
:100AD000DC47A9F70E947D0EF2CF0E94120580E04C
:100AE000DF91CF911F910F9108950E948F0E0E9468
:100AF0001805F5CF0E94870EE2CF0E948B0EDFCF44
:100B00000E943D210E94A70508950E94AB050E9406
:100B100042210895089581E008950895CF93DF93C9
:100B2000D82F0E948B05C82F882319F08D2F0E9483
:100B30008D058C2FDF91CF9108950895CF93C82F05
:100B40000E948A058C2F0E948E05CF91089580E027
:100B50000E949E0508950E94951F0E949E0508957B
:100B6000CF930E94951FC82F809114018C1779F0A4
:100B7000C09314010E948A2160931501709316019D
:100B800080931701909318018C2F0E949E05CF919E
:100B90000895ADE0B0E0EFECF5E00C94BC2548879B
:100BA00059876A877B878C879D8791110E949A0D50
:100BB0001F8286E0FE013896DE01119601900D92AB
:100BC0008A95E1F78D8181110DC029813A814B8190
:100BD0005C816D817E818F810E94E00C2D96E2E028
:100BE0000C94D825CE0101960E94DF048111EDCF2F
:100BF000F5CFFC018481813021F4808191810E94B4
:100C0000660A0895662329F00E9466190E943C1A1C
:100C100008950E94C419FACFCF93C82F882399F062
:100C20008CEF8C0F813A88F48C2F0E943820882317
:100C300029F08C2F0E94DD200E94200E8C2F0E9414
:100C4000C6200E94200ECF91089580E28C0F88303C
:100C500048F4C77081E001C0880FCA95EAF70E9486
:100C60007B0DEFCF8BE58C0F833038F42C2F245283
:100C7000330BC9010E94CB1FE6CFE8E5EC0FEB3147
:100C800050F4F0E0EE0FFF1FE458FF4F8081918198
:100C90000E94F11FD8CF83E38C0F8331A0F661E06F
:100CA0008C2F0E940206CFCF882381F19CEF980FF2
:100CB000913A28F40E94DD200E94200E089590E2CF
:100CC000980F983050F4877091E001C0990F8A9581
:100CD000EAF7892F0E94810DEFCF9BE5980F9330A3
:100CE00028F480E090E00E94CB1F089598E5980FCB
:100CF0009B3128F480E090E00E94F11F089593E377
:100D0000980F933118F460E00E94020608951F9333
:100D1000CF93DF93182FEB010E940C06209739F434
:100D2000812F0E945406DF91CF911F91089587EB88
:100D30009BE00197F1F700C000002197EFCF60E042
:100D400070E0893311F460E570E00E948706089531
:100D5000882321F00E947B0D0E94200E0895882395
:100D600021F00E94810D0E94200E0895A0E0B0E0C5
:100D7000ECEBF6E00C94B6256C01D62FC72FFC01E6
:100D80001581068102950F700E94700DE82E882350
:100D9000F9F0E12E1123E1F08C2F807F803461F097
:100DA00080E28D0F8830F0F08C2F807E803221F42D
:100DB000D230C0F00023B1F08091590282FF12C0FE
:100DC00082E00E94500E0E94700D91E0E82EE9260C
:100DD000EC2FE295EF70C03CB0F5F0E0E05AF94D31
:100DE0000C949F25E12CF4CF0C2F0F70C03110F024
:100DF0000295007F112399F0002359F080E28D0FB6
:100E0000883010F0D11107C0802F0E947B0D0E9406
:100E1000200E8D2F51C0802F0E948C0DF8CF8D2F6A
:100E20000E945406002379F080E28D0F883010F084
:100E3000D11104C0802F0E94810D03C0802F0E9419
:100E4000920D0E94200EEE2089F00E946C0D80FD14
:100E50000DC0F60115820E94660D0E947809C60138
:100E60000E94C5080E94660D0E948409CDB7DEB7B6
:100E7000E8E00C94D225FC2FFF70FF2EC07FC0321B
:100E800019F0F29480EFF822DD2341F0D130D1F156
:100E9000112309F444C00023F1F0BBCF8091590223
:100EA00082FD15C0112359F0FF2029F08F2D0E94DB
:100EB0007B0D0E94200E80E00E940C06C4CF80E0D3
:100EC0000E945406FF2009F4BECF8F2DB4CF11230A
:100ED00069F0011104C08F2D0E94A806B4CF013023
:100EE00009F0B1CF8F2D0E94B20DADCF0111ABCF64
:100EF0008F2D0E94AF068F2D0E94BE0D8F2D0E9458
:100F0000A10DA1CF112321F0063008F09CCFE3CF33
:100F1000053008F098CF8F2D0E94AF0694CF0023A4
:100F2000D1F3D93349F42FEF8DEE92E02150804078
:100F30009040E1F700C000008D2F0E94540683CF3F
:100F40008C2F869586958370882369F0813009F00F
:100F50007ACF8D2F9C2F9370111102C080E090E00A
:100F60000E94F11F70CF8D2F9C2F9370111102C022
:100F700080E090E00E94CB1F66CF612F8D2F0E94F2
:100F8000020661CF8C2F8370811134C0111124C0EF
:100F90004D2F429546954770440F440F8D2F8F700B
:100FA000042E01C0880F0A94EAF7D071DD2341F0C6
:100FB0002FE030E001C0220F4A95EAF7D22FD095FA
:100FC000C695C695C3708D2BC23071F0C33079F0D1
:100FD000C13039F00E9454090E94951F0E949E055D
:100FE00032CF0E944E09F8CF0E945A09F5CF0E94D5
:100FF0004B09F2CF112339F1C0FFEECF4D2F4295AF
:1010000046954770440F440F8D2F8F70042E01C0FA
:10101000880F0A94EAF7D071DD2341F02FE030E029
:1010200001C0220F4A95EAF7D22FD095C695C695F2
:10103000C3708D2BC23069F0C33071F0C13031F014
:101040000E94A609C9CF823038F2D8CF0E94A009E9
:10105000C3CF0E94AC09C0CF0E946609BDCFCF703C
:10106000112339F08C2F0E9478098D2F0E94A80639
:10107000B3CF8D2F0E94AF068C2F0E948409ACCF76
:10108000D23F31F170F4D03FB9F0D13FB1F111232B
:1010900009F451C0002309F44BC08D2F0E940C06A7
:1010A0009BCFD33FE1F0D43F21F11111F3CF0111D8
:1010B00050C08C2F8F71E1CF112341F0053008F023
:1010C0008BCF8C2F8F710E94940986CF0530F7CF7C
:1010D0008C2F8F711111D1CF0E9478097DCF1123F0
:1010E00029F08C2F8F710E946F0976CF0E946B09B7
:1010F00073CF8091590282FD06C08C2F8F7111230E
:1011000009F4BBCFE9CF112349F0CF718C2F0E9496
:10111000780963E08C2F0E94320E5ECF81E00E943E
:10112000500E023008F458CF82E00E94500E54CF87
:101130008C2F8F71D1CF002309F4BBCFD93349F461
:10114000EFEFFDEE22E0E150F0402040E1F700C07B
:1011500000008D2F0E9454063FCF0F931F93CF9313
:10116000DF93EC01688179818D810E94730A8C0183
:101170000E94B2090E944A09B801CE010E94B60637
:10118000DF91CF911F910F910895CF93DF93EC01E1
:101190008C81882399F0CE010E941E05811111C017
:1011A0000E94700D882351F08D81882339F0809141
:1011B000590282FF03C082E00E94500EDF91CF915E
:1011C0000895CE010E94AD08CE010E94ED04F6CF35
:1011D00080E090E00E94CB1F80E090E00E94F11F31
:1011E0000E949A0D0E94200E0E94591A0E943C1AD9
:1011F00008950E94F4200E94E80808950E94890D35
:101200000E94F9080895282F92959F70963091F0CA
:1012100060F4925F9F70923030F481E0203F79F06B
:1012200030F4283E30F080E008959A5FF3CF243FF9
:10123000D1F7089581E0283EE0F3213FF9CF0895EA
:10124000FC018481882339F0808191810E94660AA3
:101250000E940309089580E00895A6E0B0E0E3E36A
:10126000F9E00C94BC252696E2E00C94D825A7E082
:10127000B0E0EDE3F9E00C94BC252796E2E00C9495
:10128000D82508950E94410908950E94420980933B
:101290004B01089508950E944509089590914B01CE
:1012A000892B0E944509089590914B0189230E9442
:1012B0004509089590914B0189270E944509089599
:1012C0000E94410908950E94600908950E946309DF
:1012D00080934A01089580E00E946609089591E094
:1012E00001C0990F8A95EAF7892F0E94660908952F
:1012F00021E030E001C0220F8A95EAF780914A018F
:10130000822B0E946609089521E030E0A90102C005
:10131000440F551F8A95E2F7CA01809590914A01C2
:1013200089230E946609089521E030E001C0220F60
:101330008A95EAF780914A0182270E9466090895FA
:1013400090914A01892B0E946609089590914A0163
:1013500089230E946609089590914A0189270E9475
:101360006609089508959B01677091E001C0990F87
:101370006A95EAF763E0369527956A95E1F7B90132
:10138000660F771F260F371FFA01E20FF31F40E0A9
:1013900050E0682F70E08191DF0111979B01042ECE
:1013A00002C0369527950A94E2F7217021952827E7
:1013B000292328272C934F5F5F4F4330510559F75E
:1013C00008959C01A82FA77083E0369527958A95EC
:1013D000E1F7C901880F991F820F931FFB01E80FE6
:1013E000F91F40E050E080E0219130E00A2E02C079
:1013F000369527950A94E2F721703327042E01C011
:10140000220F0A94EAF7822B4F5F5F4F433051055A
:1014100059F70895282F862F963070F4243158F408
:10142000622F70E024E1929F600D711D11244DE147
:1014300051E00E94B30908959C5F9230E0F7622F5B
:1014400070E04AE151E0F5CF292F963068F48431FD
:1014500090F490E06DE171E034E1239F800D911DE7
:1014600011240E94E10908952C5F223020F46AE1E2
:1014700071E090E0F6CF80E00895A0E0B0E0E3E412
:10148000FAE00C94B7257C0100914A0180914B0150
:10149000082BC2E0D0E010E0C8010C2E02C09595E8
:1014A00087950A94E2F780FD09C02197A8F7D12C0F
:1014B0008D2DCDB7DEB7E7E00C94D325DC2EB70138
:1014C0008C2F0E94A711019781F3F2CFCF93DF9366
:1014D000D82FC92F0E943D0A6D2F7C2F0E94A71183
:1014E000DF91CF9108951F93CF93DF93162FD72FBE
:1014F00090911901992341F0862F972F0E94660A37
:10150000DF91CF911F910895882381F0862F972F27
:101510000E943D0AC82F682F812F9D2F0E940A0A22
:10152000612F7D2F8C2F0E94A711EACF862F972F36
:101530000E94240AC82FF4CFE1E0F0E0DF0102C0EE
:10154000AA0FBB1F6A95E2F7BD01DF0102C0AA0F17
:10155000BB1F4A95E2F76A2B01C0EE0F2A95EAF706
:10156000962F9823961302C08E2B0895E0958E2314
:101570000895242F462F682F80914A010E949C0ACB
:101580000E94660908950F931F93CF93E0914C0139
:10159000C7E080914D018E1304C0CF911F910F9130
:1015A00008950E2F10E0CE9FF0011124E25BFE4F54
:1015B00020813181428153816481758186810E94BD
:1015C0003709F8013196E770E4CF20918601309118
:1015D0008701409188015091890160918A01709141
:1015E0008B0180918C010E943709089580918C01B4
:1015F000803178F480918B01882359F0E0914C017F
:1016000020914D01309187014091860157E02E13C2
:1016100001C008956E2F70E05E9FF0011124DF017C
:10162000A25BBE4F14968C911497882361F111969A
:101630008C911197831327C08C91841324C0159625
:101640008C91159781111FC012968D919C91A0913C
:101650008801B09189018A1B9B0B883C910598F405
:1016600080918C018F70806180938C01EC5AFE4FC9
:1016700080818F708061808386E891E00E94C50838
:101680000E94C30A0895FB013196E770C0CFE09134
:101690004C0190914D0127E0E91302C080E00895CC
:1016A000AE2FB0E02E9FF0011124E25BFE4F31819E
:1016B000361306C03081381303C03581341304C09B
:1016C000FD013196E770E8CF81E008958F929F92F7
:1016D000AF92BF92DF92EF92FF920F931F93CF933F
:1016E000DF93CDB7DEB72D970FB6F894DEBF0FBEF0
:1016F000CDBF8C0186E0F801DE01189601900D92B5
:101700008A95E1F7F801E080F580A280B3808481BA
:1017100096E8892E91E0992E90918A0191111BC033
:10172000882309F4FCC0FF2009F43DC1C8010E94D0
:101730002009882309F437C187E0F801D40101901A
:101740000D928A95E1F7C4010E94F9050E94F60AFC
:101750000E94E50AE4C0D0908B012091880130916D
:101760008901A501421B530BDD2009F4DBC0483C75
:10177000510508F0A6C0882309F4D1C090918701D3
:10178000918080918C01803108F06BC0991228C043
:10179000909186019E1124C0F1105DC08F70806110
:1017A00080938C010E94E50A86E891E00E94C508BA
:1017B00080918C01F8018683F12C8F2D2D960FB628
:1017C000F894DEBF0FBECDBFDF91CF911F910F9177
:1017D000FF90EF90DF90BF90AF909F908F90089513
:1017E000F11039C040E0692D8E2D0E94470B40E07A
:1017F000692D8E2D0E94470BF82E8111DDCF888533
:1018000099850E94660A292F22952F70903450F4F2
:101810009F70223080F0992399F0F80196819031E1
:1018200078F4CBCF2A5F2F70223078F0C8010E9465
:10183000C508FD2CC2CF992319F0882309F4BDCF28
:10184000805E883008F4B9CFF1CF803F08F4B5CF7F
:10185000815F8230F7CF80918C01816080938C0111
:10186000ABCF991207C0909186019E1103C0FF2053
:1018700009F479C0C8010E942009882309F493C0A3
:10188000FF2009F490C080918C01803288F0209173
:101890008601309187013A832983BC82AB82909183
:1018A0008A019D831E828F83CE0101960E94C50806
:1018B00087E0F801A6E8B1E001900D928A95E1F782
:1018C00045CF90918C019031A0F4488559856A8567
:1018D0007B858C859D850E942D0986E891E00E947C
:1018E000C50887E0F40111928A95E9F70E94E50A9C
:1018F00063CF8823A1F02091870181812813BACF7B
:10190000809186018E11B6CFF110B4CF9683C801B5
:101910000E94C50887E0F40111928A95E9F7FF2437
:10192000F3944BCF483C510508F041C08823B9F3EC
:10193000FF20C9F190918701818198132AC080917D
:1019400086018E1126C080918C0180FD19C08031E6
:10195000B8F08683807F803F39F08681982F907F12
:10196000905F8F70892B8683C8010E94C50887E02D
:10197000F801A6E8B1E001900D928A95E1F7E8CE72
:1019800087E0F801A6E8B1E001900D928A95E1F7B1
:10199000C6CFC8010E94200981118ACF80918C0195
:1019A000816080938C01C8010E94C508B8CF48852A
:1019B00059856A857B858C859D850E942D0991CFEF
:1019C000AEE0B0E0E6EEFCE00C94BB25288739875A
:1019D0004A875B876C877D878E87CE0108960E9439
:1019E000660B8823B1F06C85662341F02885398524
:1019F0004A855B857D858E850E94370917E0809139
:101A00004C0190914D0189133EC02E96E3E00C9459
:101A1000D72587E0FE013896DE01119601900D92E0
:101A20008A95E1F720914D0140914C018C858823E6
:101A300029F330E0C90101968770992750E0841797
:101A4000950799F097E0929FD001939FB00D1124D4
:101A5000A25BBE4FFE01319601900D929A95E1F77F
:101A600080934D010E94C30AC9CF0E94FE081092C4
:101A70004D0110924C0187E0E6E8F1E0DF011D9294
:101A80008A95E9F7BBCF189FC0011124825B9E4F56
:101A90000E94660B882309F4B8CFE0914C011E9F89
:101AA000F0011124E25BFE4F20813181428153819C
:101AB0006481758186810E94370980914C0190E094
:101AC00001968770992780934C0199CF8091AD0141
:101AD00086958695869508958091AD0187700895C5
:101AE0009091AD01977081E0911101C080E008955F
:101AF0008091D90108959091D901982B9093D901A3
:101B00000895982F90958091D90189238093D901C8
:101B100008951092D90108959091D801982B90932F
:101B2000D8010895982F90958091D80189238093AA
:101B3000D80108951092D801089508950E949D0D2E
:101B400008959091AE01292F2823222331F080950A
:101B500089238093AE010E949E0D089508950E94EE
:101B6000AE0D08959091AF01292F2823281729F051
:101B7000982B9093AF010E94AF0D08959091AF0103
:101B8000292F2823222331F0809589238093AF01C8
:101B90000E94AF0D08958091AF01882329F0109223
:101BA000AF0180E00E94AF0D0895CF93DF93C09105
:101BB000D9018091D801C82BD091AF01DD2331F03C
:101BC0000E94172081110E94CB0DCD2B8C2FDF910D
:101BD000CF910895CF93DF93C0916200D0916300BD
:101BE0000E94D50D888380916200909163000E94CD
:101BF000A21FDF91CF910895CF93DF93C091600032
:101C0000D09161000E94D50D8983C0916000D09170
:101C1000610040E250E06DE871E0CE010E94F725DE
:101C2000892B59F080E2FE01ADE8B1E001900D9200
:101C30008A95E1F7CE010E94AD1FDF91CF91089503
:101C400080917900882339F08091580287FF03C082
:101C50000E94FC0D08950E94EA0D089508950E94C7
:101C60002E0E08959091590292FF11C098E0899F1D
:101C700090011124622B6093AD010E94780980913C
:101C8000AD018695869586950E942F0E08950E9437
:101C9000780908951092AD0180E00E942F0E0895FA
:101CA0009091AD01809589238093AD01282F2770F5
:101CB00021110DC0891759F09091590292FF07C068
:101CC0008695869586950E9484090E944A0E0895FD
:101CD0009091590292FB222720F9281769F080FB86
:101CE00092F99093590280915802909159020E9462
:101CF000B10E82E00E94500E08958091590282FB3D
:101D0000882780F991E089270E94680E089581E074
:101D10000E94680E089580E00E94680E08956FEF9B
:101D20007FEF80E090E00E944826089580E090E0F8
:101D30000E941526863E9E4F19F40E94641D089548
:101D400080E0089582E090E00E940D26089583E0EF
:101D500090E00E940D26089584E090E00E941526F0
:101D60000895BC0184E090E00E9448260895AB01EC
:101D7000BC018FE090E00E943C260895AB01BC01BD
:101D800083E190E00E943C26089560E070E0CB0182
:101D90000E94BE0E089560E070E0CB010E94B70E75
:101DA0000E94C50E0895A8E0B0E0E9EDFEE00C94B5
:101DB000BC2566EE7EEF80E090E00E94482660E061
:101DC00082E090E00E942B2681E080934B0161E04D
:101DD00083E090E00E942B2660E074E184E090E0D4
:101DE0000E94482660E086E090E00E942B2660E09A
:101DF00087E090E00E942B2640E050E0BA0188E0A6
:101E000090E00E943C2660E084E290E00E942B2655
:101E100060E087E190E00E942B2660E08CE090E09B
:101E20000E942B2660E08DE090E00E942B26198214
:101E30001A821B821C821D821E821F82188648E025
:101E400050E068E170E0CE0101960E941B2640E060
:101E500050E0BA0180E290E00E943C2680E00E94BF
:101E60007D1D0E94EF1D0E94CB0E2896E2E00C948F
:101E7000D8250E94D30E0895682F8EE090E00E942E
:101E80002B260895A6E0B0E0E8E4FFE00C94BA2524
:101E90000E947E218C018091DA019091DB018017F4
:101EA000910779F019821A820E947E21BC01498132
:101EB0005A8180E090E00E94C9051093DB010093F5
:101EC000DA012696E4E00C94D6250E948A216093DC
:101ED000FC017093FD018093FE019093FF016093DC
:101EE000F8017093F9018093FA019093FB01089532
:101EF0000E948A216093FC017093FD018093FE0192
:101F00009093FF016093F4017093F5018093F601C3
:101F10009093F7010895089508950E948B0F0895F6
:101F200008950E94900F08958FE992E10E942F1466
:101F30000E948C0F0E948D0F089581E008950E94E9
:101F40009D0F08950E949D0F0895089508950E9481
:101F5000A50F0E94A60F08950E94960E811102C03F
:101F60000E94390F0E94A20E809300020E94AC0EC4
:101F700090935902809358020E94C2150E94A70EA6
:101F80000E944B0980914A010E94630908950E94B2
:101F900077210E94FF1D0E9437140E9485130E9422
:101FA000AC0F0E949D050E94910F0895A8E0B0E03B
:101FB000ECEDFFE00C94AC250E949F0F81110FC047
:101FC0000E94420F0E949E1481110E94780F0E946D
:101FD0007A1A0E94B0052896E2E10C94C8250E9466
:101FE0009B138CED91E098878F837C0110E0F701C3
:101FF00041905190619071907F01812F0E94A912B0
:10200000462F572FBC011F5F163009F467C04416D6
:1020100055066606770659F38091000281FD0E94FD
:10202000BF120E94A20F382E10E022242394812F89
:102030000E94A9126B017C01EF81F88541905190BB
:1020400061907190F887EF83C414D504E604F70417
:10205000F1F14C245D246E247F2400E0812C912C2E
:1020600054018394D301C20188219921AA21BB2163
:10207000892B8A2B8B2BE9F03320D9F009831A8323
:102080000E947E219C838B832D8221E0D701C60193
:1020900088219921AA21BB21892B8A2B8B2B09F41A
:1020A00020E049815A816B817C818D81922F0E9431
:1020B000C9050F5F880C991CAA1CBB1C043191F642
:1020C000EF81F8853497C082D182E282F3821F5F6C
:1020D000163009F0ACCF0E94650F74CF4416550638
:1020E0006606770609F098CF6BCF1F93CF93DF93E7
:1020F0000E94AC11EC01811522E5920708F053C053
:10210000811540E5940708F0DDC0803E9105F8F4A4
:102110008D3C910508F0AEC0883A910580F4853A6F
:10212000910508F099C08130910521F00497813A1A
:10213000910550F4CE01DF91CF911F910895885AF7
:1021400091094B9708F48BC0C0E0D0E0F3CF811524
:1021500050E49507F8F4C11580E2D80708F0CBC029
:10216000C83ED10538F3CE019A9581159F4160F79D
:102170008D2F0E945012182FCE0199270E94AC116A
:10218000212F30E0322F2227E901CC27DF71C82B25
:10219000D92BD0CF99270E94AC11CC27DF70C82B48
:1021A000D92BD06AC7CF803842E59407C8F580366E
:1021B00052E5950708F067C0C03482E5D807B0F053
:1021C0008C2F86958695877020E2829FC00111240E
:1021D000C37021E030E0A90102C0440F551FCA9529
:1021E000E2F7EA01C82BD92BDC68A4CFC03252E554
:1021F000D50708F041C08C2F8695869520E2829FF6
:10220000C0011124C37021E030E0A90102C0440FD5
:10221000551FCA95E2F7EA01C82BD92BDD688ACF92
:10222000803C52E5950760F48F71C03AD24508F0C2
:102230003FC090E0982F8827EC01C46FD06A7ACF16
:10224000805C9245809708F07FCFDC2FCC27CC278D
:10225000DF71C06FD06A6ECFA497D0646BCFC85ABD
:10226000D0E0CC0FDD1FCE54DF4F0990D881C02DB8
:10227000D46460CFD0655ECFCF71D0E0DC2FCC27A7
:10228000C16FD06A57CF86958695877020E2829F6E
:10229000C0011124C37021E030E0A90102C0440F45
:1022A000551FCA95E2F7EA01C82BD92BDA6842CF4D
:1022B0000E945012C82FD0E0DC2FCC27CC27DF7132
:1022C000D06238CF8F710E94501265E0D695C795C5
:1022D0006A95E1F7CF70D0E0DC2FCC27282F30E0D3
:1022E00084FF05C054E0220F331F5A95E1F7C22B3B
:1022F000D32BD0691FCF8D2F8F710E945012182FB2
:10230000CE0199270E94AC11212F30E0322F2227D5
:1023100022273F71282B392BE901D2CF462F672F77
:10232000763028F4443180F40E94E41608957D3F0D
:1023300039F4411109C041E060E00E94F0160895AF
:102340007C3F11F44423C1F380E090E008950E94A3
:102350008E110E9475100895803E9105D1F1C8F448
:102360008133910509F47FC048F48932910509F45D
:102370006FC08A32910509F47DC0089589339105B3
:10238000E1F082389105C9F08533910509F45BC00D
:102390000895843E9105D1F148F4823E910531F1D2
:1023A000833E910541F181EE90E00895863E9105CE
:1023B000C1F1873E9105E1F1089520915802237003
:1023C000211165C02091590223FF14C089E290E0D9
:1023D00008952091580220FD43C03091590230FFEA
:1023E00009C024FF4EC080E090E00895209158027B
:1023F00022FDF7CF08952091580222FD45C030916B
:10240000590230FD44C024FFF5CFEDCF2091590291
:1024100021FFF0CF8091580284FDE5CF87EE90E058
:1024200008952091580223FFE5CF24FDDCCFF6CF9D
:102430002091580223FD2EC03091590231FFE3CF85
:1024400084EE90E008952091580225FFD3CFBECFAF
:102450002091580225FD21C02091590223FFCACFA7
:1024600089E390E008952091580226FFC3CF8AE2C5
:1024700090E008952091580226FFBCCF81E390E0C0
:10248000089583EE90E0089582EE90E0089580EE46
:1024900090E0089586EE90E0089585E390E0AACF5D
:1024A0009091580292FF10C041E0282F24712430EF
:1024B00009F040E031E0282F2871283009F030E0A1
:1024C000431711F02CE0822793FF10C041E0282F22
:1024D0002471243109F040E031E0282F287128319F
:1024E00009F030E0431711F02CE0822730915902B7
:1024F00030FF10C051E0282F2171213009F050E049
:1025000041E0282F2871283009F040E0541711F0DD
:1025100029E0822731FF10C041E0282F21712131AD
:1025200009F040E031E0282F2871283109F030E02F
:10253000431711F029E0822794FD877E089580E0FB
:10254000089508950E94A112089508950E94A51269
:102550000895A4E0B0E0EFEAF2E10C94BC2594E029
:10256000899FF0011124EE58FD4F80819181A28155
:10257000B381BC01CD012496E2E00C94D8250895E6
:1025800088E78A95F1F7089500C008950E94C01267
:102590000895F894E82FE295EF70F0E041A98F706C
:1025A00021E030E0B90102C0660F771F8A95E2F79B
:1025B000CB01962F9095942391AB92A9892B82AB56
:1025C000789408950F931F93CF93DF93CCEFD0E0CF
:1025D00089918F3F11F00E94C91281E0C230D80763
:1025E000B9F7C8EED0E00CEF10E089918F3F11F001
:1025F0000E94C9120C171D07C1F7DF91CF911F91DF
:102600000F9108958F929F92AF92BF92DF92EF92B7
:10261000FF920F931F93CF93DF93EC01D62E062FDB
:1026200010E0C80184509F4F7C01FC0120812F3FA6
:1026300009F45FC0F894E22FE295EF70F0E031A961
:102640002F7081E090E001C0880F2A95EAF7932F60
:10265000982B91AB92A98095892382AB78940E94A4
:10266000C412E8EEF0E041E050E060E070E0812C60
:10267000912C540181918F3F91F0A82FA295AF70BA
:10268000A05DB0E02C9130E08F7002C035952795A9
:102690008A95E2F72170DB01CA01222321F080E054
:1026A00090E0A0E0B0E0882A992AAA2ABB2A440F29
:1026B000551F661F771F80E0EC3FF807D9F6F7013A
:1026C00080818F3F11F00E94C91261E08114910452
:1026D000A104B10409F460E08D2D0E94C612000F20
:1026E000111F000F111FC00FD11F88829982AA826B
:1026F000BB82DF91CF911F910F91FF90EF90DF9000
:10270000BF90AF909F908F9008950E94E21288E151
:10271000E2E7F2E0DF01982F1D929A95E9F7EAE5EA
:10272000F2E0DF011D928A95E9F786E00E94D81356
:102730000E94A2120895A8E1B0E0E1EAF3E10C944E
:10274000B925FE01319688E1DF011D928A95E9F7EE
:1027500010E0FE2E0F2F612F8F2D902F0E9402135D
:102760001F5F1630C1F748E150E06F2D702F8AE5EA
:1027700092E00E94F72521E0892B81F420E046E0D9
:1027800062E772E08AE592E00E94D913182F0E9456
:10279000A612812F6896E5E00C94D52588E1EF2DEF
:1027A000F02FAAE5B2E001900D928A95E1F7E7CF0C
:1027B0000895A0E0B0E0EFEDF3E10C94B625D82E3B
:1027C000E92EF62ED72F042FC22F222379F081E095
:1027D000809303020E947E21909302028093010263
:1027E00080E0CDB7DEB7E8E00C94D225C0900302BC
:1027F000CC20B1F380910102909102020E94A721A6
:102800000A9770F384E0089F80011124A8016D2DC0
:102810007E2D8F2D9D2F0E94F725892B41F0A80139
:102820006D2D7E2D8F2D9D2F0E940426CC2D109274
:1028300003028C2FD6CF0E941E220E94C70F0E9437
:102840002F2208950E9465210E9417220E94940F52
:102850000E941B140E943D220E94A70FFBCF909361
:1028600013018093120108950E949D0F0895E5E0E1
:10287000F2E088E0DF011D928A95E9F70E944E158B
:102880000895FC0123812150330B237033274281AB
:1028900050E081E02417350709F080E008950F9398
:1028A0001F93CF93DF93EC01162F042F0E94411446
:1028B000811113C08A81FE01E80FF11D00FB17F999
:1028C00014838F5F83708A8388818F5F888381E020
:1028D000DF91CF911F910F91089580E0F9CFCF93B1
:1028E000DF93FC01EA01A38182818A17B9F0AE0F60
:1028F000BF2FB11D14968C9187FB992790F98F7784
:10290000DB018C93988383818F5F837083838181C4
:102910008F5F818381E0DF91CF91089580E0FBCFCD
:10292000462F682F85E092E00E944F140895AB0176
:10293000BC0185E092E00E946F140895AEE0B0E023
:10294000E4EAF4E10C94B82580910402882351F064
:102950001092040280910702809308028091050280
:10296000809306020E948C150E943414182F88232D
:1029700061F110E08CEFF82E9DEFE92E1CC01E8552
:102980008D851983882331F1EA820E947E21BC0162
:1029900049815A8182E091E00E94C9051F83E8863F
:1029A0000E947E21682F82E0792F4F81588590E028
:1029B0000E94C905102FBE01635F7F4FCE010E96A6
:1029C0000E949714082F8111DACF812F2E96E6E00E
:1029D0000C94D425FA820E947E21BC0149815A813F
:1029E00083E091E00E94C9051F83F8860E947E2142
:1029F000682F83E0D9CF8BE291E00197F1F700C017
:102A00000000089527B36B596F7081E090E001C01A
:102A1000880F6A95EAF7982F9095922397BB98B301
:102A2000892B88BB089586B390E06B596F7002C004
:102A3000959587956A95E2F7817008950895CF93EB
:102A4000DF93C0E080910D02C81760F00E94FB1474
:102A5000C0E080910D02C81778F00E941E15DF912A
:102A6000CF91089560E08C2F0E94021561E08C2FB9
:102A70000E940215CF5FE6CF60E08C2F0E941315F5
:102A8000D82F61E08C2F0E941315EC2FF0E0E15F4E
:102A9000FD4F880F8D2B8083CF5FDBCF81E080934C
:102AA0000D020E941F1508951F93CF93DF93182FD7
:102AB000440F642BC82FD0E0DE01A15FBD4FEC9125
:102AC0008E2F8370681721F1EE0FEE0FE62BEC933B
:102AD000EF70F0E0EE5FFE4FC25FDD4F90818881C6
:102AE000980F9883943024F060E0812F0E94901416
:102AF00088818D3F24F461E0812F0E9490148881A9
:102B0000082E000C990B64E070E00E948B258883EE
:102B1000DF91CF911F910895CF93DF93C0E0809113
:102B20000D02C81718F0DF91CF91089561E08C2F46
:102B30000E941315D82F60E08C2F0E941315682F68
:102B40004D2F8C2F0E945415CF5FE9CF0E948F0E1E
:102B5000089580E00E94A912862F817008950E9436
:102B60009B138FE59AEE0197F1F700C000000E94D9
:102B70009B130E94A915882321F00E94A6150E948C
:102B8000DA2108950E94AF15089583E0089550E07A
:102B9000440F551F98E2699F400D511D112490EF7D
:102BA000899F400D511D1124CA018A9608950F93E3
:102BB0001F93CF93DF938330C8F46630B8F4443169
:102BC000A8F40E94C7158C010E940D26C82FD0E0E2
:102BD000DC2FCC27C80101960E940D269E01282BD0
:102BE000C901DF91CF911F910F91089580E090E08E
:102BF000F8CF0F931F93CF93DF93122F032F8330C0
:102C000078F4663068F4443158F40E94C715EC013A
:102C1000602F0E942B26612FCE0101960E942B2649
:102C2000DF91CF911F910F9108950F931F93CF9331
:102C3000DF93833048F5611127C024E0829F800133
:102C4000112406501D4FC8014423A1F00E940D26F7
:102C5000C82FD0E0DC2FCC2781E090E0800F911FBF
:102C60000E940D269E01282BC901DF91CF911F9153
:102C70000F91089502960E940D26C82FD0E0DC2FF8
:102C8000CC2783E090E0EACF80E090E0EECF1F9386
:102C9000CF93DF93962F122F632F8330A0F49111DF
:102CA00012C094E0899FE0011124C650DD4FCE018F
:102CB000442369F00E942B2681E090E0612F8C0F65
:102CC0009D1F0E942B26DF91CF911F9108950296A0
:102CD0000E942B2683E090E0F1CF1F93CF93DF93E8
:102CE000C0E0D0E011C0412F6D2F8C2F0E946304F3
:102CF0009C01412F6D2F8C2F0E94F9151F5F1431FD
:102D000091F7DF5FD63011F010E0EDCF41E060E0E9
:102D10008C2F0E947F049C0141E060E08C2F0E9478
:102D2000471640E060E08C2F0E947F049C0140E049
:102D300060E08C2F0E944716CF5FC33091F6DF9181
:102D4000CF911F910895EF92FF920F931F93CF930E
:102D5000DF938C01EA017A01E60EF71ECE15DF053E
:102D600029F4CDB7DEB7E6E00C94D425003D82E02F
:102D7000180740F4C8018A960E940D2689930F5FB8
:102D80001F4FECCF80E0FACFEF92FF920F931F938B
:102D9000CF93DF938C01EA017A01E60EF71ECE1580
:102DA000DF0529F4CDB7DEB7E6E00C94D425003D6D
:102DB00082E0180728F46881C8018A960E942B26B1
:102DC00021960F5F1F4FEBCF833038F4663028F425
:102DD000443118F40E94D715089580E090E00895DA
:102DE000833028F4611103C00E941516089580E015
:102DF00090E0089580E108958AEF90E00895EF92C1
:102E0000FF920F931F93CF93DF938C01EA017A0116
:102E1000E60EF71ECE15DF0529F4CDB7DEB7E6E0E6
:102E20000C94D42580E00A3F110528F4C8018A5F7C
:102E30009C4F0E940D2689930F5F1F4FEBCFEF929F
:102E4000FF920F931F93CF93DF938C01EA017A01D6
:102E5000E60EF71ECE15DF0529F4CDB7DEB7E6E0A6
:102E60000C94D4250A3F110530F46881C8018A5FAB
:102E70009C4F0E942B2621960F5F1F4FEBCFCF93C5
:102E8000DF93C6E0D3E060E0CE010E942B262196BE
:102E9000C11584E0D807B9F7DF91CF910895A8E074
:102EA000B0E0E5E5F7E10C94B625F82E2FE0281701
:102EB00008F46FC08FEF93E00E940D26811169C066
:102EC00006E013E0F11038C01A821982FE01339631
:102ED00086E0DF011D928A95E9F76801BFEFCB1A02
:102EE000DB0AC8010E940D2689831A82882309F40F
:102EF00050C08130D1F4780122E0E20EF11CC6010D
:102F00000E940D268A83882309F443C09FEF980FFF
:102F10009330F8F4680183E0C80ED11CC7010E9409
:102F20000D268B838823A9F11C8260E0CE010196D7
:102F30000E940E1C8601D1CF011584E0180749F1CB
:102F4000C8010E940D260F5F1F4F8111F5CFFA9423
:102F5000B9CF8430B9F402E010E0C701AFEFEA1A4C
:102F6000FA0A0E940D26E1E0F0E0EC0FFD1FE00FF1
:102F7000F11F8083882369F08C3731F4FE01E00F64
:102F8000F11F12826701D1CF0F5F1F4F073011056C
:102F900021F72896E8E00C94D225CF93DF93EB013C
:102FA00086319C4719F50E94780D9D819923A1F0E7
:102FB0008A7A91E0811101C090E0909310028823F9
:102FC00049F085E30E94C6200E94200E80E0DF9138
:102FD000CF91089589E2F6CF80911002882321F0E5
:102FE00085E30E94DD20F0CF89E2FBCF81E0EFCFC7
:102FF000CF93DF93EC01FB018581882309F4D2C0D4
:103000009E0130572332310508F0B2C00E94AC0E49
:103010009093590280935802FE01E150F047E2324A
:10302000F10520F4E459F94D0C949F258091580244
:1030300081608093580293C0809159028860809388
:1030400059028DC0809158028260F3CF809158025E
:103050008460EFCF809158028860EBCF8091590255
:103060008160EDCF809159028260E9CF8091580252
:103070008061DFCF809158028062DBCF809158025F
:103080008064D7CF0E94FE08809158028068D1CF1B
:10309000809158028C60CDCF809159028360CFCF50
:1030A000809158028E7FC5CF80915902877FC7CF0C
:1030B000809158028D7FBDCF809158028B7FB9CF10
:1030C00080915802877FB5CF809159028E7FB7CF0C
:1030D000809159028D7FB3CF809158028F7EA9CF06
:1030E000809158028F7DA5CF809158028F7BA1CF10
:1030F0000E94FE08809158028F779BCF80915802E2
:10310000837F97CF809159028C7F99CF809158020D
:1031100082FB992790F921E0922790FB82F990FB9E
:1031200083F987CF80915902982F909591708E7F67
:10313000892B90FB81F983CF90915802892F8F7B47
:1031400096FF806476CF0E94FE0890915802892FE6
:1031500097FB87F980586DCF81E00E943C0F8091EA
:103160005802909159020E94B10E0E94FE0880E020
:10317000DF91CF91089580E0F0CF90915802892F90
:103180008F7E94FF806155CF90915802892F8E7F5A
:1031900090FF81604ECF90915902892F877F93FFD6
:1031A00088604DCF81E0E4CF282F35EB2303C001A9
:1031B000112497FF04C080589109892F08958058E1
:1031C0009F4FFBCF8091170280FF0DC06091690077
:1031D00070E0660F771F60387105C0F561157105E5
:1031E000B9F1862F089581FF07C06091690084E0DE
:1031F000689FB0011124EFCF82FF04C06091690085
:1032000088E0F6CF809116028823E9F0909168005B
:103210006091690070E0891730F093E0660F771FC6
:103220009A95E1F7D8CF869F9001879F300D1124A2
:1032300083E0220F331F8A95E1F7692F70E0C901FF
:103240000E948B25C8CF68E070E0CBCF8FE7089550
:1032500081E008958091170280FF0CC060916500A5
:1032600070E075956795759567956115710561F1C4
:10327000862F089581FF06C06091650070E0759506
:103280006795F3CF6091650070E082FD15C02091D5
:1032900015022223B1F0909164006091650070E006
:1032A000291750F4269FA001279F500D1124692F44
:1032B00070E0CA010E948B2560387105B0F28FE77B
:1032C000089561E070E0D4CF81E0089590911A02F2
:1032D00020911B02922B20911D02922B20911C0207
:1032E000922B992331F098E09093160291E09093FD
:1032F00015028D3C31F40E94E218819580931B02E7
:103300000895E2E3E80FE231B0F5F0E0E257F94D5D
:103310000C949F250E94E218F1CF0E94E21881953B
:1033200080931A0208950E94E218FACF0E942A1987
:1033300080931C0208950E942A198195F9CF0E945A
:103340002A19819580931D0208950E942A19FACFA7
:10335000815D990B21E030E001C0220F8A95EAF7E8
:1033600080911902822B809319020895809117028F
:103370008160809317020895809117028260F9CFCF
:10338000809117028460F5CF40911A028D3C59F468
:1033900080911B0287FF0DC010921B02442359F439
:1033A0001092160208C08E3C81F480911B02181600
:1033B0009CF3442381F080911C0290911D02892B83
:1033C000811159C01092150208958F3C41F447FFB6
:1033D000F0CF10921A0280911B028823E0CF803D2B
:1033E00019F41416B4F3E5CF90911C02893D29F429
:1033F0001916FCF610921C02DCCF8A3D19F497FFD7
:10340000D8CFF8CF90911D028B3D29F497FFD1CFF3
:1034100010921D02CECF8C3D19F41916CCF3C9CFF2
:103420009FE2980F983090F4815D990B21E030E095
:10343000B90102C0660F771F8A95E2F7CB0180952C
:1034400090911902892380931902B3CF8D3D31F4F5
:10345000809117028E7F80931702ABCF8E3D21F4AF
:10346000809117028D7FF7CF8F3D09F0A2CF809119
:1034700017028B7FF0CF08950E947E2120911A02BF
:1034800030911B02232B222321F08093130290936F
:10349000140220911C0230911D02232B222321F0C3
:1034A000809311029093120288E192E00E94BC1F67
:1034B000089586E0E8E1F2E0DF011D928A95E9F7E0
:1034C0001092160210921502109217020895FC0134
:1034D000828181110DC0838181110AC08481811193
:1034E00007C081E09581911101C080E0817008954D
:1034F00081E0FCCFA6E0B0E0E0E8FAE10C94B92569
:1035000086E0E8E1F2E09E012F5F3F4FD901019094
:103510000D928A95E1F710921A0210921B021092F6
:103520001C0210921D028B819C81892B89018823AA
:1035300091F080911302909114020E94A7219C01A6
:10354000809116028823C9F140916A0050E0421729
:10355000530708F43FC08D819E81892B882399F001
:1035600080911102909112020E94A7219C018091EA
:103570001502882309F467C04091660050E04217A5
:10358000530708F46EC0B80188E192E00E940E2152
:10359000811105C088E192E00E94671A81110E94A2
:1035A0003C1A86E0F801A8E1B2E001900D928A95FC
:1035B000E1F72696E5E00C94D52540916B009AE062
:1035C000499FA00111244217530728F68F5F80936B
:1035D000160202C08F3FD1F7FB80FF2059F00E94F6
:1035E000E21891E01F140CF09FEF899F802D1124A9
:1035F00080931A02FC80FF2059F00E94E21891E0AB
:103600001F140CF09FEF899F802D112480931B02C3
:1036100080911A02882309F49ECFF0901B02FF20AC
:1036200009F499CF0E94D418811101C081E08093E0
:103630001A028F2D0E94D418882319F080931B0240
:103640008ACF81E0FBCF409167009AE0499FA001BB
:1036500011244217530708F096CF8F5F809315020D
:1036600002C08F3FD1F7FD80FF2059F00E942A1938
:1036700091E01F140CF09FEF899F802D11248093FF
:103680001C02FE80FF2059F00E942A1991E01F14AD
:103690000CF09FEF899F802D112480931D02809153
:1036A0001C02882309F46FCFF0901D02FF2009F45B
:1036B0006ACF0E94D418811101C081E080931C025E
:1036C0008F2D0E94D418882319F080931D025BCFA0
:1036D00081E0FBCFA0E0B0E0E0E7FBE10C94B52592
:1036E000E82FF0E0E05DFC4FB490282F269526955A
:1036F000269530E0F901E053FC4F0491877010E00B
:10370000082E02C0159507950A94E2F7017011275B
:10371000F901E054FC4FE490F12C082E02C0F5941E
:10372000E7940A94E2F791E0E922FF24F901E055D9
:10373000FC4FC491D0E002C0D595C7958A95E2F7B9
:10374000C170DD27C62ED12C0115110549F5E114F4
:10375000F10431F086EE0E940C06C601009771F567
:10376000B6018B2D0E948706C601009779F5E114FA
:10377000F104A1F50115110531F081EE0E94540606
:10378000C6010097C9F5CD2B31F08CE20E949F064F
:10379000C114D104C9F5CDB7DEB7E9E00C94D12549
:1037A00081EE0E940C06C601009789F2E7EBFBE070
:1037B0003197F1F700C000000197F6CFE7EBFBE08F
:1037C0003197F1F700C000000197C8CFE7EBFBE0AD
:1037D0003197F1F700C000000197C7CF86EE0E9435
:1037E0005406C601009731F2E7EBFBE03197F1F7A1
:1037F00000C000000197F6CFE7EBFBE03197F1F74F
:1038000000C000000197BDCF87EB9BE00197F1F767
:1038100000C0000091E0C91AD108BACFEF92FF9220
:103820001F93CF93DF93EC01162F8881882309F42F
:103830005AC0813009F053C08981813071F47E0112
:1038400082E0E80EF11C8A810E949F06E701812F29
:1038500090E00097E1F52196E8CF823041F47E01B7
:10386000E2E0EE0EF11C8A810E940C06EFCF83305D
:1038700041F47E01F2E0EF0EF11C8A810E945406B1
:10388000E5CF843011F02196E2CF2A81229680E0A4
:1038900090E06AE0AE014F5F5F4F2053330B2A3058
:1038A000310550F0009799F2E7EBFBE03197F1F723
:1038B00000C000000197F6CF689FF001699FF00DEE
:1038C0001124C9018E0F9F1F2981EA01E3CFE7EB85
:1038D000FBE03197F1F700C000000197BACF612FEC
:1038E0000E946A1BB8CFDF91CF911F91FF90EF909C
:1038F00008950F931F93CF93DF93C42FD22FFC0112
:1039000085818823C9F0409320020E947E219093F4
:103910001F0280931E0280E28C0F883040F4C77033
:1039200081E001C0880FCA95EAF70E94A806DF91DE
:10393000CF911F910F9108951091200214133CC054
:1039400080911E0290911F020E94A721883C910540
:1039500098F5C0E2CD0F1D1741F180E2810F88304C
:1039600040F4177081E001C0880F1A95EAF70E94B1
:10397000AF06C83020F0802F0E949F06D8CF91E07C
:103980008D2F877001C0990F8A95EAF7892F0E94C1
:10399000A806802F0E949F06D77081E001C0880F83
:1039A000DA95EAF70E94AF06C2CF802F0E949F06E9
:1039B000C83008F0BCCFF0CF80E28C0F883008F020
:1039C000B6CFC77081E001C0880FCA95EAF7EACF89
:1039D0000F93FC01CB01E851FC47E730F10590F56E
:1039E000E056F94D0C949F2506E221EE41EE6AE186
:1039F0007CE70E94791C80E00F91089507E225EE94
:103A000045EE6BE17CE7F5CF06E221EE40EE68E1A2
:103A10007CE7EFCF07E225EE44EE69E17CE7E9CFF2
:103A200006E221EE42EE6CE17CE7E3CF07E225EE11
:103A300046EE6DE17CE7DDCF08E221E045EE6EE188
:103A40007CE7D7CFFB01858181111092200281E0B4
:103A5000D3CFCF93DF939C01FB0127378CE7380747
:103A600039F028373C47F1F081E0DF91CF9108959C
:103A70008581882391F00E945B1D0E9478090E9435
:103A8000611DD82F0E945E1DC82F0E945B1D4D2F07
:103A90006C2F0E94B90A80E0E8CF0E945B1D0E9453
:103AA0008409EDCF8581882319F00E945E1DE5CF42
:103AB0000E945E1DF4CF80916E00089580916D008C
:103AC000089580916C00089585E290E00E940D2693
:103AD000843289F486E290E00E940D26833059F406
:103AE00087E290E00E940D2691E0883209F090E094
:103AF000892F8170089580E0FCCF882381F064E2F3
:103B000085E290E00E942B2663E086E290E00E942E
:103B10002B2668E287E290E00E942B2608956FEF43
:103B200085E290E00E942B266FEF86E290E00E94F3
:103B30002B266FEFEFCF0895CF92DF92EF92FF9297
:103B4000CF93DF9300D000D0CDB7DEB788E290E00E
:103B50000E940D2690E0A0E0B0E0CC24D82EE92E03
:103B6000FA2E89E290E00E940D26A7019601282BEB
:103B700029833A834B835C83CA01B9010F900F906C
:103B80000F900F90DF91CF91FF90EF90DF90CF904B
:103B900008950895A4E0B0E0E0EDFDE10C94BC25AB
:103BA00069837A838B839C8369817A818B819C81F1
:103BB0000E94C91D698189E290E00E942B2629811B
:103BC0003A814B815C819927852F742F632F88E27E
:103BD00090E00E942B262496E2E00C94D82580E009
:103BE0000E947D1D60E070E0CB010E94CA1D0E9412
:103BF0006D160E943F1781E00E947D1D08950E946E
:103C00009B1D0E949C1D0E94C91D0E94641D811164
:103C100002C00E94EF1D089508959C01FB0185815B
:103C2000882351F0A90157574038510530F4822FAD
:103C30000E944F1780E0089581E008952FEFFC0166
:103C4000208308950E941E1E089580E00895CF925B
:103C5000DF92FF920F931F93CF93DF93CDB7DEB721
:103C60002E970FB6F894DEBF0FBECDBF8D839E8317
:103C7000F62E8D819E810E94251E811115C0AD8179
:103C8000BE81EC91E150E53140F5F0E0E955F94DA8
:103C90000C949F25ED81FE8111828CE082836F2D33
:103CA0008D819E810E942C232E960FB6F894DEBF44
:103CB0000FBECDBFDF91CF911F910F91FF90DF908D
:103CC000CF900895AD81BE8111968C91833099F18A
:103CD00048F4813081F08230E9F08FEFAD81BE8110
:103CE0008C93DDCF8430C9F7ED81FE81128213827F
:103CF00014821582D4CF0E948A210E94A5256F8349
:103D0000788789879A87ED81FE81628373838483B4
:103D10009583C5CF0E949C1D0E94A5256B877C873B
:103D20008D879E87AD81BE8112966D937D938D9315
:103D30009C931597B4CFED81FE81028110E06F0155
:103D4000B3E0CB0ED11C063011050CF0A8CF802FAC
:103D50000E94A912D6018C9311967C93119712960A
:103D60006C930F5F1F4FECCFED81FE81818182301C
:103D700049F0853009F0B1CFED81FE8182810E944A
:103D80000C1E8DCFAD81BE8112968D919D910D90AF
:103D9000BC91A02D89839A83AB83BC83BC01CD01E8
:103DA0000E94A5250E94CA1D7ACFAD81BE811396BF
:103DB0004C91139712966C91129711968C910E94C8
:103DC000D715982789279827ED81FE8195838483CD
:103DD00066CFAD81BE8114962D913C911597322707
:103DE0002327322713964C91139712966C911297B2
:103DF00011968C910E94F91552CF0E946D164FCFEB
:103E00006F2D8D819E810E94221E49CF0E94FA163D
:103E1000ED81FE81818343CF0E94FC16982789277C
:103E20009827AD81BE8112969C938E93119737CFC0
:103E3000ED81FE81638170E081819281AF014C5FF1
:103E40005F4F9827892798270E94FF1628CFAD81BA
:103E5000BE8113966C91139770E011968D919C9191
:103E60001297AD014C5F5F4F9827892798270E94D2
:103E70001F1715CF0E943F1712CF0E94C515C8CF3C
:103E8000AD81BE8113966C91139770E011968D9160
:103E90009C911297AD014C5F5F4F98278927982717
:103EA0000E94A316FCCEED81FE81638170E08181CA
:103EB0009281AF014C5F5F4F9827892798270E9416
:103EC000C416EDCE41E0AD81BE8113968C91811177
:103ED00001C040E0ED81FE81628181810E94151662
:103EE000982789279827AD81BE8115969C938E933C
:103EF0001497D5CEED81FE81248135813227232789
:103F0000322741E08381811101C040E0AD81BE8153
:103F100012966C91129711968C910E944716BFCE03
:103F200090932602809325020895E0912502F09156
:103F30002602309729F00190F081E02D099508952F
:103F400080E00895E0912502F0912602309721F05B
:103F50000280F381E02D09950895DC01E0912502AE
:103F6000F0912602309739F086E08C930480F58139
:103F7000E02DCD0109950895DC01E0912502F09135
:103F80002602309739F082E08C930680F781E02D8D
:103F9000CD0109950895A3E0B0E0E1EDFFE10C94B7
:103FA000BC259C01809123029091240282179307E3
:103FB000A1F03093240220932302E0912502F09196
:103FC0002602309751F083E089833B832A83008463
:103FD000F185E02DCE01019609952396E2E00C943F
:103FE000D825A3E0B0E0E7EFFFE10C94BC259C01ED
:103FF000809121029091220282179307A1F03093C1
:10400000220220932102E0912502F09126023097AE
:1040100051F084E089833B832A830084F185E02D7D
:10402000CE01019609952396E2E00C94D8252091C3
:104030006200309163002E5F3F4F809179008823AA
:10404000A9F08091580287FF11C020916000309143
:1040500061002E5F3F4F9DE180E0F90140812F5FBD
:104060003F4F41118F5F9150C0F7089595E0F4CF15
:10407000882321F190917900992311F190915802B0
:1040800097FF1EC0982F969596959695803FB0F411
:10409000E0916000F0916100E90FF11D228130E0B4
:1040A000877041E050E0BA0102C0660F771F8A9521
:1040B000E2F72623372381E0232B91F480E0089553
:1040C0002091620030916300F9013296285F3F4FE2
:1040D0009191981721F0E217F307D1F7EFCF81E024
:1040E00008959C01FC0132968FEF90E041914617B4
:1040F00051F08F3F19F4411101C0892F9F5F963015
:10410000A9F78F3F09F40895280F311D87FD3A95CF
:10411000F901628308959C01FC013296285F3F4FAC
:104120008191861303C0DF0111971C92E217F307F8
:10413000B9F70895FC01862F869586958695603F90
:1041400060F4E80FF11D677021E030E001C0220F3C
:104150006A95EAF78281822B82830895FC01862F7B
:10416000869586958695603F80F4E80FF11D67700F
:1041700081E090E09C0102C0220F331F6A95E2F7B4
:10418000B90160958281682362830895682F8091C8
:104190007900882359F08091580287FF07C08091E9
:1041A0006000909161000E949A20089580916200C1
:1041B000909163000E9471200895682F809179008A
:1041C000882359F08091580287FF07C080916000D2
:1041D000909161000E94AE200895809162009091BC
:1041E00063000E948B20089580917900882379F0E4
:1041F0008091580287FF0BC0E0916000F091610050
:1042000032968EE1DF011D928A95E9F70895E091DB
:104210006200F0916300329686E0F4CFDC01FB018E
:1042200011969C9111978181981322C012968C91BE
:104230001297882319F0928189131AC013968C91D2
:104240001397882319F09381891312C015968C91C6
:104250001597882319F0958189130AC014969C91AB
:10426000992321F081E02481291303C080E001C05B
:1042700081E081700895089508950E943C21089579
:10428000089508950E943B210895A5E0B0E0EBE475
:10429000F1E20C94BC250E9440210E949B130E94D5
:1042A00041211D828D810E94A912672B682B692BE9
:1042B00051F48D818F5F8D838630A1F780E0259644
:1042C000E2E00C94D82581E0FACF84B7806884BFFF
:1042D00084B7806884BF08958091290281110E946B
:1042E000800508950E94FE080E94850508958BE0D0
:1042F00083BF8BEB8CBF82E089BF08952FB7F89402
:1043000080918A0290918B02A0918C02B0918D02D3
:104310002FBF0895A4E0B0E0E0E9F1E20C94BC25E1
:104320008FB7F89420918A0230918B0240918C02D1
:1043300050918D0229833A834B835C838FBF6981BF
:104340007A818B819C812496E2E00C94D8259C0193
:104350004FB7F89480918A0290918B02A0918C02C1
:10436000B0918D024FBF821B930B089578941F92DA
:104370001FB61F9211248F939F93AF93BF93809189
:104380008A0290918B02A0918C02B0918D020196CD
:10439000A11DB11D80938A0290938B02A0938C0281
:1043A000B0938D02BF91AF919F918F911F901FBECF
:1043B0001F90189588E198E00FB6F894A89581BDF4
:1043C0000FBE91BDA895F894D8E0CEE528E32993D7
:1043D00020E0299314BEFFCF089588E198E00FB63E
:1043E000F894A89581BD0FBE91BDFFCF8091B50215
:1043F000882369F01092B5020E947E2190932802D2
:1044000080932702109229028091290208958091B9
:1044100029028111F9CF80912702909128020E94F0
:10442000A721069788F381E080932902EDCF0E94AF
:104430007E21909328028093270208950E94702580
:104440008B9A8FEFA895E7EBFBE03197F1F700C06F
:10445000000081508111F6CF8B98789408950E94C6
:1044600042230E94901F2FEB84ED91E02150804069
:104470009040E1F700C0000008950E94F6218111EC
:1044800036C00E9473248091BB02882329F080915A
:10449000990284FD0E94D60F0E9473248091BB0272
:1044A000882329F08091A50284FD0E943623089577
:1044B0000E946C210E9445218823C9F0F89491B391
:1044C000939A892F8C6081BB82B32CE0822782BBB8
:1044D0003FE54AEE80E0315040408040E1F700C0C7
:1044E000000082B3822782BB91BB939878940E948C
:1044F000F6218111DDCF0E947221C3CF8091570236
:1045000008950F931F93CF93DF93162F072FD42F68
:10451000C5E08330F1F1843039F1813049F4809184
:10452000990284FF0AC06D2F812F902F0E9464246E
:10453000DF91CF911F910F9108950E94732487E915
:104540009AE30197F1F700C00000C150C111E7CF15
:10455000EFCF0E94732487E99AE30197F1F700C037
:104560000000C150CC2321F38091A50284FFF1CF3C
:104570006D2F812F902F0E946E24DACF0E9473241A
:1045800087E99AE30197F1F700C00000C150CC23FE
:1045900079F28091D20284FFF1CF6D2F812F902F7D
:1045A0000E946924C5CFA0E0B0E0E9EDF2E20C94EE
:1045B000B625F82E8B01EA016A0183E0D694C794F0
:1045C0008A95E1F7E12C8E2D90E08C159D0570F019
:1045D000C770CC2331F04C2F50E0B8018F2D0E94D2
:1045E0008122CDB7DEB7E8E00C94D22548E050E058
:1045F000B8018F2D0E948122085F1F4FE394E3CF03
:10460000BC0143E050E083E00E94D3220895BC0146
:1046100046E050E083E00E94D3220895BC0140E2CE
:1046200050E083E00E94D3220895CF93DF93D82FE8
:10463000C92F48E050E0682F792F81E00E94D322F3
:1046400088E0ED2FFC2FAEE4B2E001900D928A9548
:10465000E1F7DF91CF910895792F603231F440E294
:1046600050E0682F84E00E94D322089580912D02AB
:10467000803239F460E28EE292E00E94271E1092AE
:104680002D0208958FE690E00895FC0180818076E8
:10469000803251F48181893061F140F48230F1F04F
:1046A000833021F1813071F080E008958A30A9F1E2
:1046B0008B30D1F784819581892BB1F782818093EA
:1046C0007900F2CF84819581892B71F78EE492E095
:1046D0009093B7028093B60288E0089586E592E051
:1046E0009093B7028093B60281E0089589E790E045
:1046F000F7CF828193818115924069F484819581FD
:10470000892B49F481E080932C02868197819093D4
:104710002B0280932A028FEF0895838180935602A3
:10472000C3CFFC0180912A0290912B02892B61F06A
:1047300080912C02813041F4908190935702109225
:104740002B0210922A0208958FEF0895282F6830C7
:10475000B1F480912D02893190F4E22FF92FA82F26
:10476000B0E0A25DBD4F9F01285F3F4F91919D93A7
:10477000E217F307D9F7885F80932D02089580E050
:10478000FBCFFC018381833081F130F48130E9F08B
:10479000823019F180E00895813209F445C08232F7
:1047A000C9F7248135812130310509F456C0223002
:1047B000310509F459C0232B69F78DE595E09093F5
:1047C000B7028093B60284E408958BE394E090935B
:1047D000B7028093B60282E1089580EE93E0909351
:1047E000B7028093B6028BE508958281813061F033
:1047F000823091F08111CECF81E894E09093B7029E
:104800008093B60284E0089583E694E09093B70223
:104810008093B6028CE108958DE494E09093B70202
:104820008093B60284E10895848195818130910559
:1048300071F08230910571F0892B09F0ABCF82EFD6
:1048400093E09093B7028093B60289E008958BE0DD
:1048500094E0F7CF8BE294E0F4CF25E834E0309396
:10486000B7022093B602089587EA94E09093B702C6
:104870008093B60286EB08951F93CF93DF93782F32
:10488000162FEA01888184FF1CC0898128E88227CD
:104890008983FE013296272F392FCF01710FD9015D
:1048A0002F5F3F4F4C914193472F421B1416BCF38F
:1048B000612F0E9405031C5F1883DF91CF911F9128
:1048C00008958AE58883E5CF49E952E00E943C24B7
:1048D000089542ED52E00E943C24089545EA52E0DA
:1048E0000E943C240895CF93DF936091B8026350F7
:1048F00067FD12C08091B402CCE0D0E0C81BD109A2
:10490000C454DD4F8091B302803108F059C0CE010C
:104910000E94A6231092B80280917B0084FF41C0C0
:1049200080917A008F3F09F43CC0C82F893008F08D
:10493000C8E0982F9C1B90937A0090918E0228E8F3
:10494000922790938E028823F1F08091B602909185
:10495000B7022091B20226FFB6C0FC012C2F4FE80F
:1049600052E03491DA013C934F5F5F4F3196215012
:104970002111F7CF01962FEF2C0F820F911D9093ED
:10498000B7028093B6026C2F8FE892E00E94050375
:1049900084E08C0FC83019F09FEF90937A008093D9
:1049A0007B0084E190B39C70911107C0815081110C
:1049B000F9CF1092B9021092B102DF91CF91089510
:1049C0008D3209F06DC0683009F0A4CF83EC80937C
:1049D0008E028AE580937B001092B20288818076F5
:1049E000882371F0CE010E9445238F3FB9F598814D
:1049F00097FD8E8190E89093B20280937A008ACFDF
:104A00002A8110929702998191110AC010929802FE
:104A100027E932E082E03093B7022093B6021EC04D
:104A2000953029F42093B90227E932E0F4CF96308B
:104A3000E9F49B81913039F4CE010E94C12390E4C6
:104A40009093B202D2CF9230B9F39330A9F391325E
:104A500099F3923289F390E49093B2029F8191117D
:104A6000CCCF9E81981748F6892FC7CF983089F010
:104A7000993019F42093BB02D7CF9A3071F09B3054
:104A800099F69BE490939A029093D3029093A60296
:104A9000CBCF2BEB32E081E0BECF27E932E0FBCF7A
:104AA0008091B20287FF36CFCE010E9491238F3FC3
:104AB00021F48EE180937B002DCF882309F42ACF47
:104AC00010927A0027CFDC012C2F4FE852E0FA0138
:104AD0003D9130834F5F5F4F21502111F8CF4ACF76
:104AE000CF93DF9385B7886085BF8BB780688BBF16
:104AF000C9E9D2E08BE48983A2EDB2E011968C93F0
:104B00001197E5EAF2E081838AE588838C938083BC
:104B1000DF91CF91089597FB072E16F4009407D0EC
:104B200077FD09D00E94E32507FC05D03EF490955F
:104B300081959F4F0895709561957F4F0895EE0F71
:104B4000FF1F0590F491E02D0994692796276927A6
:104B500078278727782708952F923F924F925F9268
:104B60006F927F928F929F92AF92BF92CF92DF927D
:104B7000EF92FF920F931F93CF93DF93CDB7DEB7E2
:104B8000CA1BDB0B0FB6F894DEBF0FBECDBF099476
:104B90002A88398848885F846E847D848C849B84CD
:104BA000AA84B984C884DF80EE80FD800C811B81DB
:104BB000AA81B981CE0FD11D0FB6F894DEBF0FBE0A
:104BC000CDBFED010895AA1BBB1B51E107C0AA1F71
:104BD000BB1FA617B70710F0A61BB70B881F991F9E
:104BE0005A95A9F780959095BC01CD010895FB01D8
:104BF000DC0104C08D910190801921F44150504096
:104C0000C8F7881B990B0895FB01DC0102C00190D5
:104C10000D9241505040D8F70895E199FECF9FBBC7
:104C20008EBBE09A99278DB30895A8E1B0E042E0E9
:104C300050E00C945026DC01A40FB51F41505040A9
:104C400048F0CB01840F951F2E910E942C264150D5
:104C50005040D0F70895262FE199FECF9FBB8EBB21
:104C6000E09A01970DB2021631F02DBB0FB6F89401
:104C7000E29AE19A0FBE08950396272F0E942C26F0
:104C80000E942B26252F0E942C26242F0C942C26A4
:104C90000196272F0E942C260C942B26DC01CB0199
:104CA000FC01E199FECF06C0FFBBEEBBE09A319656
:104CB0000DB20D9241505040B8F70895F894FFCFCF
:104CC000F406F4063B073B07A007BD0723072307AD
:104CD000C2072F08400840085018C4185818221856
:104CE00026185C182A1860186C183618BD183A185F
:104CF00070183E1874189C1842187818A318481891
:104D00007E1886182E186418321868184C188218E5
:104D10009218AC18BB181C185418CB188A198D1986
:104D20009319A819A819A819A819A819A819A81990
:104D3000A81996199B199F19A519B619BC19C0195C
:104D4000041D0A1DF41CFE1C101D161D1C1D4A1EF0
:104D5000621EB41ED51EE91EFD1E001F001F001F8F
:104D60006D1E6D1E061F0C1F181F271F3A1F3D1FAB
:084D7000401F531F621F7A1F50
:104D7800B001D001280850011E0A14010302017E67
:104D88002215230E230723002301FF5AE200E9001E
:104D9800EA00B500B600B700CD008301CC008A0157
:104DA80092019401210223022402250226022702ED
:104DB8002A02B300B4006F0070009F01CB019F026C
:104DC800A002E200E900EA00B500B600B700CD0095
:104DD8008301CC008A01920194012102230224025A
:104DE8002502260227022A02B300B4006F007000D1
:104DF8009F01CB019F02A002909192939495969760
:104E0800606162636400010506313007323436336D
:104E1800353700FF0100010000FFFF00000100011D
:024E2800FF0089
:00000001FF
