:100000000C9458020C9475020C9490020C94750296
:100010000C9475020C9475020C9475020C94750284
:100020000C9475020C9475020C94C41B0C9475020C
:100030000C9475020C9475020C9475020C94750264
:100040000C9475020C9475020C9475020C94750254
:100050000C947502AA00A900010001000100010032
:10006000290000003A003B003C003D003E003F00FC
:100070004000410042004300440045004600470064
:100080004800A8005600560035001E001F00200042
:1000900021002200230024002500260027002D0037
:1000A0002E002A0049004A004B005300540055001E
:1000B0002B0014001A000800150017001C0018007F
:1000C0000C00120013002F00300031004C004D00D6
:1000D0004E005F0060006100390004001600070058
:1000E00009000A000B000D000E000F003300340061
:1000F000640028006400000057005C005D005E00A2
:10010000E10064001D001B0006001900050011003D
:100110001000360037003800E50021520000520080
:10012000580059005A005B00E000E300E2000000C4
:100130002C0000002C0000002C000000E6002152E2
:100140006500E400500051004F00620000006300B1
:100150000100000001000100010001000100010098
:100160000100010001000100010001000100010087
:100170000100010001000100010001000100010077
:100180000100010001000100010001000100010067
:100190000100010001000100010001000100010057
:1001A0000100010001000100010001000100010047
:1001B0000100010001000100010001000100010037
:1001C0000100010001000100010001000100010027
:1001D0000100010001000100010001000100010017
:1001E0000100010001000000010001000100010008
:1001F00001000100010001000100010001000100F7
:1002000001000100010001000100010000000100E7
:1002100001000100010001000100010001000000D7
:1002200001000000010000000100000001000100C9
:1002300001000100010001000100010001000100B6
:1002400001000000010001000100010001000100A7
:100250000100010001000100010001000100010096
:100260000100010001000100010001000100010086
:100270000100010001000100010001000100010076
:100280000100010001000100010001000100010066
:100290000100010001000100010001000100010056
:1002A0000100010001000100010001000100010046
:1002B0000100010001000100010001000100010036
:1002C0000100010001000100010001000100010026
:1002D0000100010001000000010001000100010017
:1002E0000100010001000100010001000100010006
:1002F00001000100010001000100010000000100F7
:1003000001000100010001000100010001000000E6
:1003100001000000010000000100000001000100D8
:1003200001000100010001000100010001000100C5
:1003300009023B00020100A0FA09040000010301C8
:100340000100092101010001224400070581030881
:10035000000109040100010300000009210101005E
:100360000122B600070583030800011201100100F5
:100370000000084243010000010102000114036D66
:100380000061007300740065007200690075006D03
:100390000000001C034A00690062004A0075006208
:1003A00000200042006F00610072006400730000D2
:1003B000000403090405010906A1018506050719C2
:1003C000E029E71500250195087501810205071947
:1003D0000029EF1500250195F07501810205081926
:1003E000012905950575019102950175039103C0D9
:1003F00005010902A10185020901A10005091901F0
:1004000029081500250195087501810205010930AB
:1004100009311581257F95027508810609381581F6
:10042000257F950175088106050C0A38021581257E
:100430007F950175088106C0C005010980A101856D
:100440000319012AB700150126B70095017510811F
:1004500000C0050C0901A101850419012AA002159B
:100460000126A002950175108100C005010906A1B1
:1004700001050719E029E715002501950875018197
:10048000029501750881030507190029FF1500264B
:10049000FF0095067508810005081901290515005A
:1004A0002501950575019102950175039103C00021
:1004B00011241FBECFE5D8E0DEBFCDBF11E0A0E61E
:1004C000B0E0E8E8F0E402C005900D92A031B10779
:1004D000D9F722E0A0E1B1E001C01D92AD3CB20726
:1004E000E1F70E94AE130C94FB1F0C940000A82FA0
:1004F000B92F80E090E041E050EA609530E009C01B
:100500002D9182279795879510F084279527305E47
:10051000C8F36F5FA8F30895EADF8D939D93089564
:10052000CF93CFB7CF93C395839BE9F7839B0EC03F
:10053000839B0CC0839B0AC0839B08C0839B06C01F
:10054000C091A402C395C093A402A6C0DF93C0913A
:10055000A302DD27C555DD4F839B02C0DF91E6CFA7
:100560002F930F931F9300B32FEF03FB20F94F93AB
:100570003F9310B34FEF012703FB21F93BE031C05C
:100580004E7F012F10B3216028C0102F4D7F2260B5
:10059000000000B329C04B7F2460012F000010B37E
:1005A0002BC010B3477F28602AC04F7E00B3206164
:1005B0002CC04F7D10B320622FC04F7B00B320644E
:1005C00032C0422700B349934FEF0000102713FBBE
:1005D00020F910B31C70C9F1297F91F2012703FBA8
:1005E00021F900B3237F89F2315058F1102713FB12
:1005F00022F910B3277E79F2012703FB23F92F7C20
:1006000081F200B3102713FB24F92F7971F200C097
:1006100010B3012703FB25F92F7359F200C000B373
:10062000102713FB26F9223040F200C010B3012737
:1006300003FB27F9243028F64F77206810B3000019
:10064000F9CF10E81ABF00271CC03B503195C31BDF
:10065000D04010E81ABF0881033C11F10B3401F1BE
:100660002091A0021981110F1213EDCF4A81441F6E
:10067000093669F10D3211F0013E29F74F7009F08A
:10068000042F0093A9023F914F911F910F912F9139
:10069000DF91CAB7C7FD47CFCF91CFBFCF91189594
:1006A0002091A902222379F31091A702112309F0C6
:1006B00044C034300AF443C03093A7022093A2020E
:1006C0001091A3023BE0311B3093A30238C000918C
:1006D000A702013094F50AE54F7049F43091780093
:1006E00034FD2FC000937800CDE7D2E02EC0433018
:1006F00059F0443091F03091880234FD22C00093CB
:100700008802C9E8D2E021C03091C10234FD19C08D
:100710000093C102C2ECD2E018C03091940234FDC3
:1007200010C000939402C5E9D2E00FC02795A8F449
:100730005150A9F4220F0000F9CF4AE503C042ED61
:1007400001C0432FC4E1D0E032E011B31C60939AA2
:1007500011BB02B320E41CE05F93012756E002BB0B
:10076000279520F4515021F4220FF9CF012756E0AC
:1007700000003B5A02BBD0F2279528F4515029F4CF
:10078000220F0000F9CF012756E0279502BB20F485
:10079000515021F4220FF9CF012756E0299133233C
:1007A00002BB21F6037F1091A802110FC651D04061
:1007B00002BB11F01093A00210E81ABF086011B339
:1007C000137F402F437F5F9100C000C002BB11BB6D
:1007D00042BB59CF8330B8F46630A8F4443198F462
:1007E000E42FF0E094E1699FE00DF11D112498E7FA
:1007F000899FE00DF11D1124EE0FFF1FE05AFF4FFE
:1008000085919491089581E090E008950E94EA0313
:100810000895833088F461110FC0E82FF0E0EE0FE7
:10082000FF1F81E04827E40FF11DEE0FFF1FEC5A78
:10083000FF4F85919491089581E090E008950E9482
:100840000904089581E008950E942204089581E03A
:1008500008950E94220408950E942904089508958D
:100860000E942F040895A6E0B0E0E9E3F4E00C94C0
:10087000581F49835A839E833091170189819A8139
:1008800031111AC03E81332399F0222389F00E944E
:10089000E909182F682F89819A810E94B609698118
:1008A0007A81812F0E941A112696E3E00C94741F1E
:1008B0000E94D009182FF3CF0E94E90969817A813B
:1008C000F1CFFC01262F40815181628173818481A7
:1008D00095810E9433040895CF93DF93D82FC92FB9
:1008E00061E00E9461046D2F7C2F0E942404DF913F
:1008F000CF910895CF93DF93D82FC92F60E00E9446
:1009000061046D2F7C2F0E943004DF91CF910895F8
:1009100081E008950E9488040895CF93C82F0E9413
:1009200088088C2F0E948A042FEB87E299E02150DF
:1009300080409040E1F700C00000CF91089581E031
:100940000E948D040E94E81B089580E00E948D049F
:100950000E94FB1B08950F931F93CF93DF938C018D
:1009600061E00E946104EC01B8010E942C0488231C
:10097000B1F1B801CE010E945D19882381F1B8015F
:10098000CE010E947C15882351F1B801CE010E944E
:100990005115882321F1F8018581882381F0CA351A
:1009A000FCE7DF0739F178F4C130ECE7DE07F9F056
:1009B000C330FCE7DF07C9F0C115DC4771F0C8019F
:1009C0000E9427040DC0CB35ECE7DE07B1F0CC3533
:1009D000DC47A9F70E940B0EF2CF0E949F0480E033
:1009E000DF91CF911F910F9108950E941D0E0E94DB
:1009F000A504F5CF0E94150EE2CF0E94190EDFCF9D
:100A00000E944B1B0E94270508950E942B050E94FF
:100A1000501B0895089581E008950895CF93DF93C2
:100A2000D82F0E940B05C82F882319F08D2F0E9404
:100A30000D058C2FDF91CF9108950895CF93C82F86
:100A40000E940A058C2F0E940E05CF91089580E028
:100A50000E941E0508950E94A3190E941E05089574
:100A6000CF930E94A319C82F809112018C1779F09F
:100A7000C09312010E94981B60931301709314019C
:100A800080931501909316018C2F0E941E05CF9123
:100A90000895ADE0B0E0EFE4F5E00C94591F48870D
:100AA00059876A877B878C879D8791110E94280DC3
:100AB0001F8286E0FE013896DE01119601900D92AC
:100AC0008A95E1F78D8181110DC029813A814B8191
:100AD0005C816D817E818F810E946E0C2D96E2E09B
:100AE0000C94751FCE0101960E946C048111EDCF0C
:100AF000F5CFFC018481813021F4808191810E94B5
:100B00001B0A0895662329F00E94EA160E94C01766
:100B100008950E944817FACFCF93C82F882399F0E1
:100B20008CEF8C0F813A88F48C2F0E94461A882310
:100B300029F08C2F0E94EB1A0E94AE0D8C2F0E9480
:100B4000D41A0E94AE0DCF91089580E28C0F8830A8
:100B500048F4C77081E001C0880FCA95EAF70E9487
:100B6000090DEFCF8BE58C0F833038F42C2F2452F6
:100B7000330BC9010E94D919E6CFE8E5EC0FEB3140
:100B800050F4F0E0EE0FFF1FE758FF4F8081918196
:100B90000E94FF19D8CF83E38C0F8331A0F661E068
:100BA0008C2F0E948205CFCF882381F19CEF980F74
:100BB000913A28F40E94EB1A0E94AE0D089590E23B
:100BC000980F983050F4877091E001C0990F8A9582
:100BD000EAF7892F0E940F0DEFCF9BE5980F933016
:100BE00028F480E090E00E94D919089598E5980FC4
:100BF0009B3128F480E090E00E94FF19089593E370
:100C0000980F933118F460E00E94820508951F93B5
:100C1000CF93DF93182FEB010E948C05209739F4B6
:100C2000812F0E94D405DF91CF911F91089587EB0A
:100C30009BE00197F1F700C000002197EFCF60E043
:100C400070E0893311F460E570E00E9407060895B2
:100C5000882321F00E94090D0E94AE0D089588237B
:100C600021F00E940F0D0E94AE0D0895A0E0B0E0AB
:100C7000ECE3F6E00C94531F6C01D62FC72FFC0158
:100C80001581068102950F700E94FE0CE82E8823C4
:100C9000F9F0E12E1123E1F08C2F807F803461F098
:100CA00080E28D0F8830F0F08C2F807E803221F42E
:100CB000D230C0F00023B1F08091480282FF12C010
:100CC00082E00E94DE0D0E94FE0C91E0E82EE926F3
:100CD000EC2FE295EF70C03CB0F5F0E0E350F04E41
:100CE0000C94431FE12CF4CF0C2F0F70C03110F087
:100CF0000295007F112399F0002359F080E28D0FB7
:100D0000883010F0D11107C0802F0E94090D0E9479
:100D1000AE0D8D2F51C0802F0E941A0DF8CF8D2F50
:100D20000E94D405002379F080E28D0F883010F006
:100D3000D11104C0802F0E940F0D03C0802F0E948C
:100D4000200D0E94AE0DEE2089F00E94FA0C80FD6D
:100D50000DC0F60115820E94F40C0E941309C60111
:100D60000E944F080E94F40C0E942309CDB7DEB701
:100D7000E8E00C946F1FFC2FFF70FF2EC07FC03285
:100D800019F0F29480EFF822DD2341F0D130D1F157
:100D9000112309F444C00023F1F0BBCF8091480235
:100DA00082FD15C0112359F0FF2029F08F2D0E94DC
:100DB000090D0E94AE0D80E00E948C05C4CF80E03A
:100DC0000E94D405FF2009F4BECF8F2DB4CF11238C
:100DD00069F0011104C08F2D0E942806B4CF0130A4
:100DE00009F0B1CF8F2D0E94400DADCF0111ABCFD7
:100DF0008F2D0E942F068F2D0E944C0D8F2D0E944B
:100E00002F0DA1CF112321F0063008F09CCFE3CFA6
:100E1000053008F098CF8F2D0E942F0694CF002325
:100E2000D1F3D93349F42FEF8DEE92E02150804079
:100E30009040E1F700C000008D2F0E94D40583CFC1
:100E40008C2F869586958370882369F0813009F010
:100E50007ACF8D2F9C2F9370111102C080E090E00B
:100E60000E94FF1970CF8D2F9C2F9370111102C01B
:100E700080E090E00E94D91966CF612F8D2F0E94EB
:100E8000820561CF8C2F8370811139C0111129C067
:100E90004D2F429546954770440F440F2D2F2F70CC
:100EA00030E0042E02C0220F331F0A94E2F780E0E4
:100EB00090E0D4FF09C08FE090E002C0880F991F36
:100EC0004A95E2F780959095C695C695C370822B9A
:100ED000932BC23071F0C33079F0C13039F00E94E9
:100EE000E3080E94A3190E941E052DCF0E94DA0874
:100EF000F8CF0E94EC08F5CF0E94D708F2CF11235B
:100F000061F1C0FFEECF4D2F429546954770440FDB
:100F1000440F2D2F2F7030E0042E02C0220F331FFC
:100F20000A94E2F780E090E0D4FF09C08FE090E0FF
:100F300002C0880F991F4A95E2F780959095C69553
:100F4000C695C370822B932BC23069F0C33071F009
:100F5000C13031F00E944E09C4CF823010F2D3CF9D
:100F60000E944509BECF0E945709BBCF0E94FB08D3
:100F7000B8CFCF70112339F08C2F0E9413098D2F19
:100F80000E942806AECF8D2F0E942F068C2F0E9424
:100F90002309A7CFD23F31F170F4D03FB9F0D13F50
:100FA000B1F1112309F451C0002309F44BC08D2F76
:100FB0000E948C0596CFD33FE1F0D43F21F111116F
:100FC000F3CF011150C08C2F8F71E1CF112341F06D
:100FD000053008F086CF8C2F8F710E94350981CFA4
:100FE0000530F7CF8C2F8F711111D1CF0E941309CB
:100FF00078CF112329F08C2F8F710E94070971CFB0
:101000000E9402096ECF8091480282FD06C08C2F9B
:101010008F71112309F4BBCFE9CF112349F0CF71B0
:101020008C2F0E94130963E08C2F0E94C00D59CFB2
:1010300081E00E94DE0D023008F453CF82E00E946E
:10104000DE0D4FCF8C2F8F71D1CF002309F4BBCF92
:10105000D93349F4EFEFFDEE22E0E150F0402040BB
:10106000E1F700C000008D2F0E94D4053ACF0F9306
:101070001F93CF93DF93EC01688179818D810E946A
:10108000280A8C010E9460090E94D608B801CE018E
:101090000E943606DF91CF911F910F910895CF9353
:1010A000DF93EC018C81882399F0CE010E94AB0480
:1010B000811111C00E94FE0C882351F08D8188237C
:1010C00039F08091480282FF03C082E00E94DE0D69
:1010D000DF91CF910895CE010E943708CE010E9482
:1010E0007A04F6CF80E090E00E94D91980E090E089
:1010F0000E94FF190E94280D0E94AE0D0E94DD176C
:101100000E94C01708950E94021B0E947208089551
:101110000E94170D0E9483080895282F92959F70B2
:10112000963091F060F4925F9F70923030F481E0DD
:10113000203F79F030F4283E30F080E008959A5F47
:10114000F3CF243FD1F7089581E0283EE0F3213F1B
:10115000F9CF0895FC018481882339F08081918141
:101160000E941B0A0E948D08089580E00895A6E061
:10117000B0E0EDEBF8E00C94591F2696E2E00C94F9
:10118000751FA7E0B0E0E7ECF8E00C94591F279634
:10119000E2E00C94751F08950E94CB0808950E9408
:1011A000CC0890935B0180935A01089508950E94A2
:1011B000CF08089520915A0130915B01822B932B27
:1011C0000E94CF08089520915A0130915B0182233B
:1011D00093230E94CF08089520915A0130915B011A
:1011E000822793270E94CF0808950E94CB08089574
:1011F0000E94F50808950E94F80890935901809381
:101200005801089580E090E00E94FB08089521E0D5
:1012100030E0A90102C0440F551F8A95E2F7CA01C8
:101220000E94FB08089521E030E002C0220F331F26
:101230008A95E2F78091580190915901822B932B66
:101240000E94FB08089521E030E002C0220F331F06
:101250008A95E2F720953095809158019091590137
:10126000822393230E94FB08089521E030E002C00E
:10127000220F331F8A95E2F780915801909159010E
:10128000822793270E94FB080895209158013091EE
:101290005901822B932B0E94FB080895209158013D
:1012A00030915901822393230E94FB0808952091D5
:1012B000580130915901822793270E94FB08089515
:1012C00008959B01677091E001C0990F6A95EAF754
:1012D00063E0369527956A95E1F7220F331F220FB9
:1012E000331FFA01E20FF31F40E050E0682F70E077
:1012F0008191DF0111979B01042E02C0369527953D
:101300000A94E2F7217021952827292328272C9376
:101310004F5F5F4F4430510559F708959C01982F56
:10132000977083E0369527958A95E1F7220F331F52
:10133000220F331FFB01E20FF31F40E050E080E07B
:10134000219130E0092E02C0369527950A94E2F7E4
:1013500021703327042E01C0220F0A94EAF7822B52
:101360004F5F5F4F4430510559F70895282F862F5E
:10137000963070F4243158F4622F70E024E1929F8B
:10138000600D711D11244CE151E00E946109089526
:101390009C5F9230E0F7622F70E048E151E0F5CFBA
:1013A000292F963068F4843190F490E06CE171E07C
:1013B00034E1239F800D911D11240E948E09089510
:1013C0002C5F223020F468E171E090E0F6CF80E0FD
:1013D0000895A0E0B0E0EFEEF9E00C94521F8C010C
:1013E000E0905801F090590180915A0190915B0171
:1013F000E82AF92ACFE0D0E0CC24C394D12CC6014E
:101400000C2E02C0880F991F0A94E2F78E219F21AB
:10141000892B49F4219798F7B12C8B2DCDB7DEB7E6
:10142000E9E00C946E1FBC2EB8018C2F0E94331182
:10143000019781F3F2CFCF93DF93D82FC92F0E946A
:10144000E9096D2F7C2F0E943311DF91CF91089510
:101450001F93CF93DF93162FD72F909117019923C6
:1014600041F0862F972F0E941B0ADF91CF911F9189
:101470000895882381F0862F972F0E94E909C82FAD
:10148000682F812F9D2F0E94B609612F7D2F8C2FF1
:101490000E943311EACF862F972F0E94D009C82FC0
:1014A000F4CF0F931F93CF93E0915C01C7E080913D
:1014B0005D018E1304C0CF911F910F9108950E2FDF
:1014C00010E0CE9FF0011124E25AFE4F20813181BD
:1014D000428153816481758186810E94C108F8012F
:1014E0003196E770E4CF20919601309197014091B9
:1014F00098015091990160919A0170919B0180919E
:101500009C010E94C108089580919C01803178F46B
:1015100080919B01882359F0E0915C0120915D014D
:10152000309197014091960157E02E1301C0089524
:101530006E2F70E05E9FF0011124DF01A25ABE4FB2
:1015400014968C911497882361F111968C911197C0
:10155000831327C08C91841324C015968C91159702
:1015600081111FC012968D919C91A0919801B0910C
:1015700099018A1B9B0B883C910598F480919C01F2
:101580008F70806180939C01EC59FE4F80818F7039
:101590008061808386E991E00E944F080E94510A91
:1015A0000895FB013196E770C0CFE0915C01909106
:1015B0005D0127E0E91302C080E00895AE2FB0E09E
:1015C0002E9FF0011124E25AFE4F3181361306C0DE
:1015D0003081381303C03581341304C0FD013196C6
:1015E000E770E8CF81E008958F929F92AF92BF920B
:1015F000DF92EF92FF920F931F93CF93DF93CDB7BC
:10160000DEB72D970FB6F894DEBF0FBECDBF8C01AD
:1016100086E0F801DE01189601900D928A95E1F7B7
:10162000F801E080F580A280B380848196E9892E5C
:1016300091E0992E90919A0191111BC0882309F491
:10164000FCC0FF2009F43DC1C8010E94AA088823FC
:1016500009F437C187E0F801D40101900D928A9511
:10166000E1F7C4010E9479050E94840A0E94730A6E
:10167000E4C0D0909B012091980130919901A5017F
:10168000421B530BDD2009F4DBC0483C510508F038
:10169000A6C0882309F4D1C09091970191808091D0
:1016A0009C01803108F06BC0991228C0909196017E
:1016B0009E1124C0F1105DC08F70806180939C01E9
:1016C0000E94730A86E991E00E944F0880919C0174
:1016D000F8018683F12C8F2D2D960FB6F894DEBF7E
:1016E0000FBECDBFDF91CF911F910F91FF90EF9073
:1016F000DF90BF90AF909F908F900895F11039C008
:1017000040E0692D8E2D0E94D50A40E0692D8E2D76
:101710000E94D50AF82E8111DDCF888599850E9417
:101720001B0A292F22952F70903450F49F7022307D
:1017300080F0992399F0F8019681903178F4CBCF1D
:101740002A5F2F70223078F0C8010E944F08FD2CCC
:10175000C2CF992319F0882309F4BDCF805E883069
:1017600008F4B9CFF1CF803F08F4B5CF815F823064
:10177000F7CF80919C01816080939C01ABCF99123F
:1017800007C0909196019E1103C0FF2009F479C013
:10179000C8010E94AA08882309F493C0FF2009F415
:1017A00090C080919C01803288F020919601309108
:1017B00097013A832983BC82AB8290919A019D83E1
:1017C0001E828F83CE0101960E944F0887E0F801A8
:1017D000A6E9B1E001900D928A95E1F745CF90918D
:1017E0009C019031A0F4488559856A857B858C855C
:1017F0009D850E94B70886E991E00E944F0887E026
:10180000F40111928A95E9F70E94730A63CF882345
:10181000A1F02091970181812813BACF8091960180
:101820008E11B6CFF110B4CF9683C8010E944F0835
:1018300087E0F40111928A95E9F7FF24F3944BCFE6
:10184000483C510508F041C08823B9F3FF20C9F195
:1018500090919701818198132AC0809196018E11F1
:1018600026C080919C0180FD19C08031B8F086832C
:10187000807F803F39F08681982F907F905F8F70B6
:10188000892B8683C8010E944F0887E0F801A6E9EA
:10189000B1E001900D928A95E1F7E8CE87E0F8017A
:1018A000A6E9B1E001900D928A95E1F7C6CFC80193
:1018B0000E94AA0881118ACF80919C018160809347
:1018C0009C01C8010E944F08B8CF488559856A8598
:1018D0007B858C859D850E94B70891CFAEE0B0E0F6
:1018E000E4E7FCE00C94581F288739874A875B8718
:1018F0006C877D878E87CE0108960E94F40A882324
:10190000B1F06C85662341F0288539854A855B8571
:101910007D858E850E94C10817E080915C019091C1
:101920005D0189133EC02E96E3E00C94741F87E09E
:10193000FE013896DE01119601900D928A95E1F72D
:1019400020915D0140915C018C85882329F330E072
:10195000C90101968770992750E08417950799F07F
:1019600097E0929FD001939FB00D1124A25ABE4FD1
:10197000FE01319601900D929A95E1F780935D01F9
:101980000E94510AC9CF0E94880810925D011092EE
:101990005C0187E0E6E9F1E0DF011D928A95E9F755
:1019A000BBCF189FC0011124825A9E4F0E94F40A97
:1019B000882309F4B8CFE0915C011E9FF001112447
:1019C000E25AFE4F208131814281538164817581C9
:1019D00086810E94C10880915C0190E00196877029
:1019E000992780935C0199CF8091BD01869586955A
:1019F000869508958091BD01877008959091BD01ED
:101A0000977081E0911101C080E008958091E90113
:101A100008959091E901982B9093E9010895982FEA
:101A200090958091E90189238093E90108951092AE
:101A3000E90108959091E801982B9093E8010895A9
:101A4000982F90958091E80189238093E80108956B
:101A50001092E801089508950E942B0D0895909129
:101A6000BE01292F2823222331F0809589238093DA
:101A7000BE010E942C0D089508950E943C0D08950A
:101A80009091BF01292F2823281729F0982B909394
:101A9000BF010E943D0D08959091BF01292F282379
:101AA000222331F0809589238093BF010E943D0D50
:101AB00008958091BF01882329F01092BF0180E032
:101AC0000E943D0D0895CF93DF93C091E90180916D
:101AD000E801C82BD091BF01DD2331F00E94251A07
:101AE00081110E94590DCD2B8C2FDF91CF9108953C
:101AF000CF93DF93C0916200D09163000E94630D89
:101B0000888380916200909163000E94B019DF91F8
:101B1000CF910895CF93DF93C0916000D091610081
:101B20000E94630D8983C0916000D091610040E202
:101B300050E06DE971E0CE010E94941F892B59F0AD
:101B400080E2FE01ADE9B1E001900D928A95E1F7E6
:101B5000CE010E94BB19DF91CF910895809176004C
:101B6000882339F08091470287FF03C00E948A0DC5
:101B700008950E94780D089508950E94BC0D08955F
:101B80009091480292FF11C098E0899F9001112422
:101B9000622B6093BD010E9413098091BD0186955F
:101BA000869586950E94BD0D08950E94130908959B
:101BB0001092BD0180E00E94BD0D08959091BD017D
:101BC000809589238093BD01282F277021110DC096
:101BD000891759F09091480292FF07C08695869523
:101BE00086950E9423090E94D80D0895909148027D
:101BF00092FB222720F9281769F080FB92F9909335
:101C0000480280914702909148020E943E0E82E075
:101C10000E94DE0D08958091480282FB882780F99A
:101C200091E089270E94F60D089581E00E94F60D4B
:101C3000089580E00E94F60D08956FEF7FEF80E039
:101C400090E00E94E51F089580E090E00E94B21F9E
:101C50009C0181E0263E3E4F09F080E0089582E03D
:101C600090E00E94AA1F089583E090E00E94AA1FBE
:101C7000089584E090E00E94B21F0895BC0184E0C2
:101C800090E00E94E51F0895AB01BC018FE090E059
:101C90000E94D91F0895AB01BC0183E190E00E942E
:101CA000D91F089560E070E0CB010E944B0E0895AB
:101CB00060E070E0CB010E94440E0E94520E089535
:101CC000A8E0B0E0E6E6FEE00C94591F66EE7EEF79
:101CD00080E090E00E94E51F60E082E090E00E94DA
:101CE000C81F81E090E090935B0180935A0161E00E
:101CF00083E090E00E94C81F60E074E184E090E01F
:101D00000E94E51F60E086E090E00E94C81F60E04E
:101D100087E090E00E94C81F40E050E0BA0188E0F0
:101D200090E00E94D91F60E084E290E00E94C81F0A
:101D300060E087E190E00E94C81F60E08CE090E0E6
:101D40000E94C81F60E08DE090E00E94C81F1982C9
:101D50001A821B821C821D821E821F82188648E006
:101D600050E068E170E0CE0101960E94B81F40E0AB
:101D700050E0BA0180E290E00E94D91F0E94580E04
:101D80002896E2E00C94751F0E94600E0895682F5B
:101D90008EE090E00E94C81F0895A6E0B0E0E3ED59
:101DA000FEE00C94571F0E948C1B8C018091EA016D
:101DB0009091EB018017910779F019821A820E94A5
:101DC0008C1BBC0149815A8180E090E00E9449054A
:101DD0001093EB010093EA012696E4E00C94731F44
:101DE0000E94981B60930C0270930D0280930E0268
:101DF00090930F02609308027093090280930A0285
:101E000090930B0208950E94981B60930C027093AC
:101E10000D0280930E0290930F0260930402709360
:101E2000050280930602909307020895089508958D
:101E30000E94160F089508950E941B0F08958BE2CB
:101E400092E10E94BB130E94170F0E94180F089581
:101E500081E008950E94280F08950E94280F089598
:101E6000089508950E94300F0E94310F08950E9436
:101E7000240E811102C00E94C40E0E942F0E809376
:101E800010020E94390E90934802809347020E94EC
:101E90004E150E94340E90E00E94D70880915801A0
:101EA000909159010E94F80808950E94851B0E9494
:101EB000C3130E9411130E94370F0E941D050E9438
:101EC0001C0F0895A8E0B0E0E8E6FFE00C94491F7D
:101ED0000E942A0F81110FC00E94CD0E0E942A1469
:101EE00081110E94030F0E94FE170E943005289660
:101EF000E2E10C94651F0E9427138CEE91E0988715
:101F00008F837C0110E0F7014190519061907190B6
:101F10007F01812F0E943512462F572FBC011F5F72
:101F2000163009F467C0441655066606770659F35D
:101F30008091100281FD0E944B120E942D0F382EBD
:101F400010E022242394812F0E9435126B017C0122
:101F5000EF81F8854190519061907190F887EF83FF
:101F6000C414D504E604F704F1F14C245D246E2476
:101F70007F2400E0812C912C54018394D301C20171
:101F800088219921AA21BB21892B8A2B8B2BE9F04F
:101F90003320D9F009831A830E948C1B9C838B8386
:101FA0002D8221E0D701C60188219921AA21BB21D8
:101FB000892B8A2B8B2B09F420E049815A816B8174
:101FC0007C818D81922F0E9449050F5F880C991C9E
:101FD000AA1CBB1C043191F6EF81F8853497C082AE
:101FE000D182E282F3821F5F163009F0ACCF0E94EB
:101FF000F00E74CF441655066606770609F098CFA2
:102000006BCF1F93CF93DF930E943811EC018115A2
:1020100022E5920708F053C0811540E5940708F0C7
:10202000DDC0803E9105F8F48D3C910508F0AEC00E
:10203000883A910580F4853A910508F099C081307D
:10204000910521F00497813A910550F4CE01DF917A
:10205000CF911F910895885A91094B9708F48BC02E
:10206000C0E0D0E0F3CF811550E49507F8F4C11536
:1020700080E2D80708F0CBC0C83ED10538F3CE01C6
:102080009A9581159F4160F78D2F0E94DC11182FC2
:10209000CE0199270E943811212F30E0322F2227BC
:1020A000E901CC27DF71C82BD92BD0CF99270E940B
:1020B0003811CC27DF70C82BD92BD06AC7CF803816
:1020C00042E59407C8F5803652E5950708F067C0E9
:1020D000C03482E5D807B0F08C2F8695869587703E
:1020E00020E2829FC0011124C37021E030E0A901E9
:1020F00002C0440F551FCA95E2F7EA01C82BD92B3D
:10210000DC68A4CFC03252E5D50708F041C08C2F5F
:102110008695869520E2829FC0011124C37021E03C
:1021200030E0A90102C0440F551FCA95E2F7EA0149
:10213000C82BD92BDD688ACF803C52E5950760F427
:102140008F71C03AD24508F03FC090E0982F8827A1
:10215000EC01C46FD06A7ACF805C9245809708F01A
:102160007FCFDC2FCC27CC27DF71C06FD06A6ECF3A
:10217000A497D0646BCFC85AD0E0CC0FDD1FC155F7
:10218000DF4F0990D881C02DD46460CFD0655ECF79
:10219000CF71D0E0DC2FCC27C16FD06A57CF8695A6
:1021A0008695877020E2829FC0011124C37021E0D0
:1021B00030E0A90102C0440F551FCA95E2F7EA01B9
:1021C000C82BD92BDA6842CF0E94DC11C82FD0E08F
:1021D000DC2FCC27CC27DF71D06238CF8F710E94E3
:1021E000DC1165E0D695C7956A95E1F7CF70D0E030
:1021F000DC2FCC27282F30E084FF05C054E0220FCD
:10220000331F5A95E1F7C22BD32BD0691FCF8D2FE7
:102210008F710E94DC11182FCE0199270E9438116E
:10222000212F30E0322F222722273F71282B392BF4
:10223000E901D2CF462F672F763028F4443180F45D
:102240000E94060408957D3F39F4411109C041E020
:1022500060E00E941F0408957C3F11F44423C1F301
:1022600080E090E008950E941A110E9401100895E4
:10227000803E9105D1F1C8F48133910509F47FC006
:1022800048F48932910509F46FC08A32910509F446
:102290007DC0089589339105E1F082389105C9F038
:1022A0008533910509F45BC00895843E9105D1F111
:1022B00048F4823E910531F1833E910541F181EE72
:1022C00090E00895863E9105C1F1873E9105E1F1C8
:1022D0000895209147022370211165C02091480282
:1022E00023FF14C089E290E008952091470220FD69
:1022F00043C03091480230FF09C024FF4EC080E047
:1023000090E008952091470222FDF7CF0895209193
:10231000470222FD45C03091480230FD44C024FFF1
:10232000F5CFEDCF2091480221FFF0CF80914702F9
:1023300084FDE5CF87EE90E008952091470223FFCA
:10234000E5CF24FDDCCFF6CF2091470223FD2EC040
:102350003091480231FFE3CF84EE90E00895209160
:10236000470225FFD3CFBECF2091470225FD21C0D4
:102370002091480223FFCACF89E390E0089520917D
:10238000470226FFC3CF8AE290E0089520914702DA
:1023900026FFBCCF81E390E0089583EE90E008959E
:1023A00082EE90E0089580EE90E0089586EE90E051
:1023B000089585E390E0AACF9091470292FF10C064
:1023C00041E0282F2471243009F040E031E0282F2B
:1023D0002871283009F030E0431711F02CE08227F3
:1023E00093FF10C041E0282F2471243109F040E010
:1023F00031E0282F2871283109F030E0431711F01F
:102400002CE082273091480230FF10C051E0282F85
:102410002171213009F050E041E0282F2871283047
:1024200009F040E0541711F029E0822731FF10C075
:1024300041E0282F2171213109F040E031E0282FBF
:102440002871283109F030E0431711F029E0822784
:1024500094FD877E089580E0089508950E942D12CE
:10246000089508950E9431120895A4E0B0E0EBE3CE
:10247000F2E10C94591F94E0899FF0011124EF5967
:10248000FD4F80819181A281B381BC01CD01249651
:10249000E2E00C94751F089588E78A95F1F7089596
:1024A00000C008950E944C120895F894E82FE29518
:1024B000EF70F0E041A98F7021E030E0B90102C077
:1024C000660F771F8A95E2F7CB01962F909594239C
:1024D00091AB92A9892B82AB789408950F931F93A7
:1024E000CF93DF93C9EFD0E089918F3F11F00E9425
:1024F000551280E0CF3FD807B9F7C5EED0E009EF1D
:1025000010E089918F3F11F00E9455120C171D07A2
:10251000C1F7DF91CF911F910F9108958F929F92F4
:10252000AF92BF92DF92EF92FF920F931F93CF93E0
:10253000DF93EC01D62E062F10E0C80187509F4F85
:102540007C01FC0120812F3F09F45FC0F894E22F49
:10255000E295EF70F0E031A92F7081E090E001C0CA
:10256000880F2A95EAF7932F982B91AB92A9809523
:10257000892382AB78940E945012E5EEF0E041E0AE
:1025800050E060E070E0812C912C540181918F3FEC
:1025900091F0A82FA295AF70A05DB0E02C9130E033
:1025A0008F7002C0359527958A95E2F72170DB017F
:1025B000CA01222321F080E090E0A0E0B0E0882A68
:1025C000992AAA2ABB2A440F551F661F771F80E04D
:1025D000E93FF807D9F6F70180818F3F11F00E949B
:1025E000551261E081149104A104B10409F460E082
:1025F0008D2D0E945212000F111F000F111FC00FCE
:10260000D11F88829982AA82BB82DF91CF911F91CC
:102610000F91FF90EF90DF90BF90AF909F908F90C1
:1026200008950E946E1288E1E1E6F2E0DF01982F42
:102630001D929A95E9F7E9E4F2E0DF011D928A958F
:10264000E9F786E00E9464130E942E120895A8E123
:10265000B0E0EDE2F3E10C94561FFE01319688E103
:10266000DF011D928A95E9F710E0FE2E0F2F612FF2
:102670008F2D902F0E948E121F5F1630C1F748E1F8
:1026800050E06F2D702F89E492E00E94941F21E0AA
:10269000892B81F420E046E061E672E089E492E073
:1026A0000E946513182F0E943212812F6896E5E070
:1026B0000C94721F88E1EF2DF02FA9E4B2E0019095
:1026C0000D928A95E1F7E7CF0895A0E0B0E0EBE640
:1026D000F3E10C94531FD82EE92EF62ED72F042F9A
:1026E000C22F222379F081E0809313020E948C1B79
:1026F000909312028093110280E0CDB7DEB7E8E03C
:102700000C946F1FC0901302CC20B1F38091110282
:10271000909112020E94B51B0A9770F384E0089F03
:1027200080011124A8016D2D7E2D8F2D9D2F0E94DB
:10273000941F892B41F0A8016D2D7E2D8F2D9D2F8B
:102740000E94A11FCC2D109213028C2FD6CF0E9475
:102750002C1C0E94550F0E943D1C08950E94731B63
:102760000E94251C0E941F0F0E94A7130E944B1C51
:102770000E94320FFBCF90931101809310010895B6
:102780000E94280F0895E5E1F2E088E0DF011D9244
:102790008A95E9F70E94DA140895FC0123812150FB
:1027A000330B23703327428150E081E02417350733
:1027B00009F080E008950F931F93CF93DF93EC010E
:1027C000162F042F0E94CD13811113C08A81FE01A0
:1027D000E80FF11D00FB17F914838F5F83708A8364
:1027E00088818F5F888381E0DF91CF911F910F9166
:1027F000089580E0F9CFCF93DF93FC01EA01A38134
:1028000082818A17B9F0AE0FBF2FB11D14968C913B
:1028100087FB992790F98F77DB018C9398838381CD
:102820008F5F8370838381818F5F818381E0DF91FC
:10283000CF91089580E0FBCF462F682F85E192E08D
:102840000E94DB130895AB01BC0185E192E00E9478
:10285000FB130895AEE0B0E0E0E3F4E10C94551F03
:1028600080911402882351F0109214028091170273
:102870008093180280911502809316020E94181509
:102880000E94C013182F882361F110E08CEFF82EFE
:102890009DEFE92E1CC01E858D851983882331F19B
:1028A000EA820E948C1BBC0149815A8182E091E03E
:1028B0000E9449051F83E8860E948C1B682F82E0D6
:1028C000792F4F81588590E00E944905102FBE0155
:1028D000635F7F4FCE010E960E942314082F811153
:1028E000DACF812F2E96E6E00C94711FFA820E94B7
:1028F0008C1BBC0149815A8183E091E00E9449050B
:102900001F83F8860E948C1B682F83E0D9CF8BE24F
:1029100091E00197F1F700C00000089527B36B59CB
:102920006F7081E090E001C0880F6A95EAF7982FF8
:102930009095922397BB98B3892B88BB089586B353
:1029400090E06B596F7002C0959587956A95E2F794
:10295000817008950895CF93DF93C0E080911D02A8
:10296000C81760F00E948714C0E080911D02C8174C
:1029700078F00E94AA14DF91CF91089560E08C2F27
:102980000E948E1461E08C2F0E948E14CF5FE6CFE0
:1029900060E08C2F0E949F14D82F61E08C2F0E9442
:1029A0009F14EC2FF0E0E15EFD4F880F8D2B8083AC
:1029B000CF5FDBCF81E080931D020E94AB140895AE
:1029C0001F93CF93DF93182F440F642BC82FD0E0B1
:1029D000DE01A15EBD4FEC918E2F8370681721F14F
:1029E000EE0FEE0FE62BEC93EF70F0E0E150FF4FAF
:1029F000C25EDD4F90818881980F9883943024F0D7
:102A000060E0812F0E941C1488818D3F24F461E0D6
:102A1000812F0E941C148881082E000C990B64E001
:102A200070E00E942F1F8883DF91CF911F9108953E
:102A3000CF93DF93C0E080911D02C81718F0DF919B
:102A4000CF91089561E08C2F0E949F14D82F60E0F1
:102A50008C2F0E949F14682F4D2F8C2F0E94E01402
:102A6000CF5FE9CF0E941D0E089580E00E943512CD
:102A7000862F817008950E9427138FE59AEE0197A3
:102A8000F1F700C000000E9427130E94351588232B
:102A900021F00E9432150E94E81B08950E943B1508
:102AA0000895CF93DF93EB0186319C4719F50E947F
:102AB000060D9D819923A1F08A7A91E0811101C0D0
:102AC00090E090932002882349F085E30E94D41A75
:102AD0000E94AE0D80E0DF91CF91089589E2F6CF9C
:102AE00080912002882321F085E30E94EB1AF0CF29
:102AF00089E2FBCF81E0EFCFCF93DF93EC01FB01C5
:102B00008581882309F4D2C09E01305723323105D4
:102B100008F0B2C00E94390E909348028093470299
:102B2000FE01E150F047E232F10520F4E75FFF4D8E
:102B30000C94431F8091470281608093470293C0A9
:102B4000809148028860809348028DC0809147023E
:102B50008260F3CF809147028460EFCF809147027B
:102B60008860EBCF809148028160EDCF8091480270
:102B70008260E9CF809147028061DFCF8091470278
:102B80008062DBCF809147028064D7CF0E948808A3
:102B9000809147028068D1CF809147028C60CDCF71
:102BA000809148028360CFCF809147028E7FC5CF4E
:102BB00080914802877FC7CF809147028D7FBDCF2C
:102BC000809147028B7FB9CF80914702877FB5CF35
:102BD000809148028E7FB7CF809148028D7FB3CF1E
:102BE000809147028F7EA9CF809147028F7DA5CF2C
:102BF000809147028F7BA1CF0E9488088091470275
:102C00008F779BCF80914702837F97CF8091480237
:102C10008C7F99CF8091470282FB992790F921E020
:102C2000922790FB82F990FB83F987CF809148022D
:102C3000982F909591708E7F892B90FB81F983CF8F
:102C400090914702892F8F7B96FF806476CF0E94F8
:102C5000880890914702892F97FB87F980586DCF9C
:102C600081E00E94C70E80914702909148020E9425
:102C70003E0E0E94880880E0DF91CF91089580E0A9
:102C8000F0CF90914702892F8F7E94FF806155CFBE
:102C900090914702892F8E7F90FF81604ECF909157
:102CA0004802892F877F93FF88604DCF81E0E4CF72
:102CB000282F35EB2303C001112497FF04C080584F
:102CC0009109892F089580589F4FFBCF809127024B
:102CD00080FF0DC06091690070E0660F771F60385B
:102CE0007105C0F561157105B9F1862F089581FF51
:102CF00007C06091690084E0689FB0011124EFCFA4
:102D000082FF04C06091690088E0F6CF80912602BE
:102D10008823E9F0909168006091690070E089175C
:102D200030F093E0660F771F9A95E1F7D8CF869F32
:102D30009001879F300D112483E0220F331F8A9565
:102D4000E1F7692F70E0C9010E942F1FC8CF68E02A
:102D500070E0CBCF8FE7089581E00895809127023E
:102D600080FF0CC06091650070E075956795759562
:102D700067956115710561F1862F089581FF06C081
:102D80006091650070E075956795F3CF609165007F
:102D900070E082FD15C0209125022223B1F09091B0
:102DA00064006091650070E0291750F4269FA0012F
:102DB000279F500D1124692F70E0CA010E942F1F18
:102DC00060387105B0F28FE7089561E070E0D4CF0C
:102DD00081E0089590912A0220912B02922B20915C
:102DE0002D02922B20912C02922B992331F098E006
:102DF0009093260291E0909325028D3C31F40E943D
:102E00006616819580932B020895E2E3E80FE23184
:102E1000B0F5F0E0E55DFF4D0C94431F0E9466168F
:102E2000F1CF0E946616819580932A0208950E9430
:102E30006616FACF0E94AE1680932C0208950E9467
:102E4000AE168195F9CF0E94AE16819580932D0222
:102E500008950E94AE16FACF815D990B21E030E013
:102E600001C0220F8A95EAF780912902822B809374
:102E70002902089580912702816080932702089596
:102E8000809127028260F9CF809127028460F5CF7C
:102E900040912A028D3C59F480912B0287FF0DC08E
:102EA00010922B02442359F41092260208C08E3C43
:102EB00081F480912B0218169CF3442381F08091B9
:102EC0002C0290912D02892B811159C0109225025C
:102ED00008958F3C41F447FFF0CF10922A02809171
:102EE0002B028823E0CF803D19F41416B4F3E5CF0C
:102EF00090912C02893D29F41916FCF610922C02AF
:102F0000DCCF8A3D19F497FFD8CFF8CF90912D02EE
:102F10008B3D29F497FFD1CF10922D02CECF8C3D5F
:102F200019F41916CCF3C9CF9FE2980F983090F49A
:102F3000815D990B21E030E0B90102C0660F771F77
:102F40008A95E2F7CB01809590912902892380939D
:102F50002902B3CF8D3D31F4809127028E7F80937B
:102F60002702ABCF8E3D21F4809127028D7FF7CFD2
:102F70008F3D09F0A2CF809127028B7FF0CF08957B
:102F80000E948C1B20912A0230912B02232B22239A
:102F900021F0809323029093240220912C023091FF
:102FA0002D02232B222321F08093210290932202D1
:102FB00088E292E00E94CA19089586E0E8E2F2E011
:102FC000DF011D928A95E9F71092260210922502E0
:102FD000109227020895FC01828181110DC0838126
:102FE00081110AC08481811107C081E0958191110E
:102FF00001C080E08170089581E0FCCFA6E0B0E0E0
:10300000E4E0F8E10C94561F86E0E8E2F2E09E016D
:103010002F5F3F4FD90101900D928A95E1F71092F1
:103020002A0210922B0210922C0210922D028B81F8
:103030009C81892B8901882391F0809123029091B2
:1030400024020E94B51B9C01809126028823C9F1AD
:1030500040916A0050E04217530708F43FC08D8149
:103060009E81892B882399F08091210290912202E0
:103070000E94B51B9C0180912502882309F467C03A
:103080004091660050E04217530708F46EC0B80143
:1030900088E292E00E941C1B811105C088E292E048
:1030A0000E94EB1781110E94C01786E0F801A8E288
:1030B000B2E001900D928A95E1F72696E5E00C9436
:1030C000721F40916B009AE0499FA00111244217A2
:1030D000530728F68F5F8093260202C08F3FD1F7F7
:1030E000FB80FF2059F00E94661691E01F140CF03F
:1030F0009FEF899F802D112480932A02FC80FF205E
:1031000059F00E94661691E01F140CF09FEF899F02
:10311000802D112480932B0280912A02882309F4A8
:103120009ECFF0902B02FF2009F499CF0E945816F1
:10313000811101C081E080932A028F2D0E945816D0
:10314000882319F080932B028ACF81E0FBCF409136
:1031500067009AE0499FA00111244217530708F025
:1031600096CF8F5F8093250202C08F3FD1F7FD80FD
:10317000FF2059F00E94AE1691E01F140CF09FEF53
:10318000899F802D112480932C02FE80FF2059F00E
:103190000E94AE1691E01F140CF09FEF899F802DC6
:1031A000112480932D0280912C02882309F46FCF83
:1031B000F0902D02FF2009F46ACF0E945816811169
:1031C00001C081E080932C028F2D0E945816882325
:1031D00019F080932D025BCF81E0FBCF0F931F93FB
:1031E000CF93DF93C42FD22FFC0185818823C9F0B0
:1031F000409330020E948C1B90932F0280932E02EA
:1032000080E28C0F883040F4C77081E001C0880FE5
:10321000CA95EAF70E942806DF91CF911F910F917E
:1032200008951091300214133CC080912E029091A9
:103230002F020E94B51B883C910598F5C0E2CD0F86
:103240001D1741F180E2810F883040F4177081E052
:1032500001C0880F1A95EAF70E942F06C83020F0A7
:10326000802F0E941F06D8CF91E08D2F877001C05C
:10327000990F8A95EAF7892F0E942806802F0E94CD
:103280001F06D77081E001C0880FDA95EAF70E9427
:103290002F06C2CF802F0E941F06C83008F0BCCF77
:1032A000F0CF80E28C0F883008F0B6CFC77081E095
:1032B00001C0880FCA95EAF7EACF0F93FC01CB0152
:1032C000E851FC47E730F10590F5E35CFF4D0C94C5
:1032D000431F06E221EE41EE6AE17CE70E94EE1810
:1032E00080E00F91089507E225EE45EE6BE17CE763
:1032F000F5CF06E221EE40EE68E17CE7EFCF07E292
:1033000025EE44EE69E17CE7E9CF06E221EE42EEEC
:103310006CE17CE7E3CF07E225EE46EE6DE17CE76A
:10332000DDCF08E221E045EE6EE17CE7D7CFFB017F
:10333000858181111092300281E0D3CF90933602C3
:10334000809335020895E0913502F091360230976E
:1033500029F00190F081E02D0995089580E008950D
:10336000E0913502F0913602309721F00280F3812E
:10337000E02D09950895DC01E0913502F0913602C7
:10338000309739F086E08C930480F581E02DCD01F3
:1033900009950895DC01E0913502F09136023097ED
:1033A00039F082E08C930680F781E02DCD010995FC
:1033B0000895A3E0B0E0EFEDF9E10C94591F9C01F2
:1033C000809133029091340282179307A1F03093D9
:1033D000340220933302E0913502F09136023097A7
:1033E00051F083E089833B832A830084F185E02DBB
:1033F000CE01019609952396E2E00C94751FA3E097
:10340000B0E0E5E0FAE10C94591F9C018091310293
:103410009091320282179307A1F0309332022093E9
:103420003102E0913502F0913602309751F084E09C
:1034300089833B832A830084F185E02DCE010196A8
:1034400009952396E2E00C94751F2091620030915B
:1034500063002E5F3F4F809176008823A9F0809112
:10346000470287FF11C020916000309161002E5FFC
:103470003F4F9DE180E0F90140812F5F3F4F4111B7
:103480008F5F9150C0F7089595E0F4CF882321F124
:1034900090917600992311F19091470297FF1EC0F9
:1034A000982F969596959695803FB0F4E0916000A0
:1034B000F0916100E90FF11D228130E0877041E059
:1034C00050E0BA0102C0660F771F8A95E2F7262303
:1034D000372381E0232B91F480E00895209162004E
:1034E00030916300F9013296285F3F4F9191981710
:1034F00021F0E217F307D1F7EFCF81E008959C01A7
:10350000FC0132968FEF90E04191461751F08F3FCA
:1035100019F4411101C0892F9F5F9630A9F78F3FA1
:1035200009F40895280F311D87FD3A95F90162834A
:1035300008959C01FC013296285F3F4F81918613CC
:1035400003C0DF0111971C92E217F307B9F7089542
:10355000FC01862F869586958695603F60F4E80F7E
:10356000F11D677021E030E001C0220F6A95EAF793
:103570008281822B82830895FC01862F8695869511
:103580008695603F80F4E80FF11D677081E090E060
:103590009C0102C0220F331F6A95E2F7B9016095C2
:1035A0008281682362830895682F80917600882342
:1035B00059F08091470287FF07C080916000909189
:1035C00061000E94A81A08958091620090916300A2
:1035D0000E947F1A0895682F80917600882359F001
:1035E0008091470287FF07C0809160009091610041
:1035F0000E94BC1A089580916200909163000E941D
:10360000991A089580917600882379F08091470275
:1036100087FF0BC0E0916000F091610032968EE16F
:10362000DF011D928A95E9F70895E0916200F0911B
:103630006300329686E0F4CFDC01FB0111969C9189
:1036400011978181981322C012968C91129788232A
:1036500019F0928189131AC013968C9113978823BD
:1036600019F09381891312C015968C9115978823B0
:1036700019F0958189130AC014969C91992321F021
:1036800081E02481291303C080E001C081E08170C2
:103690000895089508950E944A1B08950895089575
:1036A0000E94491B0895A5E0B0E0E9E5FBE10C9418
:1036B000591F0E944E1B0E9427130E944F1B1D8200
:1036C0008D810E943512672B682B692B51F48D81F7
:1036D0008F5F8D838630A1F780E02596E2E00C9421
:1036E000751F81E0FACF84B7806884BF84B7806893
:1036F00084BF08958091390281110E9400050895C8
:103700000E9488080E94050508958BE083BF8BEB1B
:103710008CBF82E089BF08952FB7F8948091790219
:1037200090917A02A0917B02B0917C022FBF089504
:10373000A4E0B0E0EEE9FBE10C94591F8FB7F894D8
:103740002091790230917A0240917B0250917C0263
:1037500029833A834B835C838FBF69817A818B8114
:103760009C812496E2E00C94751F9C014FB7F8945D
:103770008091790290917A02A0917B02B0917C02B3
:103780004FBF821B930B089578941F921FB61F9210
:1037900011248F939F93AF93BF938091790290915F
:1037A0007A02A0917B02B0917C020196A11DB11D0D
:1037B0008093790290937A02A0937B02B0937C026B
:1037C000BF91AF919F918F911F901FBE1F90189531
:1037D00088E198E00FB6F894A89581BD0FBE91BD21
:1037E000A895F894D8E0CEE528E3299320E0299322
:1037F00014BEFFCF089588E198E00FB6F894A8951D
:1038000081BD0FBE91BDFFCF8091A402882369F0D6
:103810001092A4020E948C1B90933802809337026E
:1038200010923902809139020895809139028111F4
:10383000F9CF80913702909138020E94B51B06970C
:1038400088F381E080933902EDCF0E948C1B909326
:1038500038028093370208950E94141F8B9A8FEFCD
:10386000A895E7EBFBE03197F1F700C0000081502D
:103870008111F6CF8B98789408950E94181D0E94AC
:103880009E192FEB84ED91E0215080409040E1F7AC
:1038900000C0000008950E94041C81112BC00E94EA
:1038A000171E8091AA02882329F08091880284FD46
:1038B0000E94620F08950E947A1B0E94531B882366
:1038C000C9F0F89491B3939A892F8C6081BB82B32D
:1038D0002CE0822782BB3FE54AEE80E03150404039
:1038E0008040E1F700C0000082B3822782BB91BB19
:1038F000939878940E94041C8111DDCF0E94801B54
:10390000CECF8091460208950F931F93CF93DF93FC
:10391000162F072FD42FC5E0813039F1833081F085
:10392000DF91CF911F910F9108950E94171E87E993
:103930009AE30197F1F700C00000C150CC2381F356
:103940008091C10284FFF1CF6D2F812F902F0E94B3
:10395000121EE6CF0E94171E87E99AE30197F1F73E
:1039600000C00000C150CC23D9F28091880284FFAE
:10397000F1CF6D2F812F902F0E940D1ED1CFA0E08F
:10398000B0E0E5ECFCE10C94531FF82E8B01EA014A
:103990006A0183E0D694C7948A95E1F7E12C8E2DD5
:1039A00090E08C159D0570F0C770CC2331F04C2F42
:1039B00050E0B8018F2D0E94841CCDB7DEB7E8E03F
:1039C0000C946F1F48E050E0B8018F2D0E94841CBA
:1039D000085F1F4FE394E3CFBC0143E050E083E076
:1039E0000E94BF1C0895BC0146E050E083E00E94A5
:1039F000BF1C0895BC0140E250E083E00E94BF1C60
:103A00000895CF93DF93D82FC92F48E050E0682F57
:103A1000792F81E00E94BF1C88E0ED2FFC2FADE3E1
:103A2000B2E001900D928A95E1F7DF91CF91089570
:103A30008CE690E00895FC0180818076803251F41C
:103A40008181893061F140F48230F1F0833021F1DD
:103A5000813071F080E008958A30A9F18B30D1F780
:103A600084819581892BB1F7828180937600F2CF92
:103A700084819581892B71F78DE392E09093A60262
:103A80008093A50288E0089585E492E09093A602D1
:103A90008093A50281E0089586E790E0F7CF8281C8
:103AA00093818115924069F484819581892B49F431
:103AB00081E080933C028681978190933B028093C2
:103AC0003A028FEF0895838180934502C3CFFC01B2
:103AD00080913A0290913B02892B61F080913C02E7
:103AE000813041F490819093460210923B021092F3
:103AF0003A0208958FEF08950895FC018381833081
:103B000059F130F48130C1F08230F1F080E0089555
:103B1000813209F440C08232C9F7848195810097CF
:103B200009F44BC0019791F785EB93E09093A602BF
:103B30008093A50286EB08958BE693E09093A6020E
:103B40008093A50282E1089580E393E09093A6021A
:103B50008093A5028BE308958281813061F08230E9
:103B600091F08111D3CF81EB93E09093A6028093E3
:103B7000A50284E0089583E993E09093A6028093E0
:103B8000A5028CE108958DE793E09093A6028093BF
:103B9000A50284E1089584819581009731F0019711
:103BA00009F0B4CF8BE593E002C082E493E09093F8
:103BB000A6028093A50289E008958BE694E0909395
:103BC000A6028093A50284E408951F93CF93DF9308
:103BD000782F162FEA01888184FF1CC0898128E88C
:103BE00082278983FE013296272F392FCF01710F4B
:103BF000D9012F5F3F4F4C914193472F421B141621
:103C0000BCF3612F0E948C021C5F1883DF91CF915F
:103C10001F9108958AE58883E5CF48E852E00E9425
:103C2000E51D089541EC52E00E94E51D0895CF93F3
:103C3000DF936091A702635067FD12C08091A302D9
:103C4000CCE0D0E0C81BD109C555DD4F8091A20260
:103C5000803108F059C0CE010E947C1D1092A7024D
:103C60008091780084FF41C0809177008F3F09F4F4
:103C70003CC0C82F893008F0C8E0982F9C1B909357
:103C8000770090917D0228E8922790937D02882307
:103C9000F1F08091A5029091A6022091A10226FF49
:103CA000B6C0FC012C2F4EE752E03491DA013C9370
:103CB0004F5F5F4F319621502111F7CF01962FEFC3
:103CC0002C0F820F911D9093A6028093A5026C2F5A
:103CD0008EE792E00E948C0284E08C0FC83019F0CD
:103CE0009FEF909377008093780084E190B39C706D
:103CF000911107C081508111F9CF1092A802109242
:103D0000A002DF91CF9108958D3209F06DC0683027
:103D100009F0A4CF83EC80937D028AE5809378003C
:103D20001092A10288818076882371F0CE010E94D2
:103D30001B1D8F3FB9F5988197FD8E8190E8909378
:103D4000A102809377008ACF2A81109286029981FE
:103D500091110AC01092870226E832E082E0309387
:103D6000A6022093A5021EC0953029F42093A80234
:103D700026E832E0F4CF9630E9F49B81913039F4B3
:103D8000CE010E947D1D90E49093A102D2CF92308B
:103D9000B9F39330A9F3913299F3923289F390E415
:103DA0009093A1029F819111CCCF9E81981748F6E4
:103DB000892FC7CF983089F0993019F42093AA023F
:103DC000D7CF9A3071F09B3099F69BE4909389029B
:103DD0009093C20290939502CBCF2AEA32E081E021
:103DE000BECF26E832E0FBCF8091A10287FF36CF1D
:103DF000CE010E94671D8F3F21F48EE180937800F1
:103E00002DCF882309F42ACF1092770027CFDC0129
:103E10002C2F4EE752E0FA013D9130834F5F5F4F08
:103E200021502111F8CF4ACFCF93DF9385B7886017
:103E300085BF8BB780688BBFC8E8D2E08BE48983ED
:103E4000A1ECB2E011968C931197E4E9F2E0818342
:103E50008AE588838C938083DF91CF91089597FBC7
:103E6000072E16F4009407D077FD09D00E94801F1A
:103E700007FC05D03EF4909581959F4F089570956D
:103E800061957F4F0895EE0FFF1F0590F491E02D8F
:103E900009942F923F924F925F926F927F928F92EE
:103EA0009F92AF92BF92CF92DF92EF92FF920F93C9
:103EB0001F93CF93DF93CDB7DEB7CA1BDB0B0FB6D3
:103EC000F894DEBF0FBECDBF09942A883988488890
:103ED0005F846E847D848C849B84AA84B984C88426
:103EE000DF80EE80FD800C811B81AA81B981CE0F1D
:103EF000D11D0FB6F894DEBF0FBECDBFED01089502
:103F0000AA1BBB1B51E107C0AA1FBB1FA617B707FF
:103F100010F0A61BB70B881F991F5A95A9F780951B
:103F20009095BC01CD010895FB01DC0104C08D9189
:103F30000190801921F441505040C8F7881B990B1B
:103F40000895FB01DC0102C001900D9241505040E8
:103F5000D8F70895E199FECF9FBB8EBBE09A9927D1
:103F60008DB30895A8E1B0E042E050E00C94ED1F5D
:103F7000DC01A40FB51F4150504048F0CB01840F25
:103F8000951F2E910E94C91F41505040D0F70895AF
:103F9000262FE199FECF9FBB8EBBE09A01970DB211
:103FA000021631F02DBB0FB6F894E29AE19A0FBEDB
:103FB00008950396272F0E94C91F0E94C81F252F0E
:103FC0000E94C91F242F0C94C91F0196272F0E94FD
:103FD000C91F0C94C81FDC01CB01FC01E199FECF85
:103FE00006C0FFBBEEBBE09A31960DB20D92415078
:103FF0005040B8F70895F894FFCF74067406BB06D6
:10400000BB0620073D07A306A3064207B907CA0758
:10401000CA07D4154816DC15A615AA15E015AE1565
:10402000E415F015BA154116BE15F415C215F815AC
:104030002016C615FC152716CC1502160A16B21541
:10404000E815B615EC15D0150616161630163F16DF
:10405000A015D8154F160E17111717172C172C1758
:104060002C172C172C172C172C172C171A171F1757
:10407000231729173A174017441779197F19691917
:08408000731985198B199119C0
:10408800C001E001280850011E0A1401811C011D0D
:10409800FA1CF31CEC1C01FF5AE200E900EA00B527
:1040A80000B600B700CD008301CC008A01920194CC
:1040B800012102230224022502260227022A02B332
:1040C80000B4006F0070009F01CB019F02A002E2C4
:1040D80000E900EA00B500B600B700CD008301CCC6
:1040E800008A01920194012102230224022502265A
:1040F8000227022A02B300B4006F0070009F01CBB0
:10410800019F02A0029091929394959697606162A4
:104118006364000105063130073234363335370021
:10412800FF0100010000FFFF0000010001FF000087
:00000001FF
