:100000000C94CD020C94EA020C9405030C94EA02C1
:100010000C94EA020C94EA020C94EA020C94EA02B0
:100020000C94EA020C94EA020C94B2210C94EA02B9
:100030000C94EA020C94EA020C94EA020C94EA0290
:100040000C94EA020C94EA020C94EA020C94EA0280
:100050000C94EA02AA00A9000100010001000100BD
:10006000290000003A003B003C003D003E003F00FC
:100070004000410042004300440045004600470064
:100080004800A8005600560035001E001F00200042
:1000900021002200230024002500260027002D0037
:1000A0002E002A0049004A004B005300540055001E
:1000B0002B0014001A000800150017001C0018007F
:1000C0000C00120013002F00300031004C004D00D6
:1000D0004E005F0060006100390004001600070058
:1000E00009000A000B000D000E000F003300340061
:1000F000640028006400000057005C005D005E00A2
:10010000E10064001D001B0006001900050011003D
:100110001000360037003800E50021520000520080
:10012000580059005A005B00E000E300E2000000C4
:100130002C0000002C0000002C000000E6002152E2
:100140006500E400500051004F00620000006300B1
:100150000100000001000100010001000100010098
:100160000100010001000100010001000100010087
:100170000100010001000100010001000100010077
:100180000100010001000100010001000100010067
:100190000100010001000100010001000100010057
:1001A0000100010001000100010001000100010047
:1001B0000100010001000100010001000100010037
:1001C0000100010001000100010001000100010027
:1001D0000100010001000100010001000100010017
:1001E0000100010001000000010001000100010008
:1001F00001000100010001000100010001000100F7
:1002000001000100010001000100010000000100E7
:1002100001000100010001000100010001000000D7
:1002200001000000010000000100000001000100C9
:1002300001000100010001000100010001000100B6
:1002400001000000010001000100010001000100A7
:100250000100010001000100010001000100010096
:100260000100010001000100010001000100010086
:100270000100010001000100010001000100010076
:100280000100010001000100010001000100010066
:100290000100010001000100010001000100010056
:1002A0000100010001000100010001000100010046
:1002B0000100010001000100010001000100010036
:1002C0000100010001000100010001000100010026
:1002D0000100010001000000010001000100010017
:1002E0000100010001000100010001000100010006
:1002F00001000100010001000100010000000100F7
:1003000001000100010001000100010001000000E6
:1003100001000000010000000100000001000100D8
:1003200001000100010001000100010001000100C5
:1003300000000000000000002A2B28000000000040
:100340000000000000000000000000290000000084
:100350002C1E3420212224342627252E362D3738F2
:10036000271E1F202122232425263333362E3738FB
:100370001F0405060708090A0B0C0D0E0F101112B9
:10038000131415161718191A1B1C1D2F3130232D85
:10039000350405060708090A0B0C0D0E0F10111283
:1003A000131415161718191A1B1C1D2F3130354C34
:1003B000000000000000000000000000000000003D
:1003C000000000000000000000000000000000002D
:1003D000000000007E0F00D4FFFFFFC70000007880
:1003E00009025B00030100A0FA09040000010301F7
:1003F00001000921010100012244000705810308D1
:1004000000010904010002030000000921010100AC
:1004100001222200070584030800010705040308E0
:10042000000109040200010300000009210101008C
:100430000122B60007058303080001120110010024
:100440000000084243010000010102000122036D87
:100450000079007300740065007200690075006D1A
:10046000005F003100300034006B0065007900004F
:10047000000603430046000000040309040660FF71
:100480000961A1010962150026FF00952075088108
:10049000020963150026FF00952075089102C0052A
:1004A000010906A1018506050719E029E7150025C0
:1004B000019508750181020507190029EF1500252E
:1004C0000195F07501810205081901290595057549
:1004D000019102950175039103C005010902A10173
:1004E00085020901A1000509190129081500250146
:1004F0009508750181020501093009311581257FB3
:1005000095027508810609381581257F95017508C2
:100510008106050C0A38021581257F950175088131
:1005200006C0C005010980A101850319012AB70091
:10053000150126B700950175108100C0050C090151
:10054000A101850419012AA002150126A002950126
:1005500075108100C005010906A101050719E029F0
:10056000E71500250195087501810295017508813F
:10057000030507190029FF150026FF0095067508D9
:10058000810005081901290515002501950575014A
:100590009102950175039103C00011241FBECFE5A0
:1005A000D8E0DEBFCDBF11E0A0E6B0E0E8E6FDE4B4
:1005B00002C005900D92A231B107D9F722E0A2E165
:1005C000B1E001C01D92AE3DB207E1F70E941E14DA
:1005D0000C9456260C940000A82FB92F80E090E0D0
:1005E00041E050EA609530E009C02D91822797954F
:1005F000879510F084279527305EC8F36F5FA8F3C6
:100600000895EADF8D939D930895CF93CFB7CF934D
:10061000C395839BE9F7839B0EC0839B0CC0839B90
:100620000AC0839B08C0839B06C0C091B502C395D6
:10063000C093B502A6C0DF93C091B402DD27C454B5
:10064000DD4F839B02C0DF91E6CF2F930F931F9363
:1006500000B32FEF03FB20F94F933F9310B34FEFFD
:10066000012703FB21F93BE031C04E7F012F10B37E
:10067000216028C0102F4D7F2260000000B329C0E8
:100680004B7F2460012F000010B32BC010B3477FB5
:1006900028602AC04F7E00B320612CC04F7D10B36C
:1006A00020622FC04F7B00B3206432C0422700B3CA
:1006B00049934FEF0000102713FB20F910B31C7073
:1006C000C9F1297F91F2012703FB21F900B3237FB0
:1006D00089F2315058F1102713FB22F910B3277E0D
:1006E00079F2012703FB23F92F7C81F200B3102755
:1006F00013FB24F92F7971F200C010B3012703FB1B
:1007000025F92F7359F200C000B3102713FB26F907
:10071000223040F200C010B3012703FB27F9243038
:1007200028F64F77206810B30000F9CF10E81ABF01
:1007300000271CC03B503195C31BD04010E81ABFA6
:100740000881033C11F10B3401F12091B1021981B0
:10075000110F1213EDCF4A81441F093669F10D3292
:1007600011F0013E29F74F7009F0042F0093BA02EF
:100770003F914F911F910F912F91DF91CAB7C7FD04
:1007800047CFCF91CFBFCF9118952091BA022223A6
:1007900079F31091B802112309F044C034300AF4FF
:1007A00043C03093B8022093B3021091B4023BE0EF
:1007B000311B3093B40238C00091B802013094F577
:1007C0000AE54F7049F430917B0034FD2FC000934F
:1007D0007B00CEE8D2E02EC0433059F0443091F097
:1007E0003091990234FD22C000939902CAE9D2E007
:1007F00021C03091D20234FD19C00093D202C3ED62
:10080000D2E018C03091A50234FD10C00093A502BB
:10081000C6EAD2E00FC02795A8F45150A9F4220FE0
:100820000000F9CF4AE503C042ED01C0432FC4E107
:10083000D0E032E011B31C60939A11BB02B320E404
:100840001CE05F93012756E002BB279520F451502E
:1008500021F4220FF9CF012756E000003B5A02BBDA
:10086000D0F2279528F4515029F4220F0000F9CF37
:10087000012756E0279502BB20F4515021F4220FA6
:10088000F9CF012756E02991332302BB21F6037FDC
:100890001091B902110FC651D04002BB11F0109354
:1008A000B10210E81ABF086011B3137F402F437FD5
:1008B0005F9100C000C002BB11BB42BB59CF833067
:1008C000B8F46630A8F4443198F4E42FF0E094E1F1
:1008D000699FE00DF11D112498E7899FE00DF11D3E
:1008E0001124EE0FFF1FE05AFF4F85919491089558
:1008F00081E090E00895833088F461110FC0E82F03
:10090000F0E0EE0FFF1F81E04827E40FF11DEE0F2E
:10091000FF1FEC5AFF4F85919491089581E090E07C
:10092000089581E008950E949104089581E008955A
:100930000E94910408950E949804089508950E94C9
:100940009E040895A6E0B0E0E8EAF4E00C94B32534
:1009500049835A839E833091190189819A8131118B
:100960001AC03E81332399F0222389F00E94390A6C
:10097000182F682F89819A810E94060A69817A81DD
:10098000812F0E948A112696E3E00C94CF250E94C5
:10099000200A182FF3CF0E94390A69817A81F1CF9A
:1009A000FC01262F40815181628173818481958170
:1009B0000E94A2040895CF93DF93D82FC92F61E03E
:1009C0000E94D0046D2F7C2F0E949304DF91CF9161
:1009D0000895CF93DF93D82FC92F60E00E94D004F1
:1009E0006D2F7C2F0E949F04DF91CF91089581E0AD
:1009F00008950E94F7040895CF93C82F0E94FA0823
:100A00008C2F0E94F9042FEB87E299E0215080405F
:100A10009040E1F700C00000CF91089581E00E946E
:100A2000FC040E94D621089580E00E94FC040E94EC
:100A3000E92108950F931F93CF93DF938C0161E019
:100A40000E94D004EC01B8010E94091E882309F419
:100A500042C0B801CE010E949B048823E1F1B80195
:100A6000CE010E94E41C8823B1F1B801CE010E949E
:100A7000F417882381F1B801CE010E94C917882399
:100A800051F1B801CE010E94251D882321F1F80102
:100A90008581882381F0CA35FCE7DF0739F178F4D6
:100AA000C130ECE7DE07F9F0C330FCE7DF07C9F03F
:100AB000C115DC4771F0C8010E9496040DC0CB350A
:100AC000ECE7DE07B1F0CC35DC47A9F70E94790EE0
:100AD000F2CF0E940E0580E0DF91CF911F910F9120
:100AE00008950E948B0E0E941405F5CF0E94830E7C
:100AF000E2CF0E94870EDFCF0E9439210E94A3051A
:100B000008950E94A7050E943E210895089581E05E
:100B100008950895CF93DF93D82F0E948705C82F9B
:100B2000882319F08D2F0E9489058C2FDF91CF919A
:100B300008950895CF93C82F0E9486058C2F0E9498
:100B40008A05CF91089580E00E949A0508950E9439
:100B5000911F0E949A050895CF930E94911FC82F5C
:100B6000809114018C1779F0C09314010E948621A2
:100B700060931501709316018093170190931801EB
:100B80008C2F0E949A05CF910895ADE0B0E0EBEC78
:100B9000F5E00C94B425488759876A877B878C8752
:100BA0009D8791110E94960D1F8286E0FE01389666
:100BB000DE01119601900D928A95E1F78D818111E8
:100BC0000DC029813A814B815C816D817E818F814D
:100BD0000E94DC0C2D96E2E00C94D025CE0101960B
:100BE0000E94DB048111EDCFF5CFFC0184818130BF
:100BF00021F4808191810E94620A0895662329F080
:100C00000E9462190E94381A08950E94C019FACFF2
:100C1000CF93C82F882399F08CEF8C0F813A88F4FA
:100C20008C2F0E943420882329F08C2F0E94D920F9
:100C30000E941C0E8C2F0E94C2200E941C0ECF917D
:100C4000089580E28C0F883048F4C77081E001C0BD
:100C5000880FCA95EAF70E94770DEFCF8BE58C0FCE
:100C6000833038F42C2F2452330BC9010E94C71F44
:100C7000E6CFE8E5EC0FEB3150F4F0E0EE0FFF1FAC
:100C8000E458FF4F808191810E94ED1FD8CF83E30C
:100C90008C0F8331A0F661E08C2F0E94FE05CFCF30
:100CA000882381F19CEF980F913A28F40E94D92073
:100CB0000E941C0E089590E2980F983050F48770AF
:100CC00091E001C0990F8A95EAF7892F0E947D0D66
:100CD000EFCF9BE5980F933028F480E090E00E94DE
:100CE000C71F089598E5980F9B3128F480E090E0A5
:100CF0000E94ED1F089593E3980F933118F460E07C
:100D00000E94FE0508951F93CF93DF93182FEB01E8
:100D10000E940806209739F4812F0E945006DF9127
:100D2000CF911F91089587EB9BE00197F1F700C0E9
:100D300000002197EFCF60E070E0893311F460E5A7
:100D400070E00E9483060895882321F00E94770DA9
:100D50000E941C0E0895882321F00E947D0D0E94A0
:100D60001C0E0895A0E0B0E0E8EBF6E00C94AE2590
:100D70006C01D62FC72FFC011581068102950F70DB
:100D80000E946C0DE82E8823F9F0E12E1123E1F08A
:100D90008C2F807F803461F080E28D0F8830F0F0FE
:100DA0008C2F807E803221F4D230C0F00023B1F04D
:100DB0008091590282FF12C082E00E944C0E0E9474
:100DC0006C0D91E0E82EE926EC2FE295EF70C03C27
:100DD000B0F5F0E0E85AF94D0C949725E12CF4CFEA
:100DE0000C2F0F70C03110F00295007F112399F085
:100DF000002359F080E28D0F883010F0D11107C028
:100E0000802F0E94770D0E941C0E8D2F51C0802FC5
:100E10000E94880DF8CF8D2F0E945006002379F094
:100E200080E28D0F883010F0D11104C0802F0E9415
:100E30007D0D03C0802F0E948E0D0E941C0EEE209F
:100E400089F00E94680D80FD0DC0F60115820E9498
:100E5000620D0E947409C6010E94C1080E94620DC1
:100E60000E948009CDB7DEB7E8E00C94CA25FC2FBC
:100E7000FF70FF2EC07FC03219F0F29480EFF8228D
:100E8000DD2341F0D130D1F1112309F444C0002316
:100E9000F1F0BBCF8091590282FD15C0112359F0AA
:100EA000FF2029F08F2D0E94770D0E941C0E80E0FC
:100EB0000E940806C4CF80E00E945006FF2009F47B
:100EC000BECF8F2DB4CF112369F0011104C08F2D37
:100ED0000E94A406B4CF013009F0B1CF8F2D0E943B
:100EE000AE0DADCF0111ABCF8F2D0E94AB068F2D74
:100EF0000E94BA0D8F2D0E949D0DA1CF112321F0CC
:100F0000063008F09CCFE3CF053008F098CF8F2D46
:100F10000E94AB0694CF0023D1F3D93349F42FEFCD
:100F20008DEE92E0215080409040E1F700C000003B
:100F30008D2F0E94500683CF8C2F869586958370C7
:100F4000882369F0813009F07ACF8D2F9C2F937020
:100F5000111102C080E090E00E94ED1F70CF8D2F34
:100F60009C2F9370111102C080E090E00E94C71F77
:100F700066CF612F8D2F0E94FE0561CF8C2F83706D
:100F8000811134C0111124C04D2F429546954770F0
:100F9000440F440F8D2F8F70042E01C0880F0A94C8
:100FA000EAF7D071DD2341F02FE030E001C0220FDD
:100FB0004A95EAF7D22FD095C695C695C3708D2B6A
:100FC000C23071F0C33079F0C13039F00E9450095D
:100FD0000E94911F0E949A0532CF0E944A09F8CFC1
:100FE0000E945609F5CF0E944709F2CF112339F12B
:100FF000C0FFEECF4D2F429546954770440F440FEA
:101000008D2F8F70042E01C0880F0A94EAF7D071DB
:10101000DD2341F02FE030E001C0220F4A95EAF7CE
:10102000D22FD095C695C695C3708D2BC23069F06E
:10103000C33071F0C13031F00E94A209C9CF8230B3
:1010400038F2D8CF0E949C09C3CF0E94A809C0CF14
:101050000E946209BDCFCF70112339F08C2F0E94FE
:1010600074098D2F0E94A406B3CF8D2F0E94AB066A
:101070008C2F0E948009ACCFD23F31F170F4D03F69
:10108000B9F0D13FB1F1112309F451C0002309F4A3
:101090004BC08D2F0E9408069BCFD33FE1F0D43F79
:1010A00021F11111F3CF011150C08C2F8F71E1CFBD
:1010B000112341F0053008F08BCF8C2F8F710E94E7
:1010C000900986CF0530F7CF8C2F8F711111D1CFBA
:1010D0000E9474097DCF112329F08C2F8F710E94FB
:1010E0006B0976CF0E94670973CF8091590282FD08
:1010F00006C08C2F8F71112309F4BBCFE9CF1123C8
:1011000049F0CF718C2F0E94740963E08C2F0E94EC
:101110002E0E5ECF81E00E944C0E023008F458CFB4
:1011200082E00E944C0E54CF8C2F8F71D1CF0023C0
:1011300009F4BBCFD93349F4EFEFFDEE22E0E150E3
:10114000F0402040E1F700C000008D2F0E945006C3
:101150003FCF0F931F93CF93DF93EC016881798189
:101160008D810E946F0A8C010E94AE090E9446097F
:10117000B801CE010E94B206DF91CF911F910F916D
:101180000895CF93DF93EC018C81882399F0CE01F1
:101190000E941A05811111C00E946C0D882351F024
:1011A0008D81882339F08091590282FF03C082E04B
:1011B0000E944C0EDF91CF910895CE010E94A908A4
:1011C000CE010E94E904F6CF80E090E00E94C71FA4
:1011D00080E090E00E94ED1F0E94960D0E941C0E80
:1011E0000E94551A0E94381A08950E94F0200E9409
:1011F000E40808950E94850D0E94F5080895282F9F
:1012000092959F70963091F060F4925F9F7092304B
:1012100030F481E0203F79F030F4283E30F080E077
:1012200008959A5FF3CF243FD1F7089581E0283ED7
:10123000E0F3213FF9CF0895FC018481882339F040
:10124000808191810E94620A0E94FF08089580E0D7
:101250000895A6E0B0E0EFE2F9E00C94B4252696FC
:10126000E2E00C94D025A7E0B0E0E9E3F9E00C94CB
:10127000B4252796E2E00C94D02508950E943D09FC
:1012800008950E943E0980934B01089508950E949D
:101290004109089590914B01892B0E9441090895BD
:1012A00090914B0189230E944109089590914B012F
:1012B00089270E94410908950E943D0908950E94CE
:1012C0005C0908950E945F0980934A01089580E0B7
:1012D0000E946209089591E001C0990F8A95EAF78A
:1012E000892F0E946209089521E030E001C0220F99
:1012F0008A95EAF780914A01822B0E94620908953B
:1013000021E030E0A90102C0440F551F8A95E2F7A1
:10131000CA01809590914A0189230E94620908952B
:1013200021E030E001C0220F8A95EAF780914A015E
:1013300082270E946209089590914A01892B0E9498
:101340006209089590914A0189230E9462090895D3
:1013500090914A0189270E946209089508959B018E
:10136000677091E001C0990F6A95EAF763E03695DE
:1013700027956A95E1F7B901660F771F260F371F8A
:10138000FA01E20FF31F40E050E0682F70E0819116
:10139000DF0111979B01042E02C0369527950A9410
:1013A000E2F7217021952827292328272C934F5FC6
:1013B0005F4F4330510559F708959C01A82FA7703E
:1013C00083E0369527958A95E1F7C901880F991F23
:1013D000820F931FFB01E80FF91F40E050E080E00F
:1013E000219130E00A2E02C0369527950A94E2F743
:1013F00021703327042E01C0220F0A94EAF7822BB2
:101400004F5F5F4F4330510559F70895282F862FBE
:10141000963070F4243158F4622F70E024E1929FEA
:10142000600D711D11244DE151E00E94AF09089536
:101430009C5F9230E0F7622F70E04AE151E0F5CF17
:10144000292F963068F4843190F490E06DE171E0DA
:1014500034E1239F800D911D11240E94DD09089520
:101460002C5F223020F46AE171E090E0F6CF80E05A
:101470000895A0E0B0E0EFE3FAE00C94AF257C0122
:1014800000914A0180914B01082BC2E0D0E010E0AE
:10149000C8010C2E02C0959587950A94E2F780FD4D
:1014A00009C02197A8F7D12C8D2DCDB7DEB7E7E085
:1014B0000C94CB25DC2EB7018C2F0E94A311019731
:1014C00081F3F2CFCF93DF93D82FC92F0E94390A2F
:1014D0006D2F7C2F0E94A311DF91CF9108951F9350
:1014E000CF93DF93162FD72F90911901992341F0B5
:1014F000862F972F0E94620ADF91CF911F91089546
:10150000882381F0862F972F0E94390AC82F682FD1
:10151000812F9D2F0E94060A612F7D2F8C2F0E9404
:10152000A311EACF862F972F0E94200AC82FF4CF4D
:10153000E1E0F0E0DF0102C0AA0FBB1F6A95E2F70D
:10154000BD01DF0102C0AA0FBB1F4A95E2F76A2B5B
:1015500001C0EE0F2A95EAF7962F9823961302C042
:101560008E2B0895E0958E230895242F462F682F03
:1015700080914A010E94980A0E94620908950F937F
:101580001F93CF93E0914C01C7E080914D018E13E2
:1015900004C0CF911F910F9108950E2F10E0CE9FA0
:1015A000F0011124E25BFE4F2081318142815381A1
:1015B0006481758186810E943309F8013196E77054
:1015C000E4CF2091860130918701409188015091AC
:1015D000890160918A0170918B0180918C010E9438
:1015E0003309089580918C01803178F480918B01CA
:1015F000882359F0E0914C0120914D0130918701F1
:101600004091860157E02E1301C008956E2F70E0BF
:101610005E9FF0011124DF01A25BBE4F14968C91F6
:101620001497882361F111968C911197831327C029
:101630008C91841324C015968C91159781111FC02D
:1016400012968D919C91A0918801B09189018A1B7D
:101650009B0B883C910598F480918C018F70806180
:1016600080938C01EC5AFE4F80818F708061808363
:1016700086E891E00E94C1080E94BF0A0895FB011C
:101680003196E770C0CFE0914C0190914D0127E079
:10169000E91302C080E00895AE2FB0E02E9FF00164
:1016A0001124E25BFE4F3181361306C030813813BE
:1016B00003C03581341304C0FD013196E770E8CFD3
:1016C00081E008958F929F92AF92BF92DF92EF9246
:1016D000FF920F931F93CF93DF93CDB7DEB72D9774
:1016E0000FB6F894DEBF0FBECDBF8C0186E0F801C7
:1016F000DE01189601900D928A95E1F7F801E080DD
:10170000F580A280B380848196E8892E91E0992E9D
:1017100090918A0191111BC0882309F4FCC0FF201D
:1017200009F43DC1C8010E941C09882309F437C18E
:1017300087E0F801D40101900D928A95E1F7C40188
:101740000E94F5050E94F20A0E94E10AE4C0D090CE
:101750008B012091880130918901A501421B530B17
:10176000DD2009F4DBC0483C510508F0A6C0882301
:1017700009F4D1C090918701918080918C018031D2
:1017800008F06BC0991228C0909186019E1124C068
:10179000F1105DC08F70806180938C010E94E10A1E
:1017A00086E891E00E94C10880918C01F80186834F
:1017B000F12C8F2D2D960FB6F894DEBF0FBECDBF46
:1017C000DF91CF911F910F91FF90EF90DF90BF902D
:1017D000AF909F908F900895F11039C040E0692D2F
:1017E0008E2D0E94430B40E0692D8E2D0E94430BED
:1017F000F82E8111DDCF888599850E94620A292FF4
:1018000022952F70903450F49F70223080F09923ED
:1018100099F0F8019681903178F4CBCF2A5F2F7040
:10182000223078F0C8010E94C108FD2CC2CF992354
:1018300019F0882309F4BDCF805E883008F4B9CF51
:10184000F1CF803F08F4B5CF815F8230F7CF809130
:101850008C01816080938C01ABCF991207C090916D
:1018600086019E1103C0FF2009F479C0C8010E94BF
:101870001C09882309F493C0FF2009F490C08091CB
:101880008C01803288F020918601309187013A8363
:101890002983BC82AB8290918A019D831E828F83B3
:1018A000CE0101960E94C10887E0F801A6E8B1E0E8
:1018B00001900D928A95E1F745CF90918C0190317E
:1018C000A0F4488559856A857B858C859D850E9415
:1018D000290986E891E00E94C10887E0F40111928D
:1018E0008A95E9F70E94E10A63CF8823A1F020914D
:1018F000870181812813BACF809186018E11B6CFDE
:10190000F110B4CF9683C8010E94C10887E0F401AA
:1019100011928A95E9F7FF24F3944BCF483C510587
:1019200008F041C08823B9F3FF20C9F190918701E5
:10193000818198132AC0809186018E1126C08091E2
:101940008C0180FD19C08031B8F08683807F803F94
:1019500039F08681982F907F905F8F70892B8683D6
:10196000C8010E94C10887E0F801A6E8B1E0019033
:101970000D928A95E1F7E8CE87E0F801A6E8B1E09C
:1019800001900D928A95E1F7C6CFC8010E941C090B
:1019900081118ACF80918C01816080938C01C80174
:1019A0000E94C108B8CF488559856A857B858C859A
:1019B0009D850E94290991CFAEE0B0E0E2EEFCE007
:1019C0000C94B325288739874A875B876C877D8786
:1019D0008E87CE0108960E94620B8823B1F06C8539
:1019E000662341F0288539854A855B857D858E850E
:1019F0000E94330917E080914C0190914D018913A9
:101A00003EC02E96E3E00C94CF2587E0FE01389689
:101A1000DE01119601900D928A95E1F720914D011A
:101A200040914C018C85882329F330E0C90101964F
:101A30008770992750E08417950799F097E0929F57
:101A4000D001939FB00D1124A25BBE4FFE013196D1
:101A500001900D929A95E1F780934D010E94BF0A83
:101A6000C9CF0E94FA0810924D0110924C0187E0F4
:101A7000E6E8F1E0DF011D928A95E9F7BBCF189FF8
:101A8000C0011124825B9E4F0E94620B882309F4DF
:101A9000B8CFE0914C011E9FF0011124E25BFE4F94
:101AA00020813181428153816481758186810E94C8
:101AB000330980914C0190E00196877099278093BB
:101AC0004C0199CF8091AD018695869586950895B4
:101AD0008091AD01877008959091AD01977081E07C
:101AE000911101C080E008958091D90108959091ED
:101AF000D901982B9093D9010895982F90958091B2
:101B0000D90189238093D90108951092D9010895AC
:101B10009091D801982B9093D8010895982F909583
:101B20008091D80189238093D80108951092D8011B
:101B3000089508950E94990D08959091AE01292F5E
:101B40002823222331F0809589238093AE010E94BF
:101B50009A0D089508950E94AA0D08959091AF01DD
:101B6000292F2823281729F0982B9093AF010E9442
:101B7000AB0D08959091AF01292F2823222331F036
:101B8000809589238093AF010E94AB0D08958091C9
:101B9000AF01882329F01092AF0180E00E94AB0DC5
:101BA0000895CF93DF93C091D9018091D801C82BBC
:101BB000D091AF01DD2331F00E94132081110E94EA
:101BC000C70DCD2B8C2FDF91CF910895CF93DF934D
:101BD000C0916200D09163000E94D10D88838091F2
:101BE0006200909163000E949E1FDF91CF91089543
:101BF000CF93DF93C0916000D09161000E94D10D1E
:101C00008983C0916000D091610040E250E06DE8AE
:101C100071E0CE010E94EF25892B59F080E2FE0190
:101C2000ADE8B1E001900D928A95E1F7CE010E94F6
:101C3000A91FDF91CF91089580917900882339F011
:101C40008091580287FF03C00E94F80D08950E94FA
:101C5000E60D089508950E942A0E08959091590264
:101C600092FF11C098E0899F90011124622B60932C
:101C7000AD010E9474098091AD0186958695869587
:101C80000E942B0E08950E94740908951092AD01D0
:101C900080E00E942B0E08959091AD0180958923DC
:101CA0008093AD01282F277021110DC0891759F09D
:101CB0009091590292FF07C08695869586950E945D
:101CC00080090E94460E08959091590292FB2227A6
:101CD00020F9281769F080FB92F9909359028091BE
:101CE0005802909159020E94AD0E82E00E944C0E63
:101CF00008958091590282FB882780F991E0892715
:101D00000E94640E089581E00E94640E089580E0B0
:101D10000E94640E08956FEF7FEF80E090E00E94D4
:101D20004026089580E090E00E940D26863E9E4F5A
:101D300019F40E94601D089580E0089582E090E00B
:101D40000E940526089583E090E00E9405260895EC
:101D500084E090E00E940D260895BC0184E090E0AC
:101D60000E9440260895AB01BC018FE090E00E94E4
:101D700034260895AB01BC0183E190E00E94342633
:101D8000089560E070E0CB010E94BA0E089560E013
:101D900070E0CB010E94B30E0E94C10E0895A8E02E
:101DA000B0E0E5EDFEE00C94B42566EE7EEF80E059
:101DB00090E00E94402660E082E090E00E942326AE
:101DC00081E080934B0161E083E090E00E94232654
:101DD00060E074E184E090E00E94402660E086E0EC
:101DE00090E00E94232660E087E090E00E94232696
:101DF00040E050E0BA0188E090E00E94342660E0C4
:101E000084E290E00E94232660E087E190E00E9457
:101E1000232660E08CE090E00E94232660E08DE0C5
:101E200090E00E94232619821A821B821C821D8246
:101E30001E821F82188648E050E068E170E0CE0103
:101E400001960E94132640E050E0BA0180E290E043
:101E50000E94342680E00E94791D0E94EB1D0E94A2
:101E6000C70E2896E2E00C94D0250E94CF0E08956C
:101E7000682F8EE090E00E9423260895A6E0B0E04F
:101E8000E4E4FFE00C94B2250E947A218C01809159
:101E9000DA019091DB018017910779F019821A829B
:101EA0000E947A21BC0149815A8180E090E00E9421
:101EB000C5051093DB010093DA012696E4E00C944B
:101EC000CE250E9486216093FC017093FD018093D2
:101ED000FE019093FF016093F8017093F9018093E4
:101EE000FA019093FB0108950E9486216093FC0102
:101EF0007093FD018093FE019093FF016093F401C4
:101F00007093F5018093F6019093F7010895089579
:101F100008950E94870F089508950E948C0F0895D8
:101F20008BE992E10E942B140E94880F0E94890F76
:101F3000089581E008950E94990F08950E94990FD5
:101F40000895089508950E94A10F0E94A20F089578
:101F50000E94920E811102C00E94350F0E949E0EB7
:101F6000809300020E94A80E909359028093580219
:101F70000E94BE150E94A30E0E94470980914A014B
:101F80000E945F0908950E9473210E94FB1D0E9418
:101F900033140E9481130E94A80F0E9499050E9489
:101FA0008D0F0895A8E0B0E0E8EDFFE00C94A425C3
:101FB0000E949B0F81110FC00E943E0F0E949A1435
:101FC00081110E94740F0E94761A0E94AC05289617
:101FD000E2E10C94C0250E9497138CED91E0988764
:101FE0008F837C0110E0F7014190519061907190D6
:101FF0007F01812F0E94A512462F572FBC011F5F22
:10200000163009F467C0441655066606770659F37C
:102010008091000281FD0E94BB120E949E0F382E0B
:1020200010E022242394812F0E94A5126B017C01D1
:10203000EF81F8854190519061907190F887EF831E
:10204000C414D504E604F704F1F14C245D246E2495
:102050007F2400E0812C912C54018394D301C20190
:1020600088219921AA21BB21892B8A2B8B2BE9F06E
:102070003320D9F009831A830E947A219C838B83B1
:102080002D8221E0D701C60188219921AA21BB21F7
:10209000892B8A2B8B2B09F420E049815A816B8193
:1020A0007C818D81922F0E94C5050F5F880C991C41
:1020B000AA1CBB1C043191F6EF81F8853497C082CD
:1020C000D182E282F3821F5F163009F0ACCF0E940A
:1020D000610F74CF441655066606770609F098CF4F
:1020E0006BCF1F93CF93DF930E94A811EC01811552
:1020F00022E5920708F053C0811540E5940708F0E7
:10210000DDC0803E9105F8F48D3C910508F0AEC02D
:10211000883A910580F4853A910508F099C081309C
:10212000910521F00497813A910550F4CE01DF9199
:10213000CF911F910895885A91094B9708F48BC04D
:10214000C0E0D0E0F3CF811550E49507F8F4C11555
:1021500080E2D80708F0CBC0C83ED10538F3CE01E5
:102160009A9581159F4160F78D2F0E944C12182F70
:10217000CE0199270E94A811212F30E0322F22276B
:10218000E901CC27DF71C82BD92BD0CF99270E942A
:10219000A811CC27DF70C82BD92BD06AC7CF8038C5
:1021A00042E59407C8F5803652E5950708F067C008
:1021B000C03482E5D807B0F08C2F8695869587705D
:1021C00020E2829FC0011124C37021E030E0A90108
:1021D00002C0440F551FCA95E2F7EA01C82BD92B5C
:1021E000DC68A4CFC03252E5D50708F041C08C2F7F
:1021F0008695869520E2829FC0011124C37021E05C
:1022000030E0A90102C0440F551FCA95E2F7EA0168
:10221000C82BD92BDD688ACF803C52E5950760F446
:102220008F71C03AD24508F03FC090E0982F8827C0
:10223000EC01C46FD06A7ACF805C9245809708F039
:102240007FCFDC2FCC27CC27DF71C06FD06A6ECF59
:10225000A497D0646BCFC85AD0E0CC0FDD1FCE540A
:10226000DF4F0990D881C02DD46460CFD0655ECF98
:10227000CF71D0E0DC2FCC27C16FD06A57CF8695C5
:102280008695877020E2829FC0011124C37021E0EF
:1022900030E0A90102C0440F551FCA95E2F7EA01D8
:1022A000C82BD92BDA6842CF0E944C12C82FD0E03D
:1022B000DC2FCC27CC27DF71D06238CF8F710E9402
:1022C0004C1265E0D695C7956A95E1F7CF70D0E0DE
:1022D000DC2FCC27282F30E084FF05C054E0220FEC
:1022E000331F5A95E1F7C22BD32BD0691FCF8D2F07
:1022F0008F710E944C12182FCE0199270E94A811AD
:10230000212F30E0322F222722273F71282B392B13
:10231000E901D2CF462F672F763028F4443180F47C
:102320000E94E01608957D3F39F4411109C041E053
:1023300060E00E94EC1608957C3F11F44423C1F341
:1023400080E090E008950E948A110E947110089523
:10235000803E9105D1F1C8F48133910509F47FC025
:1023600048F48932910509F46FC08A32910509F465
:102370007DC0089589339105E1F082389105C9F057
:102380008533910509F45BC00895843E9105D1F130
:1023900048F4823E910531F1833E910541F181EE91
:1023A00090E00895863E9105C1F1873E9105E1F1E7
:1023B0000895209158022370211165C0209159027F
:1023C00023FF14C089E290E008952091580220FD77
:1023D00043C03091590230FF09C024FF4EC080E055
:1023E00090E008952091580222FDF7CF08952091A2
:1023F000580222FD45C03091590230FD44C024FFEF
:10240000F5CFEDCF2091590221FFF0CF80915802F6
:1024100084FDE5CF87EE90E008952091580223FFD8
:10242000E5CF24FDDCCFF6CF2091580223FD2EC04E
:102430003091590231FFE3CF84EE90E0089520916E
:10244000580225FFD3CFBECF2091580225FD21C0D1
:102450002091590223FFCACF89E390E0089520918B
:10246000580226FFC3CF8AE290E0089520915802D7
:1024700026FFBCCF81E390E0089583EE90E00895BD
:1024800082EE90E0089580EE90E0089586EE90E070
:10249000089585E390E0AACF9091580292FF10C072
:1024A00041E0282F2471243009F040E031E0282F4A
:1024B0002871283009F030E0431711F02CE0822712
:1024C00093FF10C041E0282F2471243109F040E02F
:1024D00031E0282F2871283109F030E0431711F03E
:1024E0002CE082273091590230FF10C051E0282F94
:1024F0002171213009F050E041E0282F2871283067
:1025000009F040E0541711F029E0822731FF10C094
:1025100041E0282F2171213109F040E031E0282FDE
:102520002871283109F030E0431711F029E08227A3
:1025300094FD877E089580E0089508950E949D127D
:10254000089508950E94A1120895A4E0B0E0EBEA76
:10255000F2E10C94B42594E0899FF0011124EE5827
:10256000FD4F80819181A281B381BC01CD01249670
:10257000E2E00C94D025089588E78A95F1F7089554
:1025800000C008950E94BC120895F894E82FE295C7
:10259000EF70F0E041A98F7021E030E0B90102C096
:1025A000660F771F8A95E2F7CB01962F90959423BB
:1025B00091AB92A9892B82AB789408950F931F93C6
:1025C000CF93DF93CCEFD0E089918F3F11F00E9441
:1025D000C51281E0C230D807B9F7C8EED0E00CEFE1
:1025E00010E089918F3F11F00E94C5120C171D0752
:1025F000C1F7DF91CF911F910F9108958F929F9214
:10260000AF92BF92DF92EF92FF920F931F93CF93FF
:10261000DF93EC01D62E062F10E0C80184509F4FA7
:102620007C01FC0120812F3F09F45FC0F894E22F68
:10263000E295EF70F0E031A92F7081E090E001C0E9
:10264000880F2A95EAF7932F982B91AB92A9809542
:10265000892382AB78940E94C012E8EEF0E041E05A
:1026600050E060E070E0812C912C540181918F3F0B
:1026700091F0A82FA295AF70A05DB0E02C9130E052
:102680008F7002C0359527958A95E2F72170DB019E
:10269000CA01222321F080E090E0A0E0B0E0882A87
:1026A000992AAA2ABB2A440F551F661F771F80E06C
:1026B000EC3FF807D9F6F70180818F3F11F00E94B7
:1026C000C51261E081149104A104B10409F460E031
:1026D0008D2D0E94C212000F111F000F111FC00F7D
:1026E000D11F88829982AA82BB82DF91CF911F91EC
:1026F0000F91FF90EF90DF90BF90AF909F908F90E1
:1027000008950E94DE1288E1E2E7F2E0DF01982FEF
:102710001D929A95E9F7EAE5F2E0DF011D928A95AC
:10272000E9F786E00E94D4130E949E120895A8E162
:10273000B0E0EDE9F3E10C94B125FE01319688E1BA
:10274000DF011D928A95E9F710E0FE2E0F2F612F11
:102750008F2D902F0E94FE121F5F1630C1F748E1A7
:1027600050E06F2D702F8AE592E00E94EF2521E066
:10277000892B81F420E046E062E772E08AE592E08E
:102780000E94D513182F0E94A212812F6896E5E0AF
:102790000C94CD2588E1EF2DF02FAAE5B2E0019051
:1027A0000D928A95E1F7E7CF0895A0E0B0E0EBED58
:1027B000F3E10C94AE25D82EE92EF62ED72F042F58
:1027C000C22F222379F081E0809303020E947A21B4
:1027D000909302028093010280E0CDB7DEB7E8E07B
:1027E0000C94CA25C0900302CC20B1F38091010261
:1027F000909102020E94A3210A9770F384E0089F3F
:1028000080011124A8016D2D7E2D8F2D9D2F0E94FA
:10281000EF25892B41F0A8016D2D7E2D8F2D9D2F49
:102820000E94FC25CC2D109203028C2FD6CF0E9443
:102830001A220E94C30F0E942B2208950E94612138
:102840000E9413220E94900F0E9417140E943922A6
:102850000E94A30FFBCF9093130180931201089560
:102860000E94990F0895E5E0F2E088E0DF011D92F3
:102870008A95E9F70E944A150895FC0123812150A9
:10288000330B23703327428150E081E02417350752
:1028900009F080E008950F931F93CF93DF93EC012D
:1028A000162F042F0E943D14811113C08A81FE014E
:1028B000E80FF11D00FB17F914838F5F83708A8383
:1028C00088818F5F888381E0DF91CF911F910F9185
:1028D000089580E0F9CFCF93DF93FC01EA01A38153
:1028E00082818A17B9F0AE0FBF2FB11D14968C915B
:1028F00087FB992790F98F77DB018C9398838381ED
:102900008F5F8370838381818F5F818381E0DF911B
:10291000CF91089580E0FBCF462F682F85E092E0AD
:102920000E944B140895AB01BC0185E092E00E9427
:102930006B140895AEE0B0E0E0EAF4E10C94B02549
:1029400080910402882351F01092040280910702C2
:102950008093080280910502809306020E948815E8
:102960000E943014182F882361F110E08CEFF82EAC
:102970009DEFE92E1CC01E858D851983882331F1BA
:10298000EA820E947A21BC0149815A8182E091E069
:102990000E94C5051F83E8860E947A21682F82E085
:1029A000792F4F81588590E00E94C505102FBE01F8
:1029B000635F7F4FCE010E960E949314082F811102
:1029C000DACF812F2E96E6E00C94CC25FA820E9475
:1029D0007A21BC0149815A8183E091E00E94C505BA
:1029E0001F83F8860E947A21682F83E0D9CF8BE27B
:1029F00091E00197F1F700C00000089527B36B59EB
:102A00006F7081E090E001C0880F6A95EAF7982F17
:102A10009095922397BB98B3892B88BB089586B372
:102A200090E06B596F7002C0959587956A95E2F7B3
:102A3000817008950895CF93DF93C0E080910D02D7
:102A4000C81760F00E94F714C0E080910D02C8170B
:102A500078F00E941A15DF91CF91089560E08C2FD5
:102A60000E94FE1461E08C2F0E94FE14CF5FE6CF1F
:102A700060E08C2F0E940F15D82F61E08C2F0E94F0
:102A80000F15EC2FF0E0E15FFD4F880F8D2B808359
:102A9000CF5FDBCF81E080930D020E941B1508956C
:102AA0001F93CF93DF93182F440F642BC82FD0E0D0
:102AB000DE01A15FBD4FEC918E2F8370681721F16D
:102AC000EE0FEE0FE62BEC93EF70F0E0EE5FFE4FB3
:102AD000C25FDD4F90818881980F9883943024F0F5
:102AE00060E0812F0E948C1488818D3F24F461E086
:102AF000812F0E948C148881082E000C990B64E0B1
:102B000070E00E9483258883DF91CF911F91089503
:102B1000CF93DF93C0E080910D02C81718F0DF91CA
:102B2000CF91089561E08C2F0E940F15D82F60E09F
:102B30008C2F0E940F15682F4D2F8C2F0E9450153F
:102B4000CF5FE9CF0E948B0E089580E00E94A5120E
:102B5000862F817008950E9497138FE59AEE019752
:102B6000F1F700C000000E9497130E94A51588236A
:102B700021F00E94A2150E94D62108950E94AB1553
:102B8000089583E0089550E0440F551F98E2699F2F
:102B9000400D511D112490EF899F400D511D1124AE
:102BA000CA018A9608950F931F93CF93DF938330C2
:102BB000C8F46630B8F44431A8F40E94C3158C01FF
:102BC0000E940526C82FD0E0DC2FCC27C801019633
:102BD0000E9405269E01282BC901DF91CF911F91EC
:102BE0000F91089580E090E0F8CF0F931F93CF935B
:102BF000DF93122F032F833078F4663068F444316A
:102C000058F40E94C315EC01602F0E942326612F07
:102C1000CE0101960E942326DF91CF911F910F9143
:102C200008950F931F93CF93DF93833048F561117D
:102C300027C024E0829F8001112406501D4FC80147
:102C40004423A1F00E940526C82FD0E0DC2FCC271A
:102C500081E090E0800F911F0E9405269E01282BA5
:102C6000C901DF91CF911F910F91089502960E94A3
:102C70000526C82FD0E0DC2FCC2783E090E0EACFF8
:102C800080E090E0EECF1F93CF93DF93962F122F2B
:102C9000632F8330A0F4911112C094E0899FE0016A
:102CA0001124C650DD4FCE01442369F00E94232633
:102CB00081E090E0612F8C0F9D1F0E942326DF9101
:102CC000CF911F91089502960E94232683E090E001
:102CD000F1CF1F93CF93DF93C0E0D0E011C0412F1D
:102CE0006D2F8C2F0E945F049C01412F6D2F8C2F24
:102CF0000E94F5151F5F143191F7DF5FD63011F098
:102D000010E0EDCF41E060E08C2F0E947B049C013D
:102D100041E060E08C2F0E94431640E060E08C2F81
:102D20000E947B049C0140E060E08C2F0E944316CF
:102D3000CF5FC33091F6DF91CF911F910895EF924D
:102D4000FF920F931F93CF93DF938C01EA017A01D7
:102D5000E60EF71ECE15DF0529F4CDB7DEB7E6E0A7
:102D60000C94CC25003D82E0180740F4C8018A96F7
:102D70000E94052689930F5F1F4FECCF80E0FACFAA
:102D8000EF92FF920F931F93CF93DF938C01EA0191
:102D90007A01E60EF71ECE15DF0529F4CDB7DEB7B2
:102DA000E6E00C94CC25003D82E0180728F4688109
:102DB000C8018A960E94232621960F5F1F4FEBCFF2
:102DC000833038F4663028F4443118F40E94D31567
:102DD000089580E090E00895833028F4611103C0E5
:102DE0000E941116089580E090E0089580E1089512
:102DF0008AEF90E00895EF92FF920F931F93CF9385
:102E0000DF938C01EA017A01E60EF71ECE15DF058D
:102E100029F4CDB7DEB7E6E00C94CC2580E00A3F7C
:102E2000110528F4C8018A5F9C4F0E9405268993EA
:102E30000F5F1F4FEBCFEF92FF920F931F93CF9334
:102E4000DF938C01EA017A01E60EF71ECE15DF054D
:102E500029F4CDB7DEB7E6E00C94CC250A3F110586
:102E600030F46881C8018A5F9C4F0E942326219616
:102E70000F5F1F4FEBCFCF93DF93C6E0D3E060E04F
:102E8000CE010E9423262196C11584E0D807B9F708
:102E9000DF91CF910895A8E0B0E0E1E5F7E10C946F
:102EA000AE25F82E2FE0281708F46FC08FEF93E0BF
:102EB0000E940526811169C006E013E0F11038C0B8
:102EC0001A821982FE01339686E0DF011D928A95EF
:102ED000E9F76801BFEFCB1ADB0AC8010E9405269B
:102EE00089831A82882309F450C08130D1F4780193
:102EF00022E0E20EF11CC6010E9405268A83882387
:102F000009F443C09FEF980F9330F8F4680183E011
:102F1000C80ED11CC7010E9405268B838823A9F106
:102F20001C8260E0CE0101960E940A1C8601D1CF6E
:102F3000011584E0180749F1C8010E9405260F5FBA
:102F40001F4F8111F5CFFA94B9CF8430B9F402E064
:102F500010E0C701AFEFEA1AFA0A0E940526E1E085
:102F6000F0E0EC0FFD1FE00FF11F8083882369F074
:102F70008C3731F4FE01E00FF11F12826701D1CFCF
:102F80000F5F1F4F0730110521F72896E8E00C94DA
:102F9000CA25CF93DF93EB0186319C4719F50E9438
:102FA000740D9D819923A1F08A7A91E0811101C06D
:102FB00090E090931002882349F085E30E94C2209C
:102FC0000E941C0E80E0DF91CF91089589E2F6CF38
:102FD00080911002882321F085E30E94D920F0CF50
:102FE00089E2FBCF81E0EFCFCF93DF93EC01FB01D0
:102FF0008581882309F4D2C09E01305723323105E0
:1030000008F0B2C00E94A80E909359028093580213
:10301000FE01E150F047E232F10520F4EC59F94DA0
:103020000C9497258091580281608093580293C038
:10303000809159028860809359028DC08091580216
:103040008260F3CF809158028460EFCF8091580264
:103050008860EBCF809159028160EDCF8091590259
:103060008260E9CF809158028061DFCF8091580261
:103070008062DBCF809158028064D7CF0E94FA082B
:10308000809158028068D1CF809158028C60CDCF5A
:10309000809159028360CFCF809158028E7FC5CF37
:1030A00080915902877FC7CF809158028D7FBDCF15
:1030B000809158028B7FB9CF80915802877FB5CF1E
:1030C000809159028E7FB7CF809159028D7FB3CF07
:1030D000809158028F7EA9CF809158028F7DA5CF15
:1030E000809158028F7BA1CF0E94FA0880915802EC
:1030F0008F779BCF80915802837F97CF8091590221
:103100008C7F99CF8091580282FB992790F921E01A
:10311000922790FB82F990FB83F987CF8091590227
:10312000982F909591708E7F892B90FB81F983CF9A
:1031300090915802892F8F7B96FF806476CF0E94F2
:10314000FA0890915802892F97FB87F980586DCF24
:1031500081E00E94380F80915802909159020E949C
:10316000AD0E0E94FA0880E0DF91CF91089580E0D3
:10317000F0CF90915802892F8F7E94FF806155CFB8
:1031800090915802892F8E7F90FF81604ECF909151
:103190005902892F877F93FF88604DCF81E0E4CF6C
:1031A000282F35EB2303C001112497FF04C080585A
:1031B0009109892F089580589F4FFBCF8091170266
:1031C00080FF0DC06091690070E0660F771F603866
:1031D0007105C0F561157105B9F1862F089581FF5C
:1031E00007C06091690084E0689FB0011124EFCFAF
:1031F00082FF04C06091690088E0F6CF80911602DA
:103200008823E9F0909168006091690070E0891767
:1032100030F093E0660F771F9A95E1F7D8CF869F3D
:103220009001879F300D112483E0220F331F8A9570
:10323000E1F7692F70E0C9010E948325C8CF68E0DB
:1032400070E0CBCF8FE7089581E008958091170259
:1032500080FF0CC06091650070E07595679575956D
:1032600067956115710561F1862F089581FF06C08C
:103270006091650070E075956795F3CF609165008A
:1032800070E082FD15C0209115022223B1F09091CB
:1032900064006091650070E0291750F4269FA0013A
:1032A000279F500D1124692F70E0CA010E948325C9
:1032B00060387105B0F28FE7089561E070E0D4CF17
:1032C00081E0089590911A0220911B02922B209187
:1032D0001D02922B20911C02922B992331F098E031
:1032E0009093160291E0909315028D3C31F40E9468
:1032F000DE18819580931B020895E2E3E80FE23126
:10330000B0F5F0E0EA57F94D0C9497250E94DE18CD
:10331000F1CF0E94DE18819580931A0208950E94D1
:10332000DE18FACF0E94261980931C0208950E948D
:1033300026198195F9CF0E942619819580931D0247
:1033400008950E942619FACF815D990B21E030E0A3
:1033500001C0220F8A95EAF780911902822B80938F
:1033600019020895809117028160809317020895D1
:10337000809117028260F9CF809117028460F5CFA7
:1033800040911A028D3C59F480911B0287FF0DC0B9
:1033900010921B02442359F41092160208C08E3C6E
:1033A00081F480911B0218169CF3442381F08091D4
:1033B0001C0290911D02892B811159C01092150297
:1033C00008958F3C41F447FFF0CF10921A0280918C
:1033D0001B028823E0CF803D19F41416B4F3E5CF27
:1033E00090911C02893D29F41916FCF610921C02DA
:1033F000DCCF8A3D19F497FFD8CFF8CF90911D020A
:103400008B3D29F497FFD1CF10921D02CECF8C3D7A
:1034100019F41916CCF3C9CF9FE2980F983090F4A5
:10342000815D990B21E030E0B90102C0660F771F82
:103430008A95E2F7CB0180959091190289238093B8
:103440001902B3CF8D3D31F4809117028E7F8093A6
:103450001702ABCF8E3D21F4809117028D7FF7CFFD
:103460008F3D09F0A2CF809117028B7FF0CF089596
:103470000E947A2120911A0230911B02232B2223D1
:1034800021F0809313029093140220911C0230913A
:103490001D02232B222321F080931102909312020C
:1034A00088E192E00E94B81F089586E0E8E1F2E02A
:1034B000DF011D928A95E9F710921602109215020B
:1034C000109217020895FC01828181110DC0838141
:1034D00081110AC08481811107C081E09581911119
:1034E00001C080E08170089581E0FCCFA6E0B0E0EB
:1034F000ECE7FAE10C94B12586E0E8E1F2E09E0108
:103500002F5F3F4FD90101900D928A95E1F71092FC
:103510001A0210921B0210921C0210921D028B8143
:103520009C81892B8901882391F0809113029091CD
:1035300014020E94A3219C01809116028823C9F1E4
:1035400040916A0050E04217530708F43FC08D8154
:103550009E81892B882399F080911102909112020B
:103560000E94A3219C0180911502882309F467C061
:103570004091660050E04217530708F46EC0B8014E
:1035800088E192E00E940A21811105C088E192E061
:103590000E94631A81110E94381A86E0F801A8E19E
:1035A000B2E001900D928A95E1F72696E5E00C9441
:1035B000CD2540916B009AE0499FA001112442174C
:1035C000530728F68F5F8093160202C08F3FD1F712
:1035D000FB80FF2059F00E94DE1891E01F140CF0D0
:1035E0009FEF899F802D112480931A02FC80FF2079
:1035F00059F00E94DE1891E01F140CF09FEF899F94
:10360000802D112480931B0280911A02882309F4D3
:103610009ECFF0901B02FF2009F499CF0E94D01892
:10362000811101C081E080931A028F2D0E94D01871
:10363000882319F080931B028ACF81E0FBCF409151
:1036400067009AE0499FA00111244217530708F030
:1036500096CF8F5F8093150202C08F3FD1F7FD8018
:10366000FF2059F00E94261991E01F140CF09FEFE3
:10367000899F802D112480931C02FE80FF2059F029
:103680000E94261991E01F140CF09FEF899F802D56
:10369000112480931D0280911C02882309F46FCFAE
:1036A000F0901D02FF2009F46ACF0E94D01881110A
:1036B00001C081E080931C028F2D0E94D0188823C6
:1036C00019F080931D025BCF81E0FBCFA0E0B0E05A
:1036D000ECE6FBE10C94AD25E82FF0E0E05DFC4F5B
:1036E000B490282F26952695269530E0F901E053D1
:1036F000FC4F0491877010E0082E02C015950795C5
:103700000A94E2F701701127F901E054FC4FE490AC
:10371000F12C082E02C0F594E7940A94E2F791E0A8
:10372000E922FF24F901E055FC4FC491D0E002C02A
:10373000D595C7958A95E2F7C170DD27C62ED12CA5
:103740000115110549F5E114F10431F086EE0E94EE
:103750000806C601009771F5B6018B2D0E948306FD
:10376000C601009779F5E114F104A1F501151105E1
:1037700031F081EE0E945006C6010097C9F5CD2BAD
:1037800031F08CE20E949B06C114D104C9F5CDB77B
:10379000DEB7E9E00C94C92581EE0E940806C60157
:1037A000009789F2E7EBFBE03197F1F700C00000EA
:1037B0000197F6CFE7EBFBE03197F1F700C000008F
:1037C0000197C8CFE7EBFBE03197F1F700C00000AD
:1037D0000197C7CF86EE0E945006C601009731F2CE
:1037E000E7EBFBE03197F1F700C000000197F6CF5F
:1037F000E7EBFBE03197F1F700C000000197BDCF88
:1038000087EB9BE00197F1F700C0000091E0C91A37
:10381000D108BACFEF92FF921F93CF93DF93EC01C1
:10382000162F8881882309F45AC0813009F053C0CB
:103830008981813071F47E0182E0E80EF11C8A8179
:103840000E949B06E701812F90E00097E1F5219609
:10385000E8CF823041F47E01E2E0EE0EF11C8A8175
:103860000E940806EFCF833041F47E01F2E0EF0EB4
:10387000F11C8A810E945006E5CF843011F0219618
:10388000E2CF2A81229680E090E06AE0AE014F5FAD
:103890005F4F2053330B2A30310550F0009799F2D7
:1038A000E7EBFBE03197F1F700C000000197F6CF9E
:1038B000689FF001699FF00D1124C9018E0F9F1FB1
:1038C0002981EA01E3CFE7EBFBE03197F1F700C094
:1038D00000000197BACF612F0E94661BB8CFDF911D
:1038E000CF911F91FF90EF9008950F931F93CF9367
:1038F000DF93C42FD22FFC0185818823C9F0409328
:1039000020020E947A2190931F0280931E0280E27F
:103910008C0F883040F4C77081E001C0880FCA95D1
:10392000EAF70E94A406DF91CF911F910F910895AD
:103930001091200214133CC080911E0290911F022E
:103940000E94A321883C910598F5C0E2CD0F1D1778
:1039500041F180E2810F883040F4177081E001C0AE
:10396000880F1A95EAF70E94AB06C83020F0802F26
:103970000E949B06D8CF91E08D2F877001C0990FD0
:103980008A95EAF7892F0E94A406802F0E949B0641
:10399000D77081E001C0880FDA95EAF70E94AB0684
:1039A000C2CF802F0E949B06C83008F0BCCFF0CF5A
:1039B00080E28C0F883008F0B6CFC77081E001C07C
:1039C000880FCA95EAF7EACF0F93FC01CB01E851C3
:1039D000FC47E730F10590F5E856F94D0C94972532
:1039E00006E221EE41EE6AE17CE70E94751C80E070
:1039F0000F91089507E225EE45EE6BE17CE7F5CFE8
:103A000006E221EE40EE68E17CE7EFCF07E225EE2B
:103A100044EE69E17CE7E9CF06E221EE42EE6CE19B
:103A20007CE7E3CF07E225EE46EE6DE17CE7DDCFF4
:103A300008E221E045EE6EE17CE7D7CFFB0185810E
:103A400081111092200281E0D3CFCF93DF939C01AC
:103A5000FB0127378CE7380739F028373C47F1F06E
:103A600081E0DF91CF9108958581882391F00E94B4
:103A7000571D0E9474090E945D1DD82F0E945A1D77
:103A8000C82F0E94571D4D2F6C2F0E94B50A80E051
:103A9000E8CF0E94571D0E948009EDCF85818823C1
:103AA00019F00E945A1DE5CF0E945A1DF4CF809153
:103AB0006E00089580916D00089580916C000895C6
:103AC00085E290E00E940526843289F486E290E047
:103AD0000E940526833059F487E290E00E94052673
:103AE00091E0873209F090E0892F8170089580E09D
:103AF000FCCF882381F064E285E290E00E942326D7
:103B000063E086E290E00E94232667E287E290E08D
:103B10000E94232608956FEF85E290E00E942326FD
:103B20006FEF86E290E00E9423266FEFEFCF0895BB
:103B3000CF92DF92EF92FF92CF93DF9300D000D02D
:103B4000CDB7DEB788E290E00E94052690E0A0E0C5
:103B5000B0E0CC24D82EE92EFA2E89E290E00E9423
:103B60000526A7019601282B29833A834B835C8382
:103B7000CA01B9010F900F900F900F90DF91CF9174
:103B8000FF90EF90DF90CF9008950895A4E0B0E00B
:103B9000ECECFDE10C94B42569837A838B839C83E0
:103BA00069817A818B819C810E94C51D698189E22E
:103BB00090E00E94232629813A814B815C819927DC
:103BC000852F742F632F88E290E00E94232624968D
:103BD000E2E00C94D02580E00E94791D60E070E066
:103BE000CB010E94C61D0E9469160E943B1781E00E
:103BF0000E94791D08950E94971D0E94981D0E94A1
:103C0000C51D0E94601D811102C00E94EB1D089518
:103C100008959C01FB018581882351F0A901575724
:103C20004038510530F4822F0E944B1780E00895F0
:103C300081E008952FEFFC01208308950E941A1E51
:103C4000089580E00895CF92DF92FF920F931F9323
:103C5000CF93DF93CDB7DEB72E970FB6F894DEBFC4
:103C60000FBECDBF8D839E83F62E8D819E810E94D7
:103C7000211E811115C0AD81BE81EC91E150E5316D
:103C800040F5F0E0E156F94D0C949725ED81FE8169
:103C900011828CE082836F2D8D819E810E9428236A
:103CA0002E960FB6F894DEBF0FBECDBFDF91CF9139
:103CB0001F910F91FF90DF90CF900895AD81BE814D
:103CC00011968C91833099F148F4813081F08230E3
:103CD000E9F08FEFAD81BE818C93DDCF8430C9F7E1
:103CE000ED81FE811282138214821582D4CF0E944C
:103CF00086210E949D256F83788789879A87ED8129
:103D0000FE816283738384839583C5CF0E94981D4F
:103D10000E949D256B877C878D879E87AD81BE81A4
:103D200012966D937D938D939C931597B4CFED81EF
:103D3000FE81028110E06F01B3E0CB0ED11C063092
:103D400011050CF0A8CF802F0E94A512D6018C93EC
:103D500011967C93119712966C930F5F1F4FECCFC7
:103D6000ED81FE818181823049F0853009F0B1CF4B
:103D7000ED81FE8182810E94081E8DCFAD81BE81C2
:103D800012968D919D910D90BC91A02D89839A835F
:103D9000AB83BC83BC01CD010E949D250E94C61D42
:103DA0007ACFAD81BE8113964C91139712966C9188
:103DB000129711968C910E94D315982789279827DE
:103DC000ED81FE819583848366CFAD81BE8114969B
:103DD0002D913C91159732272327322713964C912A
:103DE000139712966C91129711968C910E94F5156B
:103DF00052CF0E9469164FCF6F2D8D819E810E94F8
:103E00001E1E49CF0E94F616ED81FE81818343CFAD
:103E10000E94F816982789279827AD81BE811296AF
:103E20009C938E93119737CFED81FE81638170E073
:103E300081819281AF014C5F5F4F98278927982736
:103E40000E94FB1628CFAD81BE8113966C9113970B
:103E500070E011968D919C911297AD014C5F5F4F70
:103E60009827892798270E941B1715CF0E943B1778
:103E700012CF0E94C115C8CFAD81BE8113966C913F
:103E8000139770E011968D919C911297AD014C5F44
:103E90005F4F9827892798270E949F16FCCEED81B7
:103EA000FE81638170E081819281AF014C5F5F4F41
:103EB0009827892798270E94C016EDCE41E0AD8152
:103EC000BE8113968C91811101C040E0ED81FE818D
:103ED000628181810E941116982789279827AD81D8
:103EE000BE8115969C938E931497D5CEED81FE815D
:103EF0002481358132272327322741E083818111B4
:103F000001C040E0AD81BE8112966C91129711966E
:103F10008C910E944316BFCE909326028093250277
:103F20000895E0912502F0912602309729F0019042
:103F3000F081E02D0995089580E00895E091250233
:103F4000F0912602309721F00280F381E02D09954F
:103F50000895DC01E0912502F0912602309739F0B6
:103F600086E08C930480F581E02DCD0109950895BC
:103F7000DC01E0912502F0912602309739F082E0D1
:103F80008C930680F781E02DCD0109950895A3E07B
:103F9000B0E0EDECFFE10C94B4259C01809123028C
:103FA0009091240282179307A1F03093240220936A
:103FB0002302E0912502F0912602309751F083E030
:103FC00089833B832A830084F185E02DCE0101960D
:103FD00009952396E2E00C94D025A3E0B0E0E3EF4E
:103FE000FFE10C94B4259C01809121029091220262
:103FF00082179307A1F03093220220932102E091CF
:104000002502F0912602309751F084E089833B83AA
:104010002A830084F185E02DCE010196099523962F
:10402000E2E00C94D02520916200309163002E5F75
:104030003F4F809179008823A9F08091580287FF33
:1040400011C020916000309161002E5F3F4F9DE1D3
:1040500080E0F90140812F5F3F4F41118F5F915008
:10406000C0F7089595E0F4CF882321F1909179006D
:10407000992311F19091580297FF1EC0982F9695A1
:1040800096959695803FB0F4E0916000F0916100C4
:10409000E90FF11D228130E0877041E050E0BA0164
:1040A00002C0660F771F8A95E2F72623372381E047
:1040B000232B91F480E008952091620030916300F9
:1040C000F9013296285F3F4F9191981721F0E2173E
:1040D000F307D1F7EFCF81E008959C01FC01329600
:1040E0008FEF90E04191461751F08F3F19F4411145
:1040F00001C0892F9F5F9630A9F78F3F09F408957B
:10410000280F311D87FD3A95F901628308959C01BE
:10411000FC013296285F3F4F8191861303C0DF0177
:1041200011971C92E217F307B9F70895FC01862F47
:10413000869586958695603F60F4E80FF11D67705F
:1041400021E030E001C0220F6A95EAF78281822BDC
:1041500082830895FC01862F869586958695603F1B
:1041600080F4E80FF11D677081E090E09C0102C0CF
:10417000220F331F6A95E2F7B901609582816823A7
:1041800062830895682F80917900882359F0809187
:10419000580287FF07C080916000909161000E94E3
:1041A0009620089580916200909163000E946D2096
:1041B0000895682F80917900882359F080915802E2
:1041C00087FF07C080916000909161000E94AA2043
:1041D000089580916200909163000E948720089565
:1041E00080917900882379F08091580287FF0BC075
:1041F000E0916000F091610032968EE1DF011D9246
:104200008A95E9F70895E0916200F0916300329693
:1042100086E0F4CFDC01FB0111969C91119781811E
:10422000981322C012968C911297882319F09281CC
:1042300089131AC013968C911397882319F09381D0
:10424000891312C015968C911597882319F09581C2
:1042500089130AC014969C91992321F081E024814E
:10426000291303C080E001C081E0817008950895A2
:1042700008950E9438210895089508950E943721D5
:104280000895A5E0B0E0E7E4F1E20C94B4250E94C3
:104290003C210E9497130E943D211D828D810E9426
:1042A000A512672B682B692B51F48D818F5F8D834D
:1042B0008630A1F780E02596E2E00C94D02581E0DD
:1042C000FACF84B7806884BF84B7806884BF0895BC
:1042D0008091290281110E947C0508950E94FA08AC
:1042E0000E94810508958BE083BF8BEB8CBF82E039
:1042F00089BF08952FB7F89480918A0290918B021C
:10430000A0918C02B0918D022FBF0895A4E0B0E07F
:10431000ECE8F1E20C94B4258FB7F89420918A026E
:1043200030918B0240918C0250918D0229833A8307
:104330004B835C838FBF69817A818B819C812496BA
:10434000E2E00C94D0259C014FB7F89480918A024A
:1043500090918B02A0918C02B0918D024FBF821B75
:10436000930B089578941F921FB61F9211248F9378
:104370009F93AF93BF9380918A0290918B02A091FB
:104380008C02B0918D020196A11DB11D80938A020D
:1043900090938B02A0938C02B0938D02BF91AF914A
:1043A0009F918F911F901FBE1F90189588E198E0F4
:1043B0000FB6F894A89581BD0FBE91BDA895F8944D
:1043C000D8E0CEE528E3299320E0299314BEFFCF5F
:1043D000089588E198E00FB6F894A89581BD0FBEC6
:1043E00091BDFFCF8091B502882369F01092B5028C
:1043F0000E947A219093280280932702109229022A
:10440000809129020895809129028111F9CF80912C
:104410002702909128020E94A321069788F381E049
:1044200080932902EDCF0E947A21909328028093F5
:10443000270208950E9468258B9A8FEFA895E7EBD5
:10444000FBE03197F1F700C0000081508111F6CFF9
:104450008B98789408950E943E230E948C1F2FEB26
:1044600084ED91E0215080409040E1F700C00000D1
:1044700008950E94F221811136C00E946B24809120
:10448000BB02882329F08091990284FD0E94D20FFB
:104490000E946B248091BB02882329F08091A502A1
:1044A00084FD0E94322308950E9468210E944121C8
:1044B0008823C9F0F89491B3939A892F8C6081BBBB
:1044C00082B32CE0822782BB3FE54AEE80E0315088
:1044D00040408040E1F700C0000082B3822782BBE9
:1044E00091BB939878940E94F2218111DDCF0E94B4
:1044F0006E21C3CF8091570208950F931F93CF93DE
:10450000DF93162F072FD42FC5E08330F1F18430CD
:1045100039F1813049F48091990284FF0AC06D2FEE
:10452000812F902F0E945C24DF91CF911F910F91DA
:1045300008950E946B2487E99AE30197F1F700C080
:104540000000C150C111E7CFEFCF0E946B2487E973
:104550009AE30197F1F700C00000C150CC2321F38A
:104560008091A50284FFF1CF6D2F812F902F0E94A3
:104570006624DACF0E946B2487E99AE30197F1F76A
:1045800000C00000C150CC2379F28091D20284FF98
:10459000F1CF6D2F812F902F0E946124C5CFA0E015
:1045A000B0E0E5EDF2E20C94AE25F82E8B01EA01C5
:1045B0006A0183E0D694C7948A95E1F7E12C8E2DA9
:1045C00090E08C159D0570F0C770CC2331F04C2F16
:1045D00050E0B8018F2D0E947D22CDB7DEB7E8E014
:1045E0000C94CA2548E050E0B8018F2D0E947D222E
:1045F000085F1F4FE394E3CFBC0143E050E083E04A
:104600000E94CF220895BC0146E050E083E00E9462
:10461000CF220895BC0140E250E083E00E94CF2207
:104620000895CF93DF93D82FC92F48E050E0682F2B
:10463000792F81E00E94CF2288E0ED2FFC2FAEE49D
:10464000B2E001900D928A95E1F7DF91CF91089544
:10465000792F603231F440E250E0682F84E00E940C
:10466000CF22089580912D02803239F460E28EE2EB
:1046700092E00E94231E10922D0208958FE690E092
:104680000895FC0180818076803251F481818930E7
:1046900061F140F48230F1F0833021F1813071F02A
:1046A00080E008958A30A9F18B30D1F7848195811B
:1046B000892BB1F7828180937900F2CF8481958133
:1046C000892B71F78EE492E09093B7028093B60243
:1046D00088E0089586E592E09093B7028093B60251
:1046E00081E0089589E790E0F7CF82819381811579
:1046F000924069F484819581892B49F481E080930B
:104700002C028681978190932B0280932A028FEF4F
:104710000895838180935602C3CFFC0180912A02C1
:1047200090912B02892B61F080912C02813041F411
:1047300090819093570210922B0210922A020895B2
:104740008FEF0895282F6830B1F480912D028931C0
:1047500090F4E22FF92FA82FB0E0A25DBD4F9F018A
:10476000285F3F4F91919D93E217F307D9F7885F38
:1047700080932D02089580E0FBCFFC01838183307C
:1047800081F130F48130E9F0823019F180E0089550
:10479000813209F445C08232C9F784819581813024
:1047A000910509F456C08230910509F455C0892B52
:1047B00069F785E595E09093B7028093B60284E4AB
:1047C00008958BE394E09093B7028093B60282E160
:1047D000089580EE93E09093B7028093B6028BE544
:1047E00008958281813061F0823091F08111CECFC5
:1047F00089E794E09093B7028093B60284E008952D
:1048000081E794E09093B7028093B60286E0089522
:104810008DE494E09093B7028093B60282E208950B
:10482000848195818130910571F08230910571F01C
:10483000892B09F0ABCF82EF93E09093B70280937E
:10484000B60289E008958BE094E0F7CF8BE294E024
:10485000F4CF8DE794E0DECF8FE994E09093B70238
:104860008093B60286EB08951F93CF93DF93782F42
:10487000162FEA01888184FF1CC0898128E88227DD
:104880008983FE013296272F392FCF01710FD9016D
:104890002F5F3F4F4C914193472F421B1416BCF39F
:1048A000612F0E9401031C5F1883DF91CF911F913C
:1048B00008958AE58883E5CF49E952E00E943424CF
:1048C000089542ED52E00E943424089545EA52E0F2
:1048D0000E9434240895CF93DF936091B80263500F
:1048E00067FD12C08091B402CCE0D0E0C81BD109B2
:1048F000C454DD4F8091B302803108F059C0CE011D
:104900000E94A2231092B80280917B0084FF41C0D4
:1049100080917A008F3F09F43CC0C82F893008F09D
:10492000C8E0982F9C1B90937A0090918E0228E803
:10493000922790938E028823F1F08091B602909195
:10494000B7022091B20226FFB6C0FC012C2F4FE81F
:1049500052E03491DA013C934F5F5F4F3196215022
:104960002111F7CF01962FEF2C0F820F911D9093FD
:10497000B7028093B6026C2F8FE892E00E94010389
:1049800084E08C0FC83019F09FEF90937A008093E9
:104990007B0084E190B39C70911107C0815081111C
:1049A000F9CF1092B9021092B102DF91CF91089520
:1049B0008D3209F06DC0683009F0A4CF83EC80938C
:1049C0008E028AE580937B001092B2028881807605
:1049D000882371F0CE010E9441238F3FB9F5988161
:1049E00097FD8E8190E89093B20280937A008ACFEF
:1049F0002A8110929702998191110AC0109298020F
:104A000027E932E082E03093B7022093B6021EC05D
:104A1000953029F42093B90227E932E0F4CF96309B
:104A2000E9F49B81913039F4CE010E94BD2390E4DA
:104A30009093B202D2CF9230B9F39330A9F391326E
:104A400099F3923289F390E49093B2029F8191118D
:104A5000CCCF9E81981748F6892FC7CF983089F020
:104A6000993019F42093BB02D7CF9A3071F09B3064
:104A700099F69BE490939A029093D3029093A602A6
:104A8000CBCF2BEB32E081E0BECF27E932E0FBCF8A
:104A90008091B20287FF36CFCE010E948D238F3FD7
:104AA00021F48EE180937B002DCF882309F42ACF57
:104AB00010927A0027CFDC012C2F4FE852E0FA0148
:104AC0003D9130834F5F5F4F21502111F8CF4ACF86
:104AD000CF93DF9385B7886085BF8BB780688BBF26
:104AE000C9E9D2E08BE48983A2EDB2E011968C9300
:104AF0001197E5EAF2E081838AE588838C938083CD
:104B0000DF91CF91089597FB072E16F4009407D0FC
:104B100077FD09D00E94DB2507FC05D03EF4909577
:104B200081959F4F0895709561957F4F0895EE0F81
:104B3000FF1F0590F491E02D0994692796276927B6
:104B400078278727782708952F923F924F925F9278
:104B50006F927F928F929F92AF92BF92CF92DF928D
:104B6000EF92FF920F931F93CF93DF93CDB7DEB7F2
:104B7000CA1BDB0B0FB6F894DEBF0FBECDBF099486
:104B80002A88398848885F846E847D848C849B84DD
:104B9000AA84B984C884DF80EE80FD800C811B81EB
:104BA000AA81B981CE0FD11D0FB6F894DEBF0FBE1A
:104BB000CDBFED010895AA1BBB1B51E107C0AA1F81
:104BC000BB1FA617B70710F0A61BB70B881F991FAE
:104BD0005A95A9F780959095BC01CD010895FB01E8
:104BE000DC0104C08D910190801921F441505040A6
:104BF000C8F7881B990B0895FB01DC0102C00190E6
:104C00000D9241505040D8F70895E199FECF9FBBD7
:104C10008EBBE09A99278DB30895A8E1B0E042E0F9
:104C200050E00C944826DC01A40FB51F41505040C1
:104C300048F0CB01840F951F2E910E9424264150ED
:104C40005040D0F70895262FE199FECF9FBB8EBB31
:104C5000E09A01970DB2021631F02DBB0FB6F89411
:104C6000E29AE19A0FBE08950396272F0E94242608
:104C70000E942326252F0E942426242F0C942426CC
:104C80000196272F0E9424260C942326DC01CB01B9
:104C9000FC01E199FECF06C0FFBBEEBBE09A319666
:104CA0000DB20D9241505040B8F70895F894FFCFDF
:104CB000F006F006370737079C07B9071F071F07DD
:104CC000BE072B083C083C084C18C01854181E1886
:104CD0002218581826185C1868183218B91836188F
:104CE0006C183A18701898183E1874189F184418C1
:104CF0007A1882182A1860182E18641848187E1816
:104D00008E18A818B71818185018C71886198919B6
:104D10008F19A419A419A419A419A419A419A419C0
:104D2000A419921997199B19A119B219B819BC198C
:104D3000001D061DF01CFA1C0C1D121D181D461E20
:104D40005E1EB01ED11EE51EF91EFC1EFC1EFC1EC2
:104D5000691E691E021F081F141F231F361F391FDB
:084D60003C1F4F1F5E1F761F70
:104D6800B001D001280850011E0A14010302017A7B
:104D78002211230A230323FC2201FF5AE200E9003F
:104D8800EA00B500B600B700CD008301CC008A0167
:104D980092019401210223022402250226022702FD
:104DA8002A02B300B4006F0070009F01CB019F027C
:104DB800A002E200E900EA00B500B600B700CD00A5
:104DC8008301CC008A01920194012102230224026A
:104DD8002502260227022A02B300B4006F007000E1
:104DE8009F01CB019F02A002909192939495969770
:104DF800606162636400010506313007323436337E
:104E0800353700FF0100010000FFFF00000100012D
:024E1800FF0099
:00000001FF
